{
  "contractName": "ConsultationContract",
  "abi": [
    {
      "constant": true,
      "inputs": [],
      "name": "contractBalance",
      "outputs": [
        {
          "name": "",
          "type": "uint256"
        }
      ],
      "payable": false,
      "stateMutability": "view",
      "type": "function",
      "signature": "0x8b7afe2e"
    },
    {
      "constant": true,
      "inputs": [
        {
          "name": "keyValue",
          "type": "string"
        }
      ],
      "name": "getAgroFarmer",
      "outputs": [
        {
          "components": [
            {
              "name": "agroPublicKey",
              "type": "string"
            },
            {
              "name": "farmerPublicKey",
              "type": "string"
            },
            {
              "name": "agroKey",
              "type": "uint256"
            },
            {
              "name": "farmerKey",
              "type": "uint256"
            }
          ],
          "name": "",
          "type": "tuple"
        }
      ],
      "payable": false,
      "stateMutability": "view",
      "type": "function",
      "signature": "0xb44790fc"
    },
    {
      "constant": false,
      "inputs": [
        {
          "name": "keyValue",
          "type": "string"
        },
        {
          "name": "agroPublicKey",
          "type": "string"
        },
        {
          "name": "farmerPublicKey",
          "type": "string"
        },
        {
          "name": "agroKey",
          "type": "uint256"
        },
        {
          "name": "farmerKey",
          "type": "uint256"
        }
      ],
      "name": "bookFarmerAgroContract",
      "outputs": [],
      "payable": true,
      "stateMutability": "payable",
      "type": "function",
      "signature": "0x9aaba1bf"
    },
    {
      "constant": true,
      "inputs": [],
      "name": "getAllKeyValue",
      "outputs": [
        {
          "name": "",
          "type": "string[]"
        }
      ],
      "payable": false,
      "stateMutability": "view",
      "type": "function",
      "signature": "0xeb279439"
    },
    {
      "constant": true,
      "inputs": [],
      "name": "getContractBalance",
      "outputs": [
        {
          "name": "",
          "type": "uint256"
        }
      ],
      "payable": false,
      "stateMutability": "view",
      "type": "function",
      "signature": "0x6f9fb98a"
    }
  ],
  "bytecode": "0x60806040526020604051908101604052806040805190810160405280600581526020017f64756d6d7900000000000000000000000000000000000000000000000000000081525081525060029060016200005b92919062000070565b503480156200006957600080fd5b5062000203565b828054828255906000526020600020908101928215620000c4579160200282015b82811115620000c3578251829080519060200190620000b2929190620000d7565b509160200191906001019062000091565b5b509050620000d391906200015e565b5090565b828054600181600116156101000203166002900490600052602060002090601f016020900481019282601f106200011a57805160ff19168380011785556200014b565b828001600101855582156200014b579182015b828111156200014a5782518255916020019190600101906200012d565b5b5090506200015a91906200018f565b5090565b6200018c91905b808211156200018857600081816200017e9190620001b7565b5060010162000165565b5090565b90565b620001b491905b80821115620001b057600081600090555060010162000196565b5090565b90565b50805460018160011615610100020316600290046000825580601f10620001df575062000200565b601f016020900490600052602060002090810190620001ff91906200018f565b5b50565b610c0d80620002136000396000f3fe60806040526004361061006d576000357c0100000000000000000000000000000000000000000000000000000000900463ffffffff1680636f9fb98a146100725780638b7afe2e1461009d5780639aaba1bf146100c8578063b44790fc146100e4578063eb27943914610121575b600080fd5b34801561007e57600080fd5b5061008761014c565b6040516100949190610ac8565b60405180910390f35b3480156100a957600080fd5b506100b2610155565b6040516100bf9190610ac8565b60405180910390f35b6100e260048036036100dd919081019061085a565b61015b565b005b3480156100f057600080fd5b5061010b60048036036101069190810190610926565b61029e565b6040516101189190610aa6565b60405180910390f35b34801561012d57600080fd5b5061013661047c565b6040516101439190610a84565b60405180910390f35b60008054905090565b60005481565b61023488888080601f016020809104026020016040519081016040528093929190818152602001838380828437600081840152601f19601f8201169050808301925050505050505087878080601f016020809104026020016040519081016040528093929190818152602001838380828437600081840152601f19601f8201169050808301925050505050505086868080601f016020809104026020016040519081016040528093929190818152602001838380828437600081840152601f19601f820116905080830192505050505050508585610565565b6002888890918060018154018082558091505090600182039060005260206000200160009091929390919293909192909192509190610274929190610656565b50503073ffffffffffffffffffffffffffffffffffffffff16316000819055505050505050505050565b6102a66106d6565b6001826040518082805190602001908083835b6020831015156102de57805182526020820191506020810190506020830392506102b9565b6001836020036101000a038019825116818451168082178552505050505050905001915050908152602001604051809103902060806040519081016040529081600082018054600181600116156101000203166002900480601f0160208091040260200160405190810160405280929190818152602001828054600181600116156101000203166002900480156103b65780601f1061038b576101008083540402835291602001916103b6565b820191906000526020600020905b81548152906001019060200180831161039957829003601f168201915b50505050508152602001600182018054600181600116156101000203166002900480601f0160208091040260200160405190810160405280929190818152602001828054600181600116156101000203166002900480156104585780601f1061042d57610100808354040283529160200191610458565b820191906000526020600020905b81548152906001019060200180831161043b57829003601f168201915b50505050508152602001600282015481526020016003820154815250509050919050565b60606002805480602002602001604051908101604052809291908181526020016000905b8282101561055c578382906000526020600020018054600181600116156101000203166002900480601f0160208091040260200160405190810160405280929190818152602001828054600181600116156101000203166002900480156105485780601f1061051d57610100808354040283529160200191610548565b820191906000526020600020905b81548152906001019060200180831161052b57829003601f168201915b5050505050815260200190600101906104a0565b50505050905090565b61056d6106d6565b608060405190810160405280868152602001858152602001848152602001838152509050806001876040518082805190602001908083835b6020831015156105ca57805182526020820191506020810190506020830392506105a5565b6001836020036101000a038019825116818451168082178552505050505050905001915050908152602001604051809103902060008201518160000190805190602001906106199291906106ff565b5060208201518160010190805190602001906106369291906106ff565b506040820151816002015560608201518160030155905050505050505050565b828054600181600116156101000203166002900490600052602060002090601f016020900481019282601f1061069757803560ff19168380011785556106c5565b828001600101855582156106c5579182015b828111156106c45782358255916020019190600101906106a9565b5b5090506106d2919061077f565b5090565b608060405190810160405280606081526020016060815260200160008152602001600081525090565b828054600181600116156101000203166002900490600052602060002090601f016020900481019282601f1061074057805160ff191683800117855561076e565b8280016001018555821561076e579182015b8281111561076d578251825591602001919060010190610752565b5b50905061077b919061077f565b5090565b6107a191905b8082111561079d576000816000905550600101610785565b5090565b90565b60008083601f84011215156107b857600080fd5b8235905067ffffffffffffffff8111156107d157600080fd5b6020830191508360018202830111156107e957600080fd5b9250929050565b600082601f830112151561080357600080fd5b813561081661081182610b10565b610ae3565b9150808252602083016020830185838301111561083257600080fd5b61083d838284610b80565b50505092915050565b60006108528235610b76565b905092915050565b60008060008060008060008060a0898b03121561087657600080fd5b600089013567ffffffffffffffff81111561089057600080fd5b61089c8b828c016107a4565b9850985050602089013567ffffffffffffffff8111156108bb57600080fd5b6108c78b828c016107a4565b9650965050604089013567ffffffffffffffff8111156108e657600080fd5b6108f28b828c016107a4565b945094505060606109058b828c01610846565b92505060806109168b828c01610846565b9150509295985092959890939650565b60006020828403121561093857600080fd5b600082013567ffffffffffffffff81111561095257600080fd5b61095e848285016107f0565b91505092915050565b600061097282610b49565b8084526020840193508360208202850161098b85610b3c565b60005b848110156109c45783830388526109a68383516109d5565b92506109b182610b5f565b915060208801975060018101905061098e565b508196508694505050505092915050565b60006109e082610b54565b8084526109f4816020860160208601610b8f565b6109fd81610bc2565b602085010191505092915050565b60006080830160008301518482036000860152610a2882826109d5565b91505060208301518482036020860152610a4282826109d5565b9150506040830151610a576040860182610a75565b506060830151610a6a6060860182610a75565b508091505092915050565b610a7e81610b6c565b82525050565b60006020820190508181036000830152610a9e8184610967565b905092915050565b60006020820190508181036000830152610ac08184610a0b565b905092915050565b6000602082019050610add6000830184610a75565b92915050565b6000604051905081810181811067ffffffffffffffff82111715610b0657600080fd5b8060405250919050565b600067ffffffffffffffff821115610b2757600080fd5b601f19601f8301169050602081019050919050565b6000602082019050919050565b600081519050919050565b600081519050919050565b6000602082019050919050565b6000819050919050565b6000819050919050565b82818337600083830152505050565b60005b83811015610bad578082015181840152602081019050610b92565b83811115610bbc576000848401525b50505050565b6000601f19601f830116905091905056fea265627a7a72305820135ce42f964334cde127b32fd0686dd8f1a7a7f83e5febc552bd2fe768e80fd76c6578706572696d656e74616cf50037",
  "source": "// SPDX-License-Identifier: MIT\npragma solidity >=0.5.0;\npragma experimental ABIEncoderV2;\n\ncontract ConsultationContract {\n\n    // Ether stored in contract address\n    uint256 public contractBalance;\n\n    struct agroFarmerContract {\n        string agroPublicKey;\n        string farmerPublicKey;\n        uint256 agroKey;\n        uint256 farmerKey;\n    }\n\n    // agro-Farmer contract mappings\n    mapping (string => agroFarmerContract) agroFarmer;\n    string[] keyValueArray = [\"dummy\"];\n    \n\n    // set and get functions for agroFarmer\n    function setAgroFarmer(string memory keyValue, string memory agroPublicKey, string memory farmerPublicKey, uint256 agroKey,uint256 farmerKey\n    ) internal {\n        agroFarmerContract memory contractObj =  agroFarmerContract(agroPublicKey, farmerPublicKey, agroKey, farmerKey);\n        agroFarmer[keyValue] = contractObj;\n    }\n\n    function getAgroFarmer(string memory keyValue) public view returns (agroFarmerContract memory) {\n        return agroFarmer[keyValue];\n    }\n\n    // agro farmer money transfer to contract\n    function bookFarmerAgroContract (string calldata keyValue, string calldata agroPublicKey, string calldata farmerPublicKey, uint256 agroKey,uint256 farmerKey) external payable {\n        setAgroFarmer(keyValue, agroPublicKey, farmerPublicKey, agroKey, farmerKey);\n        keyValueArray.push(keyValue);\n        contractBalance=address(this).balance;\n    }\n    function getAllKeyValue() public view returns(string[] memory){\n        return keyValueArray;\n    }\n\n\n    // get contractBalance\n    function getContractBalance() public view returns (uint256) {\n        return contractBalance;\n    }\n}",
  "sourcePath": "/home/nikhil/Desktop/scm_project/src/contracts/ConsultationContract.sol",
  "compiler": {
    "name": "solc",
    "version": "0.5.0+commit.1d4f565a.Emscripten.clang"
  },
  "schemaVersion": "3.0.2",
  "updatedAt": "2021-04-17T04:11:14.132Z",
  "devdoc": {
    "methods": {}
  },
  "userdoc": {
    "methods": {}
  }
}