{
  "contractName": "Crops",
  "abi": [
    {
      "constant": false,
      "inputs": [
        {
          "name": "pub_key",
          "type": "string"
        },
        {
          "name": "crop_hash",
          "type": "string"
        },
        {
          "name": "crop_id",
          "type": "string"
        },
        {
          "name": "agro_key",
          "type": "string"
        },
        {
          "name": "keyPhrase",
          "type": "uint256"
        }
      ],
      "name": "setFarmerCrops",
      "outputs": [],
      "payable": false,
      "stateMutability": "nonpayable",
      "type": "function",
      "signature": "0xd3d40f09"
    },
    {
      "constant": true,
      "inputs": [
        {
          "name": "pub_key",
          "type": "string"
        }
      ],
      "name": "getFarmerCrops",
      "outputs": [
        {
          "name": "",
          "type": "string[]"
        }
      ],
      "payable": false,
      "stateMutability": "view",
      "type": "function",
      "signature": "0x69b42dc1"
    },
    {
      "constant": true,
      "inputs": [
        {
          "name": "crop_id",
          "type": "string"
        }
      ],
      "name": "getCropByCropId",
      "outputs": [
        {
          "name": "",
          "type": "string"
        }
      ],
      "payable": false,
      "stateMutability": "view",
      "type": "function",
      "signature": "0xedbced3d"
    },
    {
      "constant": true,
      "inputs": [],
      "name": "getAllCropId",
      "outputs": [
        {
          "name": "",
          "type": "string[]"
        }
      ],
      "payable": false,
      "stateMutability": "view",
      "type": "function",
      "signature": "0x990d0ee1"
    },
    {
      "constant": true,
      "inputs": [
        {
          "name": "pub_key",
          "type": "string"
        }
      ],
      "name": "getAgroCrops",
      "outputs": [
        {
          "name": "",
          "type": "string[]"
        }
      ],
      "payable": false,
      "stateMutability": "view",
      "type": "function",
      "signature": "0x54094b53"
    },
    {
      "constant": true,
      "inputs": [],
      "name": "getAllUsedKeys",
      "outputs": [
        {
          "name": "",
          "type": "uint256[]"
        }
      ],
      "payable": false,
      "stateMutability": "view",
      "type": "function",
      "signature": "0xf0691918"
    },
    {
      "constant": true,
      "inputs": [
        {
          "name": "crop_id",
          "type": "string"
        }
      ],
      "name": "match_cropId",
      "outputs": [
        {
          "name": "",
          "type": "bool"
        }
      ],
      "payable": false,
      "stateMutability": "view",
      "type": "function",
      "signature": "0xb228fc0f"
    }
  ],
  "bytecode": "0x60806040526020604051908101604052806040805190810160405280600181526020017f610000000000000000000000000000000000000000000000000000000000000081525081525060039060016200005b92919062000097565b50602060405190810160405280600160ff16815250600490600162000082929190620000fe565b503480156200009057600080fd5b5062000281565b828054828255906000526020600020908101928215620000eb579160200282015b82811115620000ea578251829080519060200190620000d992919062000155565b5091602001919060010190620000b8565b5b509050620000fa9190620001dc565b5090565b82805482825590600052602060002090810192821562000142579160200282015b8281111562000141578251829060ff169055916020019190600101906200011f565b5b5090506200015191906200020d565b5090565b828054600181600116156101000203166002900490600052602060002090601f016020900481019282601f106200019857805160ff1916838001178555620001c9565b82800160010185558215620001c9579182015b82811115620001c8578251825591602001919060010190620001ab565b5b509050620001d891906200020d565b5090565b6200020a91905b80821115620002065760008181620001fc919062000235565b50600101620001e3565b5090565b90565b6200023291905b808211156200022e57600081600090555060010162000214565b5090565b90565b50805460018160011615610100020316600290046000825580601f106200025d57506200027e565b601f0160209004906000526020600020908101906200027d91906200020d565b5b50565b61121d80620002916000396000f3fe608060405260043610610083576000357c0100000000000000000000000000000000000000000000000000000000900463ffffffff16806354094b531461008857806369b42dc1146100c5578063990d0ee114610102578063b228fc0f1461012d578063d3d40f091461016a578063edbced3d14610193578063f0691918146101d0575b600080fd5b34801561009457600080fd5b506100af60048036036100aa9190810190610dcb565b6101fb565b6040516100bc9190611036565b60405180910390f35b3480156100d157600080fd5b506100ec60048036036100e79190810190610dcb565b61034f565b6040516100f99190611036565b60405180910390f35b34801561010e57600080fd5b506101176104a3565b6040516101249190611036565b60405180910390f35b34801561013957600080fd5b50610154600480360361014f9190810190610dcb565b61058c565b604051610161919061107a565b60405180910390f35b34801561017657600080fd5b50610191600480360361018c9190810190610e0c565b6106a9565b005b34801561019f57600080fd5b506101ba60048036036101b59190810190610dcb565b6109ec565b6040516101c79190611095565b60405180910390f35b3480156101dc57600080fd5b506101e5610af9565b6040516101f29190611058565b60405180910390f35b60606002826040518082805190602001908083835b6020831015156102355780518252602082019150602081019050602083039250610210565b6001836020036101000a0380198251168184511680821785525050505050509050019150509081526020016040518091039020805480602002602001604051908101604052809291908181526020016000905b82821015610344578382906000526020600020018054600181600116156101000203166002900480601f0160208091040260200160405190810160405280929190818152602001828054600181600116156101000203166002900480156103305780601f1061030557610100808354040283529160200191610330565b820191906000526020600020905b81548152906001019060200180831161031357829003601f168201915b505050505081526020019060010190610288565b505050509050919050565b60606000826040518082805190602001908083835b6020831015156103895780518252602082019150602081019050602083039250610364565b6001836020036101000a0380198251168184511680821785525050505050509050019150509081526020016040518091039020805480602002602001604051908101604052809291908181526020016000905b82821015610498578382906000526020600020018054600181600116156101000203166002900480601f0160208091040260200160405190810160405280929190818152602001828054600181600116156101000203166002900480156104845780601f1061045957610100808354040283529160200191610484565b820191906000526020600020905b81548152906001019060200180831161046757829003601f168201915b5050505050815260200190600101906103dc565b505050509050919050565b60606003805480602002602001604051908101604052809291908181526020016000905b82821015610583578382906000526020600020018054600181600116156101000203166002900480601f01602080910402602001604051908101604052809291908181526020018280546001816001161561010002031660029004801561056f5780601f106105445761010080835404028352916020019161056f565b820191906000526020600020905b81548152906001019060200180831161055257829003601f168201915b5050505050815260200190600101906104c7565b50505050905090565b6000806000905060008090505b60038054905081101561068a5760606003828154811015156105b757fe5b906000526020600020018054600181600116156101000203166002900480601f0160208091040260200160405190810160405280929190818152602001828054600181600116156101000203166002900480156106555780601f1061062a57610100808354040283529160200191610655565b820191906000526020600020905b81548152906001019060200180831161063857829003601f168201915b5050505050905084805190602001208180519060200120141561067c57600192505061068a565b508080600101915050610599565b50600181141561069e5760019150506106a4565b60009150505b919050565b600080866040518082805190602001908083835b6020831015156106e257805182526020820191506020810190506020830392506106bd565b6001836020036101000a0380198251168184511680821785525050505050509050019150509081526020016040518091039020905080849080600181540180825580915050906001820390600052602060002001600090919290919091509080519060200190610753929190610b51565b5050806000876040518082805190602001908083835b60208310151561078e5780518252602082019150602081019050602083039250610769565b6001836020036101000a03801982511681845116808217855250505050505090500191505090815260200160405180910390209080546107cf929190610bd1565b50846001856040518082805190602001908083835b60208310151561080957805182526020820191506020810190506020830392506107e4565b6001836020036101000a0380198251168184511680821785525050505050509050019150509081526020016040518091039020908051906020019061084f929190610b51565b5060006002846040518082805190602001908083835b60208310151561088a5780518252602082019150602081019050602083039250610865565b6001836020036101000a03801982511681845116808217855250505050505090500191505090815260200160405180910390209050808590806001815401808255809150509060018203906000526020600020016000909192909190915090805190602001906108fb929190610b51565b5050806002856040518082805190602001908083835b6020831015156109365780518252602082019150602081019050602083039250610911565b6001836020036101000a0380198251168184511680821785525050505050509050019150509081526020016040518091039020908054610977929190610bd1565b5060038590806001815401808255809150509060018203906000526020600020016000909192909190915090805190602001906109b5929190610b51565b5050600483908060018154018082558091505090600182039060005260206000200160009091929091909150555050505050505050565b60606001826040518082805190602001908083835b602083101515610a265780518252602082019150602081019050602083039250610a01565b6001836020036101000a03801982511681845116808217855250505050505090500191505090815260200160405180910390208054600181600116156101000203166002900480601f016020809104026020016040519081016040528092919081815260200182805460018160011615610100020316600290048015610aed5780601f10610ac257610100808354040283529160200191610aed565b820191906000526020600020905b815481529060010190602001808311610ad057829003601f168201915b50505050509050919050565b60606004805480602002602001604051908101604052809291908181526020018280548015610b4757602002820191906000526020600020905b815481526020019060010190808311610b33575b5050505050905090565b828054600181600116156101000203166002900490600052602060002090601f016020900481019282601f10610b9257805160ff1916838001178555610bc0565b82800160010185558215610bc0579182015b82811115610bbf578251825591602001919060010190610ba4565b5b509050610bcd9190610c41565b5090565b828054828255906000526020600020908101928215610c305760005260206000209182015b82811115610c2f5782829080546001816001161561010002031660029004610c1f929190610c66565b5091600101919060010190610bf6565b5b509050610c3d9190610ced565b5090565b610c6391905b80821115610c5f576000816000905550600101610c47565b5090565b90565b828054600181600116156101000203166002900490600052602060002090601f016020900481019282601f10610c9f5780548555610cdc565b82800160010185558215610cdc57600052602060002091601f016020900482015b82811115610cdb578254825591600101919060010190610cc0565b5b509050610ce99190610c41565b5090565b610d1691905b80821115610d125760008181610d099190610d19565b50600101610cf3565b5090565b90565b50805460018160011615610100020316600290046000825580601f10610d3f5750610d5e565b601f016020900490600052602060002090810190610d5d9190610c41565b5b50565b600082601f8301121515610d7457600080fd5b8135610d87610d82826110e4565b6110b7565b91508082526020830160208301858383011115610da357600080fd5b610dae838284611190565b50505092915050565b6000610dc38235611186565b905092915050565b600060208284031215610ddd57600080fd5b600082013567ffffffffffffffff811115610df757600080fd5b610e0384828501610d61565b91505092915050565b600080600080600060a08688031215610e2457600080fd5b600086013567ffffffffffffffff811115610e3e57600080fd5b610e4a88828901610d61565b955050602086013567ffffffffffffffff811115610e6757600080fd5b610e7388828901610d61565b945050604086013567ffffffffffffffff811115610e9057600080fd5b610e9c88828901610d61565b935050606086013567ffffffffffffffff811115610eb957600080fd5b610ec588828901610d61565b9250506080610ed688828901610db7565b9150509295509295909350565b6000610eee8261112a565b80845260208401935083602082028501610f0785611110565b60005b84811015610f40578383038852610f22838351610ff1565b9250610f2d82611156565b9150602088019750600181019050610f0a565b508196508694505050505092915050565b6000610f5c82611135565b808452602084019350610f6e8361111d565b60005b82811015610fa057610f84868351611027565b610f8d82611163565b9150602086019550600181019050610f71565b50849250505092915050565b610fb581611170565b82525050565b6000610fc68261114b565b808452610fda81602086016020860161119f565b610fe3816111d2565b602085010191505092915050565b6000610ffc82611140565b80845261101081602086016020860161119f565b611019816111d2565b602085010191505092915050565b6110308161117c565b82525050565b600060208201905081810360008301526110508184610ee3565b905092915050565b600060208201905081810360008301526110728184610f51565b905092915050565b600060208201905061108f6000830184610fac565b92915050565b600060208201905081810360008301526110af8184610fbb565b905092915050565b6000604051905081810181811067ffffffffffffffff821117156110da57600080fd5b8060405250919050565b600067ffffffffffffffff8211156110fb57600080fd5b601f19601f8301169050602081019050919050565b6000602082019050919050565b6000602082019050919050565b600081519050919050565b600081519050919050565b600081519050919050565b600081519050919050565b6000602082019050919050565b6000602082019050919050565b60008115159050919050565b6000819050919050565b6000819050919050565b82818337600083830152505050565b60005b838110156111bd5780820151818401526020810190506111a2565b838111156111cc576000848401525b50505050565b6000601f19601f830116905091905056fea265627a7a72305820d91e14ace5357e5611dbfa61829cf5a9b5f0c7c3c38bcbe627df7f65ad3454dd6c6578706572696d656e74616cf50037",
  "source": "// SPDX-License-Identifier: MIT\npragma solidity >=0.5.0;\npragma experimental ABIEncoderV2;\n\ncontract Crops {\n    // Crop data storage attributes\n    mapping(string => string[]) farmer_crops;\n    mapping(string => string) cropInfo;\n    mapping (string => string[]) cropContract;\n    string[] allCropId = [\"a\"];\n    uint256[] usedKeys = [1];\n\n\n    // setters and getters for Farmer's crops, by different parameters\n    function setFarmerCrops(string memory pub_key, string memory crop_hash, string memory crop_id, string memory agro_key, uint256 keyPhrase) public {\n        string[] storage cropArray = farmer_crops[pub_key];\n        cropArray.push(crop_id);\n        farmer_crops[pub_key] = cropArray;\n        \n        cropInfo[crop_id] = crop_hash;\n\n        string[] storage cropIds = cropContract[agro_key];\n        cropIds.push(crop_id);\n        cropContract[agro_key] = cropIds;\n        \n        allCropId.push(crop_id);\n        usedKeys.push(keyPhrase);\n    }\n    function getFarmerCrops(string memory pub_key) public view returns(string[] memory){\n        return farmer_crops[pub_key];\n    }\n    function getCropByCropId(string memory crop_id) public view returns(string memory){\n        return cropInfo[crop_id];\n    }\n    function getAllCropId() public view returns(string[] memory){\n        return allCropId;\n    }\n    function getAgroCrops(string memory pub_key) public view returns(string[] memory){\n        return cropContract[pub_key];\n    }\n    function getAllUsedKeys() public view returns(uint256[] memory){\n        return usedKeys;\n    }\n\n    // functions checking for matching Id's\n    function match_cropId(string memory crop_id) public view returns (bool){\n        uint256 flag = 0;\n        for(uint i=0; i< allCropId.length; i++){\n        string memory x = allCropId[i];\n        if (keccak256(bytes(x)) == keccak256(bytes(crop_id))) {\n            flag=1;\n            break;\n        }\n        }\n        if (flag == 1) {\n            return true;\n        }\n        return false;\n    }\n}",
  "sourcePath": "/home/nikhil/Desktop/scm_project/src/contracts/Crops.sol",
  "compiler": {
    "name": "solc",
    "version": "0.5.0+commit.1d4f565a.Emscripten.clang"
  },
  "schemaVersion": "3.0.2",
  "updatedAt": "2021-06-03T09:11:00.132Z",
  "devdoc": {
    "methods": {}
  },
  "userdoc": {
    "methods": {}
  }
}