{
  "contractName": "Ratings",
  "abi": [
    {
      "constant": false,
      "inputs": [
        {
          "name": "crop_id",
          "type": "string"
        },
        {
          "name": "hash",
          "type": "string"
        }
      ],
      "name": "setCropRatings",
      "outputs": [],
      "payable": false,
      "stateMutability": "nonpayable",
      "type": "function",
      "signature": "0x1a3123b2"
    },
    {
      "constant": true,
      "inputs": [
        {
          "name": "crop_id",
          "type": "string"
        }
      ],
      "name": "getCropRatings",
      "outputs": [
        {
          "name": "",
          "type": "string[]"
        }
      ],
      "payable": false,
      "stateMutability": "view",
      "type": "function",
      "signature": "0x2b1227a1"
    },
    {
      "constant": false,
      "inputs": [
        {
          "name": "crop_id",
          "type": "string"
        },
        {
          "name": "hash",
          "type": "string"
        }
      ],
      "name": "setFarmerRatings",
      "outputs": [],
      "payable": false,
      "stateMutability": "nonpayable",
      "type": "function",
      "signature": "0x692a0f9f"
    },
    {
      "constant": true,
      "inputs": [
        {
          "name": "crop_id",
          "type": "string"
        }
      ],
      "name": "getFarmerRatings",
      "outputs": [
        {
          "name": "",
          "type": "string"
        }
      ],
      "payable": false,
      "stateMutability": "view",
      "type": "function",
      "signature": "0x21863f44"
    }
  ],
  "bytecode": "0x608060405234801561001057600080fd5b506108ab806100206000396000f3fe608060405260043610610062576000357c0100000000000000000000000000000000000000000000000000000000900463ffffffff1680631a3123b21461006757806321863f44146100905780632b1227a1146100cd578063692a0f9f1461010a575b600080fd5b34801561007357600080fd5b5061008e60048036036100899190810190610600565b610133565b005b34801561009c57600080fd5b506100b760048036036100b291908101906105bf565b6101df565b6040516100c49190610768565b60405180910390f35b3480156100d957600080fd5b506100f460048036036100ef91908101906105bf565b6102ec565b6040516101019190610746565b60405180910390f35b34801561011657600080fd5b50610131600480360361012c9190810190610600565b610440565b005b6000826040518082805190602001908083835b60208310151561016b5780518252602082019150602081019050602083039250610146565b6001836020036101000a03801982511681845116808217855250505050505090500191505090815260200160405180910390208190806001815401808255809150509060018203906000526020600020016000909192909190915090805190602001906101d99291906104c4565b50505050565b60606001826040518082805190602001908083835b60208310151561021957805182526020820191506020810190506020830392506101f4565b6001836020036101000a03801982511681845116808217855250505050505090500191505090815260200160405180910390208054600181600116156101000203166002900480601f0160208091040260200160405190810160405280929190818152602001828054600181600116156101000203166002900480156102e05780601f106102b5576101008083540402835291602001916102e0565b820191906000526020600020905b8154815290600101906020018083116102c357829003601f168201915b50505050509050919050565b60606000826040518082805190602001908083835b6020831015156103265780518252602082019150602081019050602083039250610301565b6001836020036101000a0380198251168184511680821785525050505050509050019150509081526020016040518091039020805480602002602001604051908101604052809291908181526020016000905b82821015610435578382906000526020600020018054600181600116156101000203166002900480601f0160208091040260200160405190810160405280929190818152602001828054600181600116156101000203166002900480156104215780601f106103f657610100808354040283529160200191610421565b820191906000526020600020905b81548152906001019060200180831161040457829003601f168201915b505050505081526020019060010190610379565b505050509050919050565b806001836040518082805190602001908083835b6020831015156104795780518252602082019150602081019050602083039250610454565b6001836020036101000a038019825116818451168082178552505050505050905001915050908152602001604051809103902090805190602001906104bf9291906104c4565b505050565b828054600181600116156101000203166002900490600052602060002090601f016020900481019282601f1061050557805160ff1916838001178555610533565b82800160010185558215610533579182015b82811115610532578251825591602001919060010190610517565b5b5090506105409190610544565b5090565b61056691905b8082111561056257600081600090555060010161054a565b5090565b90565b600082601f830112151561057c57600080fd5b813561058f61058a826107b7565b61078a565b915080825260208301602083018583830111156105ab57600080fd5b6105b683828461081e565b50505092915050565b6000602082840312156105d157600080fd5b600082013567ffffffffffffffff8111156105eb57600080fd5b6105f784828501610569565b91505092915050565b6000806040838503121561061357600080fd5b600083013567ffffffffffffffff81111561062d57600080fd5b61063985828601610569565b925050602083013567ffffffffffffffff81111561065657600080fd5b61066285828601610569565b9150509250929050565b6000610677826107f0565b80845260208401935083602082028501610690856107e3565b60005b848110156106c95783830388526106ab838351610710565b92506106b682610811565b9150602088019750600181019050610693565b508196508694505050505092915050565b60006106e582610806565b8084526106f981602086016020860161082d565b61070281610860565b602085010191505092915050565b600061071b826107fb565b80845261072f81602086016020860161082d565b61073881610860565b602085010191505092915050565b60006020820190508181036000830152610760818461066c565b905092915050565b6000602082019050818103600083015261078281846106da565b905092915050565b6000604051905081810181811067ffffffffffffffff821117156107ad57600080fd5b8060405250919050565b600067ffffffffffffffff8211156107ce57600080fd5b601f19601f8301169050602081019050919050565b6000602082019050919050565b600081519050919050565b600081519050919050565b600081519050919050565b6000602082019050919050565b82818337600083830152505050565b60005b8381101561084b578082015181840152602081019050610830565b8381111561085a576000848401525b50505050565b6000601f19601f830116905091905056fea265627a7a723058208a0cdb9222630816bf0175d21fa85689f29369626e479df426dd097e685f4ae96c6578706572696d656e74616cf50037",
  "source": "// SPDX-License-Identifier: MIT\npragma solidity >=0.5.0;\npragma experimental ABIEncoderV2;\n\ncontract Ratings {\n\n    // cropId to pre,post,harvest array\n    mapping(string => string[]) cropRatings;\n    // cropId to rating hash for each crop\n    mapping(string => string) farmerRatingPerCrop;\n\n    // ratings function\n    function setCropRatings(string memory crop_id, string memory hash) public {\n        cropRatings[crop_id].push(hash);\n    }\n    function getCropRatings(string memory crop_id) public view returns(string[] memory){\n        return cropRatings[crop_id];\n    }\n    function setFarmerRatings(string memory crop_id, string memory hash) public {\n        farmerRatingPerCrop[crop_id] = hash;\n    }\n    function getFarmerRatings(string memory crop_id) public view returns(string memory){\n        return farmerRatingPerCrop[crop_id]; \n    }\n}",
  "sourcePath": "/home/nikhil/Desktop/scm_project/src/contracts/Ratings.sol",
  "compiler": {
    "name": "solc",
    "version": "0.5.0+commit.1d4f565a.Emscripten.clang"
  },
  "schemaVersion": "3.0.2",
  "updatedAt": "2021-04-16T15:03:36.986Z",
  "devdoc": {
    "methods": {}
  },
  "userdoc": {
    "methods": {}
  }
}