{
  "contractName": "Scm",
  "abi": [
    {
      "constant": true,
      "inputs": [
        {
          "name": "pub_key",
          "type": "string"
        },
        {
          "name": "pass",
          "type": "string"
        }
      ],
      "name": "validateAdmindetails",
      "outputs": [
        {
          "name": "",
          "type": "bool"
        }
      ],
      "payable": false,
      "stateMutability": "view",
      "type": "function",
      "signature": "0xe32c1903"
    },
    {
      "constant": false,
      "inputs": [
        {
          "name": "pub_key",
          "type": "string"
        },
        {
          "name": "crop_hash",
          "type": "string"
        },
        {
          "name": "crop_id",
          "type": "string"
        }
      ],
      "name": "setFarmerCrops",
      "outputs": [],
      "payable": false,
      "stateMutability": "nonpayable",
      "type": "function",
      "signature": "0x04bda348"
    },
    {
      "constant": true,
      "inputs": [
        {
          "name": "pub_key",
          "type": "string"
        }
      ],
      "name": "getFarmerCrops",
      "outputs": [
        {
          "name": "",
          "type": "string[]"
        }
      ],
      "payable": false,
      "stateMutability": "view",
      "type": "function",
      "signature": "0x69b42dc1"
    },
    {
      "constant": true,
      "inputs": [
        {
          "name": "crop_id",
          "type": "string"
        }
      ],
      "name": "getCropByCropId",
      "outputs": [
        {
          "name": "",
          "type": "string"
        }
      ],
      "payable": false,
      "stateMutability": "view",
      "type": "function",
      "signature": "0xedbced3d"
    },
    {
      "constant": true,
      "inputs": [],
      "name": "getAllCropId",
      "outputs": [
        {
          "name": "",
          "type": "string[]"
        }
      ],
      "payable": false,
      "stateMutability": "view",
      "type": "function",
      "signature": "0x990d0ee1"
    },
    {
      "constant": true,
      "inputs": [
        {
          "name": "crop_id",
          "type": "string"
        }
      ],
      "name": "match_cropId",
      "outputs": [
        {
          "name": "",
          "type": "bool"
        }
      ],
      "payable": false,
      "stateMutability": "view",
      "type": "function",
      "signature": "0xb228fc0f"
    },
    {
      "constant": false,
      "inputs": [
        {
          "name": "pub_key",
          "type": "string"
        },
        {
          "name": "signup_hash",
          "type": "string"
        }
      ],
      "name": "set_signup",
      "outputs": [],
      "payable": false,
      "stateMutability": "nonpayable",
      "type": "function",
      "signature": "0x9a80f157"
    },
    {
      "constant": true,
      "inputs": [
        {
          "name": "pub_key",
          "type": "string"
        }
      ],
      "name": "get_signup",
      "outputs": [
        {
          "name": "",
          "type": "string"
        }
      ],
      "payable": false,
      "stateMutability": "view",
      "type": "function",
      "signature": "0x19cec54b"
    },
    {
      "constant": true,
      "inputs": [],
      "name": "get_usernames",
      "outputs": [
        {
          "name": "",
          "type": "string[]"
        }
      ],
      "payable": false,
      "stateMutability": "view",
      "type": "function",
      "signature": "0x0da1b264"
    },
    {
      "constant": true,
      "inputs": [
        {
          "name": "pub_key",
          "type": "string"
        }
      ],
      "name": "match_usernames",
      "outputs": [
        {
          "name": "",
          "type": "bool"
        }
      ],
      "payable": false,
      "stateMutability": "view",
      "type": "function",
      "signature": "0xabf3e364"
    }
  ],
  "bytecode": "0x6080604052602060405190810160405280606060405190810160405280603081526020017f307837343361323634443139396431313333633344334561633138423931424281526020017f384535363862303945612d61646d696e00000000000000000000000000000000815250815250600190600162000082929190620001a8565b506040805190810160405280606060405190810160405280603081526020017f307837343361323634443139396431313333633344334561633138423931424281526020017f384535363862303945612d61646d696e0000000000000000000000000000000081525081526020016040805190810160405280600881526020017f506173733132334000000000000000000000000000000000000000000000000081525081525060029060026200013b9291906200020f565b506020604051908101604052806040805190810160405280600181526020017f6100000000000000000000000000000000000000000000000000000000000000815250815250600590600162000193929190620001a8565b50348015620001a157600080fd5b50620003a2565b828054828255906000526020600020908101928215620001fc579160200282015b82811115620001fb578251829080519060200190620001ea92919062000276565b5091602001919060010190620001c9565b5b5090506200020b9190620002fd565b5090565b82805482825590600052602060002090810192821562000263579160200282015b82811115620002625782518290805190602001906200025192919062000276565b509160200191906001019062000230565b5b509050620002729190620002fd565b5090565b828054600181600116156101000203166002900490600052602060002090601f016020900481019282601f10620002b957805160ff1916838001178555620002ea565b82800160010185558215620002ea579182015b82811115620002e9578251825591602001919060010190620002cc565b5b509050620002f991906200032e565b5090565b6200032b91905b808211156200032757600081816200031d919062000356565b5060010162000304565b5090565b90565b6200035391905b808211156200034f57600081600090555060010162000335565b5090565b90565b50805460018160011615610100020316600290046000825580601f106200037e57506200039f565b601f0160209004906000526020600020908101906200039e91906200032e565b5b50565b61144180620003b26000396000f3fe6080604052600436106100a4576000357c0100000000000000000000000000000000000000000000000000000000900463ffffffff16806304bda348146100a95780630da1b264146100d257806319cec54b146100fd57806369b42dc11461013a578063990d0ee1146101775780639a80f157146101a2578063abf3e364146101cb578063b228fc0f14610208578063e32c190314610245578063edbced3d14610282575b600080fd5b3480156100b557600080fd5b506100d060048036036100cb9190810190611135565b6102bf565b005b3480156100de57600080fd5b506100e76104ac565b6040516100f491906112b5565b60405180910390f35b34801561010957600080fd5b50610124600480360361011f9190810190611088565b610595565b60405161013191906112f2565b60405180910390f35b34801561014657600080fd5b50610161600480360361015c9190810190611088565b6106a2565b60405161016e91906112b5565b60405180910390f35b34801561018357600080fd5b5061018c6107f6565b60405161019991906112b5565b60405180910390f35b3480156101ae57600080fd5b506101c960048036036101c491908101906110c9565b6108df565b005b3480156101d757600080fd5b506101f260048036036101ed9190810190611088565b6109a2565b6040516101ff91906112d7565b60405180910390f35b34801561021457600080fd5b5061022f600480360361022a9190810190611088565b610abf565b60405161023c91906112d7565b60405180910390f35b34801561025157600080fd5b5061026c600480360361026791908101906110c9565b610bdc565b60405161027991906112d7565b60405180910390f35b34801561028e57600080fd5b506102a960048036036102a49190810190611088565b610d15565b6040516102b691906112f2565b60405180910390f35b60006003846040518082805190602001908083835b6020831015156102f957805182526020820191506020810190506020830392506102d4565b6001836020036101000a038019825116818451168082178552505050505050905001915050908152602001604051809103902090508083908060018154018082558091505090600182039060005260206000200160009091929091909150908051906020019061036a929190610e22565b5050806003856040518082805190602001908083835b6020831015156103a55780518252602082019150602081019050602083039250610380565b6001836020036101000a03801982511681845116808217855250505050505090500191505090815260200160405180910390209080546103e6929190610ea2565b50826004836040518082805190602001908083835b60208310151561042057805182526020820191506020810190506020830392506103fb565b6001836020036101000a03801982511681845116808217855250505050505090500191505090815260200160405180910390209080519060200190610466929190610e22565b5060058290806001815401808255809150509060018203906000526020600020016000909192909190915090805190602001906104a4929190610e22565b505050505050565b60606001805480602002602001604051908101604052809291908181526020016000905b8282101561058c578382906000526020600020018054600181600116156101000203166002900480601f0160208091040260200160405190810160405280929190818152602001828054600181600116156101000203166002900480156105785780601f1061054d57610100808354040283529160200191610578565b820191906000526020600020905b81548152906001019060200180831161055b57829003601f168201915b5050505050815260200190600101906104d0565b50505050905090565b60606000826040518082805190602001908083835b6020831015156105cf57805182526020820191506020810190506020830392506105aa565b6001836020036101000a03801982511681845116808217855250505050505090500191505090815260200160405180910390208054600181600116156101000203166002900480601f0160208091040260200160405190810160405280929190818152602001828054600181600116156101000203166002900480156106965780601f1061066b57610100808354040283529160200191610696565b820191906000526020600020905b81548152906001019060200180831161067957829003601f168201915b50505050509050919050565b60606003826040518082805190602001908083835b6020831015156106dc57805182526020820191506020810190506020830392506106b7565b6001836020036101000a0380198251168184511680821785525050505050509050019150509081526020016040518091039020805480602002602001604051908101604052809291908181526020016000905b828210156107eb578382906000526020600020018054600181600116156101000203166002900480601f0160208091040260200160405190810160405280929190818152602001828054600181600116156101000203166002900480156107d75780601f106107ac576101008083540402835291602001916107d7565b820191906000526020600020905b8154815290600101906020018083116107ba57829003601f168201915b50505050508152602001906001019061072f565b505050509050919050565b60606005805480602002602001604051908101604052809291908181526020016000905b828210156108d6578382906000526020600020018054600181600116156101000203166002900480601f0160208091040260200160405190810160405280929190818152602001828054600181600116156101000203166002900480156108c25780601f10610897576101008083540402835291602001916108c2565b820191906000526020600020905b8154815290600101906020018083116108a557829003601f168201915b50505050508152602001906001019061081a565b50505050905090565b806000836040518082805190602001908083835b60208310151561091857805182526020820191506020810190506020830392506108f3565b6001836020036101000a0380198251168184511680821785525050505050509050019150509081526020016040518091039020908051906020019061095e929190610e22565b50600182908060018154018082558091505090600182039060005260206000200160009091929091909150908051906020019061099c929190610e22565b50505050565b6000806000905060008090505b600180549050811015610aa05760606001828154811015156109cd57fe5b906000526020600020018054600181600116156101000203166002900480601f016020809104026020016040519081016040528092919081815260200182805460018160011615610100020316600290048015610a6b5780601f10610a4057610100808354040283529160200191610a6b565b820191906000526020600020905b815481529060010190602001808311610a4e57829003601f168201915b50505050509050848051906020012081805190602001201415610a92576001925050610aa0565b5080806001019150506109af565b506001811415610ab4576001915050610aba565b60009150505b919050565b6000806000905060008090505b600580549050811015610bbd576060600582815481101515610aea57fe5b906000526020600020018054600181600116156101000203166002900480601f016020809104026020016040519081016040528092919081815260200182805460018160011615610100020316600290048015610b885780601f10610b5d57610100808354040283529160200191610b88565b820191906000526020600020905b815481529060010190602001808311610b6b57829003601f168201915b50505050509050848051906020012081805190602001201415610baf576001925050610bbd565b508080600101915050610acc565b506001811415610bd1576001915050610bd7565b60009150505b919050565b600060026000815481101515610bee57fe5b906000526020600020016040518082805460018160011615610100020316600290048015610c535780601f10610c31576101008083540402835291820191610c53565b820191906000526020600020905b815481529060010190602001808311610c3f575b505091505060405180910390208380519060200120148015610cfc575060026001815481101515610c8057fe5b906000526020600020016040518082805460018160011615610100020316600290048015610ce55780601f10610cc3576101008083540402835291820191610ce5565b820191906000526020600020905b815481529060010190602001808311610cd1575b505091505060405180910390208280519060200120145b15610d0a5760019050610d0f565b600090505b92915050565b60606004826040518082805190602001908083835b602083101515610d4f5780518252602082019150602081019050602083039250610d2a565b6001836020036101000a03801982511681845116808217855250505050505090500191505090815260200160405180910390208054600181600116156101000203166002900480601f016020809104026020016040519081016040528092919081815260200182805460018160011615610100020316600290048015610e165780601f10610deb57610100808354040283529160200191610e16565b820191906000526020600020905b815481529060010190602001808311610df957829003601f168201915b50505050509050919050565b828054600181600116156101000203166002900490600052602060002090601f016020900481019282601f10610e6357805160ff1916838001178555610e91565b82800160010185558215610e91579182015b82811115610e90578251825591602001919060010190610e75565b5b509050610e9e9190610f12565b5090565b828054828255906000526020600020908101928215610f015760005260206000209182015b82811115610f005782829080546001816001161561010002031660029004610ef0929190610f37565b5091600101919060010190610ec7565b5b509050610f0e9190610fbe565b5090565b610f3491905b80821115610f30576000816000905550600101610f18565b5090565b90565b828054600181600116156101000203166002900490600052602060002090601f016020900481019282601f10610f705780548555610fad565b82800160010185558215610fad57600052602060002091601f016020900482015b82811115610fac578254825591600101919060010190610f91565b5b509050610fba9190610f12565b5090565b610fe791905b80821115610fe35760008181610fda9190610fea565b50600101610fc4565b5090565b90565b50805460018160011615610100020316600290046000825580601f10611010575061102f565b601f01602090049060005260206000209081019061102e9190610f12565b5b50565b600082601f830112151561104557600080fd5b813561105861105382611341565b611314565b9150808252602083016020830185838301111561107457600080fd5b61107f8382846113b4565b50505092915050565b60006020828403121561109a57600080fd5b600082013567ffffffffffffffff8111156110b457600080fd5b6110c084828501611032565b91505092915050565b600080604083850312156110dc57600080fd5b600083013567ffffffffffffffff8111156110f657600080fd5b61110285828601611032565b925050602083013567ffffffffffffffff81111561111f57600080fd5b61112b85828601611032565b9150509250929050565b60008060006060848603121561114a57600080fd5b600084013567ffffffffffffffff81111561116457600080fd5b61117086828701611032565b935050602084013567ffffffffffffffff81111561118d57600080fd5b61119986828701611032565b925050604084013567ffffffffffffffff8111156111b657600080fd5b6111c286828701611032565b9150509250925092565b60006111d78261137a565b808452602084019350836020820285016111f08561136d565b60005b8481101561122957838303885261120b83835161127f565b92506112168261139b565b91506020880197506001810190506111f3565b508196508694505050505092915050565b611243816113a8565b82525050565b600061125482611390565b8084526112688160208601602086016113c3565b611271816113f6565b602085010191505092915050565b600061128a82611385565b80845261129e8160208601602086016113c3565b6112a7816113f6565b602085010191505092915050565b600060208201905081810360008301526112cf81846111cc565b905092915050565b60006020820190506112ec600083018461123a565b92915050565b6000602082019050818103600083015261130c8184611249565b905092915050565b6000604051905081810181811067ffffffffffffffff8211171561133757600080fd5b8060405250919050565b600067ffffffffffffffff82111561135857600080fd5b601f19601f8301169050602081019050919050565b6000602082019050919050565b600081519050919050565b600081519050919050565b600081519050919050565b6000602082019050919050565b60008115159050919050565b82818337600083830152505050565b60005b838110156113e15780820151818401526020810190506113c6565b838111156113f0576000848401525b50505050565b6000601f19601f830116905091905056fea265627a7a7230582021ac2b2bb9c01daa5dccd9fdf9b53912cbf558a269f328cb71f2f61e1aaefffb6c6578706572696d656e74616cf50037",
  "source": "pragma solidity ^0.5.0;\npragma experimental ABIEncoderV2;\n\ncontract Scm {\n  mapping(string => string) signup;\n  string[] usernames_signup = [\"0x743a264D199d1133c3D3Eac18B91BB8E568b09Ea-admin\"];\n  string[] AdminDetails = [\"0x743a264D199d1133c3D3Eac18B91BB8E568b09Ea-admin\",\"Pass123@\"];\n  \n  \n  mapping(string => string[]) farmer_crops;\n  mapping(string => string) cropInfo;\n  string[] allCropId = [\"a\"];\n\n  function validateAdmindetails(string memory pub_key, string memory pass) public view returns (bool) {\n      if(keccak256(bytes(pub_key)) == keccak256(bytes(AdminDetails[0])) && keccak256(bytes(pass))==keccak256(bytes(AdminDetails[1]))){\n          return true; \n      }\n      return false;\n  }\n  \n  function setFarmerCrops(string memory pub_key, string memory crop_hash, string memory crop_id) public {\n      string[] storage cropArray = farmer_crops[pub_key];\n      cropArray.push(crop_hash);\n      farmer_crops[pub_key] = cropArray;\n      \n      cropInfo[crop_id] = crop_hash;\n      \n      allCropId.push(crop_id);\n  }\n  \n  function getFarmerCrops(string memory pub_key) public view returns(string[] memory){\n      return farmer_crops[pub_key];\n  }\n  \n  function getCropByCropId(string memory crop_id) public view returns(string memory){\n      return cropInfo[crop_id];\n  }\n  \n  function getAllCropId() public view returns(string[] memory){\n      return allCropId;\n  }\n  \n  function match_cropId(string memory crop_id) public view returns (bool){\n    uint256 flag = 0;\n    for(uint i=0; i< allCropId.length; i++){\n      string memory x = allCropId[i];\n      if (keccak256(bytes(x)) == keccak256(bytes(crop_id))) {\n        flag=1;\n        break;\n      }\n    }\n    if (flag == 1) {\n        return true;\n    }\n    return false;\n  }\n\n\n  function set_signup(string memory pub_key, string memory signup_hash) public {\n    signup[pub_key] = signup_hash;\n    usernames_signup.push(pub_key);\n  }\n\n  function get_signup(string memory pub_key) public view returns (string memory) {\n    return signup[pub_key];\n  }\n  \n  function get_usernames() public view returns (string[] memory) {\n    return usernames_signup;\n  }\n\n  function match_usernames(string memory pub_key) public view returns (bool){\n    uint256 flag = 0;\n    for(uint i=0; i< usernames_signup.length; i++){\n      string memory x = usernames_signup[i];\n      if (keccak256(bytes(x)) == keccak256(bytes(pub_key))) {\n        flag=1;\n        break;\n      }\n    }\n    if (flag == 1) {\n        return true;\n    }\n    return false;\n  }\n}",
  "sourcePath": "/home/nikhil/Desktop/scm_project/src/contracts/scm.sol",
  "compiler": {
    "name": "solc",
    "version": "0.5.0+commit.1d4f565a.Emscripten.clang"
  },
  "schemaVersion": "3.0.2",
  "updatedAt": "2021-03-18T11:23:43.133Z",
  "devdoc": {
    "methods": {}
  },
  "userdoc": {
    "methods": {}
  }
}