{
  "contractName": "Scm",
  "abi": [
    {
      "constant": true,
      "inputs": [],
      "name": "contractBalance",
      "outputs": [
        {
          "name": "",
          "type": "uint256"
        }
      ],
      "payable": false,
      "stateMutability": "view",
      "type": "function",
      "signature": "0x8b7afe2e"
    },
    {
      "inputs": [],
      "payable": false,
      "stateMutability": "nonpayable",
      "type": "constructor",
      "signature": "constructor"
    },
    {
      "constant": true,
      "inputs": [
        {
          "name": "keyValue",
          "type": "string"
        }
      ],
      "name": "getAgroFarmer",
      "outputs": [
        {
          "components": [
            {
              "name": "agroPublicKey",
              "type": "string"
            },
            {
              "name": "farmerPublicKey",
              "type": "string"
            },
            {
              "name": "agroKey",
              "type": "uint256"
            },
            {
              "name": "farmerKey",
              "type": "uint256"
            }
          ],
          "name": "",
          "type": "tuple"
        }
      ],
      "payable": false,
      "stateMutability": "view",
      "type": "function",
      "signature": "0xb44790fc"
    },
    {
      "constant": false,
      "inputs": [
        {
          "name": "keyValue",
          "type": "string"
        },
        {
          "name": "agroPublicKey",
          "type": "string"
        },
        {
          "name": "farmerPublicKey",
          "type": "string"
        },
        {
          "name": "agroKey",
          "type": "uint256"
        },
        {
          "name": "farmerKey",
          "type": "uint256"
        }
      ],
      "name": "bookFarmerAgroContract",
      "outputs": [],
      "payable": true,
      "stateMutability": "payable",
      "type": "function",
      "signature": "0x9aaba1bf"
    },
    {
      "constant": true,
      "inputs": [],
      "name": "getContractBalance",
      "outputs": [
        {
          "name": "",
          "type": "uint256"
        }
      ],
      "payable": false,
      "stateMutability": "view",
      "type": "function",
      "signature": "0x6f9fb98a"
    },
    {
      "constant": false,
      "inputs": [],
      "name": "setSecurityDeposit",
      "outputs": [],
      "payable": true,
      "stateMutability": "payable",
      "type": "function",
      "signature": "0x4a600edc"
    },
    {
      "constant": true,
      "inputs": [],
      "name": "getSecurityDeposit",
      "outputs": [
        {
          "name": "",
          "type": "uint256"
        }
      ],
      "payable": false,
      "stateMutability": "view",
      "type": "function",
      "signature": "0x64a40642"
    },
    {
      "constant": true,
      "inputs": [
        {
          "name": "pub_key",
          "type": "string"
        },
        {
          "name": "pass",
          "type": "string"
        }
      ],
      "name": "validateAdmindetails",
      "outputs": [
        {
          "name": "",
          "type": "bool"
        }
      ],
      "payable": false,
      "stateMutability": "view",
      "type": "function",
      "signature": "0xe32c1903"
    },
    {
      "constant": false,
      "inputs": [
        {
          "name": "pub_key",
          "type": "string"
        },
        {
          "name": "crop_hash",
          "type": "string"
        },
        {
          "name": "crop_id",
          "type": "string"
        }
      ],
      "name": "setFarmerCrops",
      "outputs": [],
      "payable": false,
      "stateMutability": "nonpayable",
      "type": "function",
      "signature": "0x04bda348"
    },
    {
      "constant": true,
      "inputs": [
        {
          "name": "pub_key",
          "type": "string"
        }
      ],
      "name": "getFarmerCrops",
      "outputs": [
        {
          "name": "",
          "type": "string[]"
        }
      ],
      "payable": false,
      "stateMutability": "view",
      "type": "function",
      "signature": "0x69b42dc1"
    },
    {
      "constant": true,
      "inputs": [
        {
          "name": "crop_id",
          "type": "string"
        }
      ],
      "name": "getCropByCropId",
      "outputs": [
        {
          "name": "",
          "type": "string"
        }
      ],
      "payable": false,
      "stateMutability": "view",
      "type": "function",
      "signature": "0xedbced3d"
    },
    {
      "constant": true,
      "inputs": [],
      "name": "getAllCropId",
      "outputs": [
        {
          "name": "",
          "type": "string[]"
        }
      ],
      "payable": false,
      "stateMutability": "view",
      "type": "function",
      "signature": "0x990d0ee1"
    },
    {
      "constant": false,
      "inputs": [
        {
          "name": "pub_key",
          "type": "string"
        },
        {
          "name": "signup_hash",
          "type": "string"
        }
      ],
      "name": "set_signup",
      "outputs": [],
      "payable": false,
      "stateMutability": "nonpayable",
      "type": "function",
      "signature": "0x9a80f157"
    },
    {
      "constant": true,
      "inputs": [
        {
          "name": "pub_key",
          "type": "string"
        }
      ],
      "name": "get_signup",
      "outputs": [
        {
          "name": "",
          "type": "string"
        }
      ],
      "payable": false,
      "stateMutability": "view",
      "type": "function",
      "signature": "0x19cec54b"
    },
    {
      "constant": true,
      "inputs": [],
      "name": "get_usernames",
      "outputs": [
        {
          "name": "",
          "type": "string[]"
        }
      ],
      "payable": false,
      "stateMutability": "view",
      "type": "function",
      "signature": "0x0da1b264"
    },
    {
      "constant": true,
      "inputs": [
        {
          "name": "crop_id",
          "type": "string"
        }
      ],
      "name": "match_cropId",
      "outputs": [
        {
          "name": "",
          "type": "bool"
        }
      ],
      "payable": false,
      "stateMutability": "view",
      "type": "function",
      "signature": "0xb228fc0f"
    },
    {
      "constant": true,
      "inputs": [
        {
          "name": "pub_key",
          "type": "string"
        }
      ],
      "name": "match_usernames",
      "outputs": [
        {
          "name": "",
          "type": "bool"
        }
      ],
      "payable": false,
      "stateMutability": "view",
      "type": "function",
      "signature": "0xabf3e364"
    }
  ],
  "bytecode": "0x6080604052602060405190810160405280606060405190810160405280603081526020017f307837343361323634443139396431313333633344334561633138423931424281526020017f384535363862303945612d61646d696e00000000000000000000000000000000815250815250600390600162000082929190620001ee565b506040805190810160405280606060405190810160405280603081526020017f307837343361323634443139396431313333633344334561633138423931424281526020017f384535363862303945612d61646d696e0000000000000000000000000000000081525081526020016040805190810160405280600881526020017f506173733132334000000000000000000000000000000000000000000000000081525081525060049060026200013b92919062000255565b506020604051908101604052806040805190810160405280600181526020017f6100000000000000000000000000000000000000000000000000000000000000815250815250600790600162000193929190620001ee565b50348015620001a157600080fd5b506000339050806000806101000a81548173ffffffffffffffffffffffffffffffffffffffff021916908373ffffffffffffffffffffffffffffffffffffffff16021790555050620003e8565b82805482825590600052602060002090810192821562000242579160200282015b828111156200024157825182908051906020019062000230929190620002bc565b50916020019190600101906200020f565b5b50905062000251919062000343565b5090565b828054828255906000526020600020908101928215620002a9579160200282015b82811115620002a857825182908051906020019062000297929190620002bc565b509160200191906001019062000276565b5b509050620002b8919062000343565b5090565b828054600181600116156101000203166002900490600052602060002090601f016020900481019282601f10620002ff57805160ff191683800117855562000330565b8280016001018555821562000330579182015b828111156200032f57825182559160200191906001019062000312565b5b5090506200033f919062000374565b5090565b6200037191905b808211156200036d57600081816200036391906200039c565b506001016200034a565b5090565b90565b6200039991905b80821115620003955760008160009055506001016200037b565b5090565b90565b50805460018160011615610100020316600290046000825580601f10620003c45750620003e5565b601f016020900490600052602060002090810190620003e4919062000374565b5b50565b611cd280620003f86000396000f3fe6080604052600436106100e6576000357c0100000000000000000000000000000000000000000000000000000000900463ffffffff16806304bda348146100eb5780630da1b2641461011457806319cec54b1461013f5780634a600edc1461017c57806364a406421461018657806369b42dc1146101b15780636f9fb98a146101ee5780638b7afe2e14610219578063990d0ee1146102445780639a80f1571461026f5780639aaba1bf14610298578063abf3e364146102b4578063b228fc0f146102f1578063b44790fc1461032e578063e32c19031461036b578063edbced3d146103a8575b600080fd5b3480156100f757600080fd5b50610112600480360361010d91908101906118fc565b6103e5565b005b34801561012057600080fd5b506101296105d2565b6040516101369190611af5565b60405180910390f35b34801561014b57600080fd5b506101666004803603610161919081019061184f565b6106bb565b6040516101739190611b32565b60405180910390f35b6101846107c8565b005b34801561019257600080fd5b5061019b61086d565b6040516101a89190611b76565b60405180910390f35b3480156101bd57600080fd5b506101d860048036036101d3919081019061184f565b6108b4565b6040516101e59190611af5565b60405180910390f35b3480156101fa57600080fd5b50610203610a08565b6040516102109190611b76565b60405180910390f35b34801561022557600080fd5b5061022e610a12565b60405161023b9190611b76565b60405180910390f35b34801561025057600080fd5b50610259610a18565b6040516102669190611af5565b60405180910390f35b34801561027b57600080fd5b5061029660048036036102919190810190611890565b610b01565b005b6102b260048036036102ad9190810190611783565b610bc4565b005b3480156102c057600080fd5b506102db60048036036102d6919081019061184f565b610cc5565b6040516102e89190611b17565b60405180910390f35b3480156102fd57600080fd5b506103186004803603610313919081019061184f565b610de2565b6040516103259190611b17565b60405180910390f35b34801561033a57600080fd5b506103556004803603610350919081019061184f565b610eff565b6040516103629190611b54565b60405180910390f35b34801561037757600080fd5b50610392600480360361038d9190810190611890565b6110dd565b60405161039f9190611b17565b60405180910390f35b3480156103b457600080fd5b506103cf60048036036103ca919081019061184f565b611216565b6040516103dc9190611b32565b60405180910390f35b60006005846040518082805190602001908083835b60208310151561041f57805182526020820191506020810190506020830392506103fa565b6001836020036101000a0380198251168184511680821785525050505050509050019150509081526020016040518091039020905080839080600181540180825580915050906001820390600052602060002001600090919290919091509080519060200190610490929190611414565b5050806005856040518082805190602001908083835b6020831015156104cb57805182526020820191506020810190506020830392506104a6565b6001836020036101000a038019825116818451168082178552505050505050905001915050908152602001604051809103902090805461050c929190611494565b50826006836040518082805190602001908083835b6020831015156105465780518252602082019150602081019050602083039250610521565b6001836020036101000a0380198251168184511680821785525050505050509050019150509081526020016040518091039020908051906020019061058c929190611414565b5060078290806001815401808255809150509060018203906000526020600020016000909192909190915090805190602001906105ca929190611414565b505050505050565b60606003805480602002602001604051908101604052809291908181526020016000905b828210156106b2578382906000526020600020018054600181600116156101000203166002900480601f01602080910402602001604051908101604052809291908181526020018280546001816001161561010002031660029004801561069e5780601f106106735761010080835404028352916020019161069e565b820191906000526020600020905b81548152906001019060200180831161068157829003601f168201915b5050505050815260200190600101906105f6565b50505050905090565b60606002826040518082805190602001908083835b6020831015156106f557805182526020820191506020810190506020830392506106d0565b6001836020036101000a03801982511681845116808217855250505050505090500191505090815260200160405180910390208054600181600116156101000203166002900480601f0160208091040260200160405190810160405280929190818152602001828054600181600116156101000203166002900480156107bc5780601f10610791576101008083540402835291602001916107bc565b820191906000526020600020905b81548152906001019060200180831161079f57829003601f168201915b50505050509050919050565b34600960003373ffffffffffffffffffffffffffffffffffffffff1673ffffffffffffffffffffffffffffffffffffffff1681526020019081526020016000205401600960003373ffffffffffffffffffffffffffffffffffffffff1673ffffffffffffffffffffffffffffffffffffffff168152602001908152602001600020819055503073ffffffffffffffffffffffffffffffffffffffff1631600881905550565b6000600960003373ffffffffffffffffffffffffffffffffffffffff1673ffffffffffffffffffffffffffffffffffffffff16815260200190815260200160002054905090565b60606005826040518082805190602001908083835b6020831015156108ee57805182526020820191506020810190506020830392506108c9565b6001836020036101000a0380198251168184511680821785525050505050509050019150509081526020016040518091039020805480602002602001604051908101604052809291908181526020016000905b828210156109fd578382906000526020600020018054600181600116156101000203166002900480601f0160208091040260200160405190810160405280929190818152602001828054600181600116156101000203166002900480156109e95780601f106109be576101008083540402835291602001916109e9565b820191906000526020600020905b8154815290600101906020018083116109cc57829003601f168201915b505050505081526020019060010190610941565b505050509050919050565b6000600854905090565b60085481565b60606007805480602002602001604051908101604052809291908181526020016000905b82821015610af8578382906000526020600020018054600181600116156101000203166002900480601f016020809104026020016040519081016040528092919081815260200182805460018160011615610100020316600290048015610ae45780601f10610ab957610100808354040283529160200191610ae4565b820191906000526020600020905b815481529060010190602001808311610ac757829003601f168201915b505050505081526020019060010190610a3c565b50505050905090565b806002836040518082805190602001908083835b602083101515610b3a5780518252602082019150602081019050602083039250610b15565b6001836020036101000a03801982511681845116808217855250505050505090500191505090815260200160405180910390209080519060200190610b80929190611414565b506003829080600181540180825580915050906001820390600052602060002001600090919290919091509080519060200190610bbe929190611414565b50505050565b610c9d88888080601f016020809104026020016040519081016040528093929190818152602001838380828437600081840152601f19601f8201169050808301925050505050505087878080601f016020809104026020016040519081016040528093929190818152602001838380828437600081840152601f19601f8201169050808301925050505050505086868080601f016020809104026020016040519081016040528093929190818152602001838380828437600081840152601f19601f820116905080830192505050505050508585611323565b3073ffffffffffffffffffffffffffffffffffffffff16316008819055505050505050505050565b6000806000905060008090505b600380549050811015610dc3576060600382815481101515610cf057fe5b906000526020600020018054600181600116156101000203166002900480601f016020809104026020016040519081016040528092919081815260200182805460018160011615610100020316600290048015610d8e5780601f10610d6357610100808354040283529160200191610d8e565b820191906000526020600020905b815481529060010190602001808311610d7157829003601f168201915b50505050509050848051906020012081805190602001201415610db5576001925050610dc3565b508080600101915050610cd2565b506001811415610dd7576001915050610ddd565b60009150505b919050565b6000806000905060008090505b600780549050811015610ee0576060600782815481101515610e0d57fe5b906000526020600020018054600181600116156101000203166002900480601f016020809104026020016040519081016040528092919081815260200182805460018160011615610100020316600290048015610eab5780601f10610e8057610100808354040283529160200191610eab565b820191906000526020600020905b815481529060010190602001808311610e8e57829003601f168201915b50505050509050848051906020012081805190602001201415610ed2576001925050610ee0565b508080600101915050610def565b506001811415610ef4576001915050610efa565b60009150505b919050565b610f07611504565b6001826040518082805190602001908083835b602083101515610f3f5780518252602082019150602081019050602083039250610f1a565b6001836020036101000a038019825116818451168082178552505050505050905001915050908152602001604051809103902060806040519081016040529081600082018054600181600116156101000203166002900480601f0160208091040260200160405190810160405280929190818152602001828054600181600116156101000203166002900480156110175780601f10610fec57610100808354040283529160200191611017565b820191906000526020600020905b815481529060010190602001808311610ffa57829003601f168201915b50505050508152602001600182018054600181600116156101000203166002900480601f0160208091040260200160405190810160405280929190818152602001828054600181600116156101000203166002900480156110b95780601f1061108e576101008083540402835291602001916110b9565b820191906000526020600020905b81548152906001019060200180831161109c57829003601f168201915b50505050508152602001600282015481526020016003820154815250509050919050565b6000600460008154811015156110ef57fe5b9060005260206000200160405180828054600181600116156101000203166002900480156111545780601f10611132576101008083540402835291820191611154565b820191906000526020600020905b815481529060010190602001808311611140575b5050915050604051809103902083805190602001201480156111fd57506004600181548110151561118157fe5b9060005260206000200160405180828054600181600116156101000203166002900480156111e65780601f106111c45761010080835404028352918201916111e6565b820191906000526020600020905b8154815290600101906020018083116111d2575b505091505060405180910390208280519060200120145b1561120b5760019050611210565b600090505b92915050565b60606006826040518082805190602001908083835b602083101515611250578051825260208201915060208101905060208303925061122b565b6001836020036101000a03801982511681845116808217855250505050505090500191505090815260200160405180910390208054600181600116156101000203166002900480601f0160208091040260200160405190810160405280929190818152602001828054600181600116156101000203166002900480156113175780601f106112ec57610100808354040283529160200191611317565b820191906000526020600020905b8154815290600101906020018083116112fa57829003601f168201915b50505050509050919050565b61132b611504565b608060405190810160405280868152602001858152602001848152602001838152509050806001876040518082805190602001908083835b6020831015156113885780518252602082019150602081019050602083039250611363565b6001836020036101000a038019825116818451168082178552505050505050905001915050908152602001604051809103902060008201518160000190805190602001906113d792919061152d565b5060208201518160010190805190602001906113f492919061152d565b506040820151816002015560608201518160030155905050505050505050565b828054600181600116156101000203166002900490600052602060002090601f016020900481019282601f1061145557805160ff1916838001178555611483565b82800160010185558215611483579182015b82811115611482578251825591602001919060010190611467565b5b50905061149091906115ad565b5090565b8280548282559060005260206000209081019282156114f35760005260206000209182015b828111156114f257828290805460018160011615610100020316600290046114e29291906115d2565b50916001019190600101906114b9565b5b5090506115009190611659565b5090565b608060405190810160405280606081526020016060815260200160008152602001600081525090565b828054600181600116156101000203166002900490600052602060002090601f016020900481019282601f1061156e57805160ff191683800117855561159c565b8280016001018555821561159c579182015b8281111561159b578251825591602001919060010190611580565b5b5090506115a991906115ad565b5090565b6115cf91905b808211156115cb5760008160009055506001016115b3565b5090565b90565b828054600181600116156101000203166002900490600052602060002090601f016020900481019282601f1061160b5780548555611648565b8280016001018555821561164857600052602060002091601f016020900482015b8281111561164757825482559160010191906001019061162c565b5b50905061165591906115ad565b5090565b61168291905b8082111561167e57600081816116759190611685565b5060010161165f565b5090565b90565b50805460018160011615610100020316600290046000825580601f106116ab57506116ca565b601f0160209004906000526020600020908101906116c991906115ad565b5b50565b60008083601f84011215156116e157600080fd5b8235905067ffffffffffffffff8111156116fa57600080fd5b60208301915083600182028301111561171257600080fd5b9250929050565b600082601f830112151561172c57600080fd5b813561173f61173a82611bbe565b611b91565b9150808252602083016020830185838301111561175b57600080fd5b611766838284611c45565b50505092915050565b600061177b8235611c3b565b905092915050565b60008060008060008060008060a0898b03121561179f57600080fd5b600089013567ffffffffffffffff8111156117b957600080fd5b6117c58b828c016116cd565b9850985050602089013567ffffffffffffffff8111156117e457600080fd5b6117f08b828c016116cd565b9650965050604089013567ffffffffffffffff81111561180f57600080fd5b61181b8b828c016116cd565b9450945050606061182e8b828c0161176f565b925050608061183f8b828c0161176f565b9150509295985092959890939650565b60006020828403121561186157600080fd5b600082013567ffffffffffffffff81111561187b57600080fd5b61188784828501611719565b91505092915050565b600080604083850312156118a357600080fd5b600083013567ffffffffffffffff8111156118bd57600080fd5b6118c985828601611719565b925050602083013567ffffffffffffffff8111156118e657600080fd5b6118f285828601611719565b9150509250929050565b60008060006060848603121561191157600080fd5b600084013567ffffffffffffffff81111561192b57600080fd5b61193786828701611719565b935050602084013567ffffffffffffffff81111561195457600080fd5b61196086828701611719565b925050604084013567ffffffffffffffff81111561197d57600080fd5b61198986828701611719565b9150509250925092565b600061199e82611bf7565b808452602084019350836020820285016119b785611bea565b60005b848110156119f05783830388526119d2838351611a46565b92506119dd82611c18565b91506020880197506001810190506119ba565b508196508694505050505092915050565b611a0a81611c25565b82525050565b6000611a1b82611c0d565b808452611a2f816020860160208601611c54565b611a3881611c87565b602085010191505092915050565b6000611a5182611c02565b808452611a65816020860160208601611c54565b611a6e81611c87565b602085010191505092915050565b60006080830160008301518482036000860152611a998282611a46565b91505060208301518482036020860152611ab38282611a46565b9150506040830151611ac86040860182611ae6565b506060830151611adb6060860182611ae6565b508091505092915050565b611aef81611c31565b82525050565b60006020820190508181036000830152611b0f8184611993565b905092915050565b6000602082019050611b2c6000830184611a01565b92915050565b60006020820190508181036000830152611b4c8184611a10565b905092915050565b60006020820190508181036000830152611b6e8184611a7c565b905092915050565b6000602082019050611b8b6000830184611ae6565b92915050565b6000604051905081810181811067ffffffffffffffff82111715611bb457600080fd5b8060405250919050565b600067ffffffffffffffff821115611bd557600080fd5b601f19601f8301169050602081019050919050565b6000602082019050919050565b600081519050919050565b600081519050919050565b600081519050919050565b6000602082019050919050565b60008115159050919050565b6000819050919050565b6000819050919050565b82818337600083830152505050565b60005b83811015611c72578082015181840152602081019050611c57565b83811115611c81576000848401525b50505050565b6000601f19601f830116905091905056fea265627a7a72305820e6f064a5e3dd3d46ea46b6c05e64af1e57163e9bf7e4b83e1791e5853d9039596c6578706572696d656e74616cf50037",
  "source": "// SPDX-License-Identifier: MIT\npragma solidity >=0.5.0;\npragma experimental ABIEncoderV2;\n\ncontract Scm {\n    \n  address payable governingAuthority;\n\n  constructor() public {\n    address owner = msg.sender;\n    governingAuthority = address(uint160(owner));\n  }\n\n  struct agroFarmerContract {\n    string agroPublicKey;\n    string farmerPublicKey;\n    uint256 agroKey;\n    uint256 farmerKey;\n  }\n\n  // agro-Farmer contract mappings\n  mapping (string => agroFarmerContract) agroFarmer;\n    \n  // User data storage attributes\n  mapping(string => string) signup;\n  string[] usernames_signup = [\"0x743a264D199d1133c3D3Eac18B91BB8E568b09Ea-admin\"];\n  string[] AdminDetails = [\"0x743a264D199d1133c3D3Eac18B91BB8E568b09Ea-admin\",\"Pass123@\"];\n  \n  \n  // Crop data storage attributes\n  mapping(string => string[]) farmer_crops;\n  mapping(string => string) cropInfo;\n  string[] allCropId = [\"a\"];\n  \n  \n  // Ether stored in contract address\n  uint256 public contractBalance;\n  \n  \n  // attribute to map farmer to his security deposit\n  mapping(address => uint256) securityDeposit;\n  \n  // set and get functions for agroFarmer\n  function setAgroFarmer(string memory keyValue, string memory agroPublicKey, string memory farmerPublicKey, uint256 agroKey,uint256 farmerKey\n  ) internal {\n    agroFarmerContract memory contractObj =  agroFarmerContract(agroPublicKey, farmerPublicKey, agroKey, farmerKey);\n    agroFarmer[keyValue] = contractObj;\n  }\n\n  function getAgroFarmer(string memory keyValue) public view returns (agroFarmerContract memory) {\n    return agroFarmer[keyValue];\n  }\n\n  // agro farmer money transfer to contract\n  function bookFarmerAgroContract (string calldata keyValue, string calldata agroPublicKey, string calldata farmerPublicKey, uint256 agroKey,uint256 farmerKey) external payable {\n      setAgroFarmer(keyValue, agroPublicKey, farmerPublicKey, agroKey, farmerKey);\n      contractBalance=address(this).balance;\n  }\n\n  // get contractBalance\n  function getContractBalance() public view returns (uint256) {\n      return contractBalance;\n  }\n\n  // Getter and setters for securityDeposit\n  function setSecurityDeposit () external payable {\n      securityDeposit[msg.sender] = securityDeposit[msg.sender] + msg.value;\n      contractBalance=address(this).balance;\n  }\n  function getSecurityDeposit () public view returns (uint256){\n      return securityDeposit[msg.sender];\n  }\n  \n  // function checking for Admin login\n  function validateAdmindetails(string memory pub_key, string memory pass) public view returns (bool) {\n      if(keccak256(bytes(pub_key)) == keccak256(bytes(AdminDetails[0])) && keccak256(bytes(pass))==keccak256(bytes(AdminDetails[1]))){\n          return true; \n      }\n      return false;\n  }\n  \n  \n  // setters and getters for Farmer's crops, by different parameters\n  function setFarmerCrops(string memory pub_key, string memory crop_hash, string memory crop_id) public {\n      string[] storage cropArray = farmer_crops[pub_key];\n      cropArray.push(crop_hash);\n      farmer_crops[pub_key] = cropArray;\n      \n      cropInfo[crop_id] = crop_hash;\n      \n      allCropId.push(crop_id);\n  }\n  function getFarmerCrops(string memory pub_key) public view returns(string[] memory){\n      return farmer_crops[pub_key];\n  }\n  function getCropByCropId(string memory crop_id) public view returns(string memory){\n      return cropInfo[crop_id];\n  }\n  function getAllCropId() public view returns(string[] memory){\n      return allCropId;\n  }\n  \n  \n  // getters and setters for user registration\n  function set_signup(string memory pub_key, string memory signup_hash) public {\n    signup[pub_key] = signup_hash;\n    usernames_signup.push(pub_key);\n  }\n  function get_signup(string memory pub_key) public view returns (string memory) {\n    return signup[pub_key];\n  }\n  function get_usernames() public view returns (string[] memory) {\n    return usernames_signup;\n  }\n  \n  // functions checking for matching Id's\n  function match_cropId(string memory crop_id) public view returns (bool){\n    uint256 flag = 0;\n    for(uint i=0; i< allCropId.length; i++){\n      string memory x = allCropId[i];\n      if (keccak256(bytes(x)) == keccak256(bytes(crop_id))) {\n        flag=1;\n        break;\n      }\n    }\n    if (flag == 1) {\n        return true;\n    }\n    return false;\n  }\n  function match_usernames(string memory pub_key) public view returns (bool){\n    uint256 flag = 0;\n    for(uint i=0; i< usernames_signup.length; i++){\n      string memory x = usernames_signup[i];\n      if (keccak256(bytes(x)) == keccak256(bytes(pub_key))) {\n        flag=1;\n        break;\n      }\n    }\n    if (flag == 1) {\n        return true;\n    }\n    return false;\n  }\n}",
  "sourcePath": "/home/nikhil/Desktop/scm_project/src/contracts/scm.sol",
  "compiler": {
    "name": "solc",
    "version": "0.5.0+commit.1d4f565a.Emscripten.clang"
  },
  "schemaVersion": "3.0.2",
  "updatedAt": "2021-03-30T06:05:44.085Z",
  "devdoc": {
    "methods": {}
  },
  "userdoc": {
    "methods": {}
  }
}