{
  "contractName": "Scm",
  "abi": [
    {
      "constant": true,
      "inputs": [],
      "name": "contractBalance",
      "outputs": [
        {
          "name": "",
          "type": "uint256"
        }
      ],
      "payable": false,
      "stateMutability": "view",
      "type": "function",
      "signature": "0x8b7afe2e"
    },
    {
      "inputs": [],
      "payable": false,
      "stateMutability": "nonpayable",
      "type": "constructor",
      "signature": "constructor"
    },
    {
      "constant": true,
      "inputs": [
        {
          "name": "keyValue",
          "type": "string"
        }
      ],
      "name": "getAgroFarmer",
      "outputs": [
        {
          "components": [
            {
              "name": "agroPublicKey",
              "type": "string"
            },
            {
              "name": "farmerPublicKey",
              "type": "string"
            },
            {
              "name": "agroKey",
              "type": "uint256"
            },
            {
              "name": "farmerKey",
              "type": "uint256"
            }
          ],
          "name": "",
          "type": "tuple"
        }
      ],
      "payable": false,
      "stateMutability": "view",
      "type": "function",
      "signature": "0xb44790fc"
    },
    {
      "constant": false,
      "inputs": [
        {
          "name": "keyValue",
          "type": "string"
        },
        {
          "name": "agroPublicKey",
          "type": "string"
        },
        {
          "name": "farmerPublicKey",
          "type": "string"
        },
        {
          "name": "agroKey",
          "type": "uint256"
        },
        {
          "name": "farmerKey",
          "type": "uint256"
        }
      ],
      "name": "bookFarmerAgroContract",
      "outputs": [],
      "payable": true,
      "stateMutability": "payable",
      "type": "function",
      "signature": "0x9aaba1bf"
    },
    {
      "constant": true,
      "inputs": [],
      "name": "getAllKeyValue",
      "outputs": [
        {
          "name": "",
          "type": "string[]"
        }
      ],
      "payable": false,
      "stateMutability": "view",
      "type": "function",
      "signature": "0xeb279439"
    },
    {
      "constant": true,
      "inputs": [],
      "name": "getContractBalance",
      "outputs": [
        {
          "name": "",
          "type": "uint256"
        }
      ],
      "payable": false,
      "stateMutability": "view",
      "type": "function",
      "signature": "0x6f9fb98a"
    },
    {
      "constant": false,
      "inputs": [],
      "name": "setSecurityDeposit",
      "outputs": [],
      "payable": true,
      "stateMutability": "payable",
      "type": "function",
      "signature": "0x4a600edc"
    },
    {
      "constant": true,
      "inputs": [],
      "name": "getSecurityDeposit",
      "outputs": [
        {
          "name": "",
          "type": "uint256"
        }
      ],
      "payable": false,
      "stateMutability": "view",
      "type": "function",
      "signature": "0x64a40642"
    },
    {
      "constant": true,
      "inputs": [
        {
          "name": "pub_key",
          "type": "string"
        },
        {
          "name": "pass",
          "type": "string"
        }
      ],
      "name": "validateAdmindetails",
      "outputs": [
        {
          "name": "",
          "type": "bool"
        }
      ],
      "payable": false,
      "stateMutability": "view",
      "type": "function",
      "signature": "0xe32c1903"
    },
    {
      "constant": false,
      "inputs": [
        {
          "name": "pub_key",
          "type": "string"
        },
        {
          "name": "crop_hash",
          "type": "string"
        },
        {
          "name": "crop_id",
          "type": "string"
        }
      ],
      "name": "setFarmerCrops",
      "outputs": [],
      "payable": false,
      "stateMutability": "nonpayable",
      "type": "function",
      "signature": "0x04bda348"
    },
    {
      "constant": true,
      "inputs": [
        {
          "name": "pub_key",
          "type": "string"
        }
      ],
      "name": "getFarmerCrops",
      "outputs": [
        {
          "name": "",
          "type": "string[]"
        }
      ],
      "payable": false,
      "stateMutability": "view",
      "type": "function",
      "signature": "0x69b42dc1"
    },
    {
      "constant": true,
      "inputs": [
        {
          "name": "crop_id",
          "type": "string"
        }
      ],
      "name": "getCropByCropId",
      "outputs": [
        {
          "name": "",
          "type": "string"
        }
      ],
      "payable": false,
      "stateMutability": "view",
      "type": "function",
      "signature": "0xedbced3d"
    },
    {
      "constant": true,
      "inputs": [],
      "name": "getAllCropId",
      "outputs": [
        {
          "name": "",
          "type": "string[]"
        }
      ],
      "payable": false,
      "stateMutability": "view",
      "type": "function",
      "signature": "0x990d0ee1"
    },
    {
      "constant": false,
      "inputs": [
        {
          "name": "pub_key",
          "type": "string"
        },
        {
          "name": "signup_hash",
          "type": "string"
        }
      ],
      "name": "set_signup",
      "outputs": [],
      "payable": false,
      "stateMutability": "nonpayable",
      "type": "function",
      "signature": "0x9a80f157"
    },
    {
      "constant": true,
      "inputs": [
        {
          "name": "pub_key",
          "type": "string"
        }
      ],
      "name": "get_signup",
      "outputs": [
        {
          "name": "",
          "type": "string"
        }
      ],
      "payable": false,
      "stateMutability": "view",
      "type": "function",
      "signature": "0x19cec54b"
    },
    {
      "constant": true,
      "inputs": [],
      "name": "get_usernames",
      "outputs": [
        {
          "name": "",
          "type": "string[]"
        }
      ],
      "payable": false,
      "stateMutability": "view",
      "type": "function",
      "signature": "0x0da1b264"
    },
    {
      "constant": true,
      "inputs": [
        {
          "name": "crop_id",
          "type": "string"
        }
      ],
      "name": "match_cropId",
      "outputs": [
        {
          "name": "",
          "type": "bool"
        }
      ],
      "payable": false,
      "stateMutability": "view",
      "type": "function",
      "signature": "0xb228fc0f"
    },
    {
      "constant": true,
      "inputs": [
        {
          "name": "pub_key",
          "type": "string"
        }
      ],
      "name": "match_usernames",
      "outputs": [
        {
          "name": "",
          "type": "bool"
        }
      ],
      "payable": false,
      "stateMutability": "view",
      "type": "function",
      "signature": "0xabf3e364"
    }
  ],
  "bytecode": "0x60806040526020604051908101604052806040805190810160405280600581526020017f64756d6d7900000000000000000000000000000000000000000000000000000081525081525060029060016200005b92919062000246565b50602060405190810160405280606060405190810160405280603081526020017f307837343361323634443139396431313333633344334561633138423931424281526020017f384535363862303945612d61646d696e000000000000000000000000000000008152508152506004906001620000da92919062000246565b506040805190810160405280606060405190810160405280603081526020017f307837343361323634443139396431313333633344334561633138423931424281526020017f384535363862303945612d61646d696e0000000000000000000000000000000081525081526020016040805190810160405280600881526020017f5061737331323340000000000000000000000000000000000000000000000000815250815250600590600262000193929190620002ad565b506020604051908101604052806040805190810160405280600181526020017f61000000000000000000000000000000000000000000000000000000000000008152508152506008906001620001eb92919062000246565b50348015620001f957600080fd5b506000339050806000806101000a81548173ffffffffffffffffffffffffffffffffffffffff021916908373ffffffffffffffffffffffffffffffffffffffff1602179055505062000440565b8280548282559060005260206000209081019282156200029a579160200282015b82811115620002995782518290805190602001906200028892919062000314565b509160200191906001019062000267565b5b509050620002a991906200039b565b5090565b82805482825590600052602060002090810192821562000301579160200282015b8281111562000300578251829080519060200190620002ef92919062000314565b5091602001919060010190620002ce565b5b5090506200031091906200039b565b5090565b828054600181600116156101000203166002900490600052602060002090601f016020900481019282601f106200035757805160ff191683800117855562000388565b8280016001018555821562000388579182015b82811115620003875782518255916020019190600101906200036a565b5b509050620003979190620003cc565b5090565b620003c991905b80821115620003c55760008181620003bb9190620003f4565b50600101620003a2565b5090565b90565b620003f191905b80821115620003ed576000816000905550600101620003d3565b5090565b90565b50805460018160011615610100020316600290046000825580601f106200041c57506200043d565b601f0160209004906000526020600020908101906200043c9190620003cc565b5b50565b611eb380620004506000396000f3fe6080604052600436106100f1576000357c0100000000000000000000000000000000000000000000000000000000900463ffffffff16806304bda348146100f65780630da1b2641461011f57806319cec54b1461014a5780634a600edc1461018757806364a406421461019157806369b42dc1146101bc5780636f9fb98a146101f95780638b7afe2e14610224578063990d0ee11461024f5780639a80f1571461027a5780639aaba1bf146102a3578063abf3e364146102bf578063b228fc0f146102fc578063b44790fc14610339578063e32c190314610376578063eb279439146103b3578063edbced3d146103de575b600080fd5b34801561010257600080fd5b5061011d60048036036101189190810190611add565b61041b565b005b34801561012b57600080fd5b50610134610608565b6040516101419190611cd6565b60405180910390f35b34801561015657600080fd5b50610171600480360361016c9190810190611a30565b6106f1565b60405161017e9190611d13565b60405180910390f35b61018f6107fe565b005b34801561019d57600080fd5b506101a66108a3565b6040516101b39190611d57565b60405180910390f35b3480156101c857600080fd5b506101e360048036036101de9190810190611a30565b6108ea565b6040516101f09190611cd6565b60405180910390f35b34801561020557600080fd5b5061020e610a3e565b60405161021b9190611d57565b60405180910390f35b34801561023057600080fd5b50610239610a48565b6040516102469190611d57565b60405180910390f35b34801561025b57600080fd5b50610264610a4e565b6040516102719190611cd6565b60405180910390f35b34801561028657600080fd5b506102a1600480360361029c9190810190611a71565b610b37565b005b6102bd60048036036102b89190810190611964565b610bfa565b005b3480156102cb57600080fd5b506102e660048036036102e19190810190611a30565b610d3d565b6040516102f39190611cf8565b60405180910390f35b34801561030857600080fd5b50610323600480360361031e9190810190611a30565b610e5a565b6040516103309190611cf8565b60405180910390f35b34801561034557600080fd5b50610360600480360361035b9190810190611a30565b610f77565b60405161036d9190611d35565b60405180910390f35b34801561038257600080fd5b5061039d60048036036103989190810190611a71565b611155565b6040516103aa9190611cf8565b60405180910390f35b3480156103bf57600080fd5b506103c861128e565b6040516103d59190611cd6565b60405180910390f35b3480156103ea57600080fd5b5061040560048036036104009190810190611a30565b611377565b6040516104129190611d13565b60405180910390f35b60006006846040518082805190602001908083835b6020831015156104555780518252602082019150602081019050602083039250610430565b6001836020036101000a03801982511681845116808217855250505050505090500191505090815260200160405180910390209050808390806001815401808255809150509060018203906000526020600020016000909192909190915090805190602001906104c6929190611575565b5050806006856040518082805190602001908083835b60208310151561050157805182526020820191506020810190506020830392506104dc565b6001836020036101000a03801982511681845116808217855250505050505090500191505090815260200160405180910390209080546105429291906115f5565b50826007836040518082805190602001908083835b60208310151561057c5780518252602082019150602081019050602083039250610557565b6001836020036101000a038019825116818451168082178552505050505050905001915050908152602001604051809103902090805190602001906105c2929190611575565b506008829080600181540180825580915050906001820390600052602060002001600090919290919091509080519060200190610600929190611575565b505050505050565b60606004805480602002602001604051908101604052809291908181526020016000905b828210156106e8578382906000526020600020018054600181600116156101000203166002900480601f0160208091040260200160405190810160405280929190818152602001828054600181600116156101000203166002900480156106d45780601f106106a9576101008083540402835291602001916106d4565b820191906000526020600020905b8154815290600101906020018083116106b757829003601f168201915b50505050508152602001906001019061062c565b50505050905090565b60606003826040518082805190602001908083835b60208310151561072b5780518252602082019150602081019050602083039250610706565b6001836020036101000a03801982511681845116808217855250505050505090500191505090815260200160405180910390208054600181600116156101000203166002900480601f0160208091040260200160405190810160405280929190818152602001828054600181600116156101000203166002900480156107f25780601f106107c7576101008083540402835291602001916107f2565b820191906000526020600020905b8154815290600101906020018083116107d557829003601f168201915b50505050509050919050565b34600a60003373ffffffffffffffffffffffffffffffffffffffff1673ffffffffffffffffffffffffffffffffffffffff1681526020019081526020016000205401600a60003373ffffffffffffffffffffffffffffffffffffffff1673ffffffffffffffffffffffffffffffffffffffff168152602001908152602001600020819055503073ffffffffffffffffffffffffffffffffffffffff1631600981905550565b6000600a60003373ffffffffffffffffffffffffffffffffffffffff1673ffffffffffffffffffffffffffffffffffffffff16815260200190815260200160002054905090565b60606006826040518082805190602001908083835b60208310151561092457805182526020820191506020810190506020830392506108ff565b6001836020036101000a0380198251168184511680821785525050505050509050019150509081526020016040518091039020805480602002602001604051908101604052809291908181526020016000905b82821015610a33578382906000526020600020018054600181600116156101000203166002900480601f016020809104026020016040519081016040528092919081815260200182805460018160011615610100020316600290048015610a1f5780601f106109f457610100808354040283529160200191610a1f565b820191906000526020600020905b815481529060010190602001808311610a0257829003601f168201915b505050505081526020019060010190610977565b505050509050919050565b6000600954905090565b60095481565b60606008805480602002602001604051908101604052809291908181526020016000905b82821015610b2e578382906000526020600020018054600181600116156101000203166002900480601f016020809104026020016040519081016040528092919081815260200182805460018160011615610100020316600290048015610b1a5780601f10610aef57610100808354040283529160200191610b1a565b820191906000526020600020905b815481529060010190602001808311610afd57829003601f168201915b505050505081526020019060010190610a72565b50505050905090565b806003836040518082805190602001908083835b602083101515610b705780518252602082019150602081019050602083039250610b4b565b6001836020036101000a03801982511681845116808217855250505050505090500191505090815260200160405180910390209080519060200190610bb6929190611575565b506004829080600181540180825580915050906001820390600052602060002001600090919290919091509080519060200190610bf4929190611575565b50505050565b610cd388888080601f016020809104026020016040519081016040528093929190818152602001838380828437600081840152601f19601f8201169050808301925050505050505087878080601f016020809104026020016040519081016040528093929190818152602001838380828437600081840152601f19601f8201169050808301925050505050505086868080601f016020809104026020016040519081016040528093929190818152602001838380828437600081840152601f19601f820116905080830192505050505050508585611484565b6002888890918060018154018082558091505090600182039060005260206000200160009091929390919293909192909192509190610d13929190611665565b50503073ffffffffffffffffffffffffffffffffffffffff16316009819055505050505050505050565b6000806000905060008090505b600480549050811015610e3b576060600482815481101515610d6857fe5b906000526020600020018054600181600116156101000203166002900480601f016020809104026020016040519081016040528092919081815260200182805460018160011615610100020316600290048015610e065780601f10610ddb57610100808354040283529160200191610e06565b820191906000526020600020905b815481529060010190602001808311610de957829003601f168201915b50505050509050848051906020012081805190602001201415610e2d576001925050610e3b565b508080600101915050610d4a565b506001811415610e4f576001915050610e55565b60009150505b919050565b6000806000905060008090505b600880549050811015610f58576060600882815481101515610e8557fe5b906000526020600020018054600181600116156101000203166002900480601f016020809104026020016040519081016040528092919081815260200182805460018160011615610100020316600290048015610f235780601f10610ef857610100808354040283529160200191610f23565b820191906000526020600020905b815481529060010190602001808311610f0657829003601f168201915b50505050509050848051906020012081805190602001201415610f4a576001925050610f58565b508080600101915050610e67565b506001811415610f6c576001915050610f72565b60009150505b919050565b610f7f6116e5565b6001826040518082805190602001908083835b602083101515610fb75780518252602082019150602081019050602083039250610f92565b6001836020036101000a038019825116818451168082178552505050505050905001915050908152602001604051809103902060806040519081016040529081600082018054600181600116156101000203166002900480601f01602080910402602001604051908101604052809291908181526020018280546001816001161561010002031660029004801561108f5780601f106110645761010080835404028352916020019161108f565b820191906000526020600020905b81548152906001019060200180831161107257829003601f168201915b50505050508152602001600182018054600181600116156101000203166002900480601f0160208091040260200160405190810160405280929190818152602001828054600181600116156101000203166002900480156111315780601f1061110657610100808354040283529160200191611131565b820191906000526020600020905b81548152906001019060200180831161111457829003601f168201915b50505050508152602001600282015481526020016003820154815250509050919050565b60006005600081548110151561116757fe5b9060005260206000200160405180828054600181600116156101000203166002900480156111cc5780601f106111aa5761010080835404028352918201916111cc565b820191906000526020600020905b8154815290600101906020018083116111b8575b5050915050604051809103902083805190602001201480156112755750600560018154811015156111f957fe5b90600052602060002001604051808280546001816001161561010002031660029004801561125e5780601f1061123c57610100808354040283529182019161125e565b820191906000526020600020905b81548152906001019060200180831161124a575b505091505060405180910390208280519060200120145b156112835760019050611288565b600090505b92915050565b60606002805480602002602001604051908101604052809291908181526020016000905b8282101561136e578382906000526020600020018054600181600116156101000203166002900480601f01602080910402602001604051908101604052809291908181526020018280546001816001161561010002031660029004801561135a5780601f1061132f5761010080835404028352916020019161135a565b820191906000526020600020905b81548152906001019060200180831161133d57829003601f168201915b5050505050815260200190600101906112b2565b50505050905090565b60606007826040518082805190602001908083835b6020831015156113b1578051825260208201915060208101905060208303925061138c565b6001836020036101000a03801982511681845116808217855250505050505090500191505090815260200160405180910390208054600181600116156101000203166002900480601f0160208091040260200160405190810160405280929190818152602001828054600181600116156101000203166002900480156114785780601f1061144d57610100808354040283529160200191611478565b820191906000526020600020905b81548152906001019060200180831161145b57829003601f168201915b50505050509050919050565b61148c6116e5565b608060405190810160405280868152602001858152602001848152602001838152509050806001876040518082805190602001908083835b6020831015156114e957805182526020820191506020810190506020830392506114c4565b6001836020036101000a0380198251168184511680821785525050505050509050019150509081526020016040518091039020600082015181600001908051906020019061153892919061170e565b50602082015181600101908051906020019061155592919061170e565b506040820151816002015560608201518160030155905050505050505050565b828054600181600116156101000203166002900490600052602060002090601f016020900481019282601f106115b657805160ff19168380011785556115e4565b828001600101855582156115e4579182015b828111156115e35782518255916020019190600101906115c8565b5b5090506115f1919061178e565b5090565b8280548282559060005260206000209081019282156116545760005260206000209182015b8281111561165357828290805460018160011615610100020316600290046116439291906117b3565b509160010191906001019061161a565b5b509050611661919061183a565b5090565b828054600181600116156101000203166002900490600052602060002090601f016020900481019282601f106116a657803560ff19168380011785556116d4565b828001600101855582156116d4579182015b828111156116d35782358255916020019190600101906116b8565b5b5090506116e1919061178e565b5090565b608060405190810160405280606081526020016060815260200160008152602001600081525090565b828054600181600116156101000203166002900490600052602060002090601f016020900481019282601f1061174f57805160ff191683800117855561177d565b8280016001018555821561177d579182015b8281111561177c578251825591602001919060010190611761565b5b50905061178a919061178e565b5090565b6117b091905b808211156117ac576000816000905550600101611794565b5090565b90565b828054600181600116156101000203166002900490600052602060002090601f016020900481019282601f106117ec5780548555611829565b8280016001018555821561182957600052602060002091601f016020900482015b8281111561182857825482559160010191906001019061180d565b5b509050611836919061178e565b5090565b61186391905b8082111561185f57600081816118569190611866565b50600101611840565b5090565b90565b50805460018160011615610100020316600290046000825580601f1061188c57506118ab565b601f0160209004906000526020600020908101906118aa919061178e565b5b50565b60008083601f84011215156118c257600080fd5b8235905067ffffffffffffffff8111156118db57600080fd5b6020830191508360018202830111156118f357600080fd5b9250929050565b600082601f830112151561190d57600080fd5b813561192061191b82611d9f565b611d72565b9150808252602083016020830185838301111561193c57600080fd5b611947838284611e26565b50505092915050565b600061195c8235611e1c565b905092915050565b60008060008060008060008060a0898b03121561198057600080fd5b600089013567ffffffffffffffff81111561199a57600080fd5b6119a68b828c016118ae565b9850985050602089013567ffffffffffffffff8111156119c557600080fd5b6119d18b828c016118ae565b9650965050604089013567ffffffffffffffff8111156119f057600080fd5b6119fc8b828c016118ae565b94509450506060611a0f8b828c01611950565b9250506080611a208b828c01611950565b9150509295985092959890939650565b600060208284031215611a4257600080fd5b600082013567ffffffffffffffff811115611a5c57600080fd5b611a68848285016118fa565b91505092915050565b60008060408385031215611a8457600080fd5b600083013567ffffffffffffffff811115611a9e57600080fd5b611aaa858286016118fa565b925050602083013567ffffffffffffffff811115611ac757600080fd5b611ad3858286016118fa565b9150509250929050565b600080600060608486031215611af257600080fd5b600084013567ffffffffffffffff811115611b0c57600080fd5b611b18868287016118fa565b935050602084013567ffffffffffffffff811115611b3557600080fd5b611b41868287016118fa565b925050604084013567ffffffffffffffff811115611b5e57600080fd5b611b6a868287016118fa565b9150509250925092565b6000611b7f82611dd8565b80845260208401935083602082028501611b9885611dcb565b60005b84811015611bd1578383038852611bb3838351611c27565b9250611bbe82611df9565b9150602088019750600181019050611b9b565b508196508694505050505092915050565b611beb81611e06565b82525050565b6000611bfc82611dee565b808452611c10816020860160208601611e35565b611c1981611e68565b602085010191505092915050565b6000611c3282611de3565b808452611c46816020860160208601611e35565b611c4f81611e68565b602085010191505092915050565b60006080830160008301518482036000860152611c7a8282611c27565b91505060208301518482036020860152611c948282611c27565b9150506040830151611ca96040860182611cc7565b506060830151611cbc6060860182611cc7565b508091505092915050565b611cd081611e12565b82525050565b60006020820190508181036000830152611cf08184611b74565b905092915050565b6000602082019050611d0d6000830184611be2565b92915050565b60006020820190508181036000830152611d2d8184611bf1565b905092915050565b60006020820190508181036000830152611d4f8184611c5d565b905092915050565b6000602082019050611d6c6000830184611cc7565b92915050565b6000604051905081810181811067ffffffffffffffff82111715611d9557600080fd5b8060405250919050565b600067ffffffffffffffff821115611db657600080fd5b601f19601f8301169050602081019050919050565b6000602082019050919050565b600081519050919050565b600081519050919050565b600081519050919050565b6000602082019050919050565b60008115159050919050565b6000819050919050565b6000819050919050565b82818337600083830152505050565b60005b83811015611e53578082015181840152602081019050611e38565b83811115611e62576000848401525b50505050565b6000601f19601f830116905091905056fea265627a7a723058209daad3675ce4172a6de7bc24bc39be948b14180f01302e7457a203592756a45c6c6578706572696d656e74616cf50037",
  "source": "// SPDX-License-Identifier: MIT\npragma solidity >=0.5.0;\npragma experimental ABIEncoderV2;\n\ncontract Scm {\n    \n  address payable governingAuthority;\n\n  constructor() public {\n    address owner = msg.sender;\n    governingAuthority = address(uint160(owner));\n  }\n\n  struct agroFarmerContract {\n    string agroPublicKey;\n    string farmerPublicKey;\n    uint256 agroKey;\n    uint256 farmerKey;\n  }\n\n  // agro-Farmer contract mappings\n  mapping (string => agroFarmerContract) agroFarmer;\n  string[] keyValueArray = [\"dummy\"];\n    \n  // User data storage attributes\n  mapping(string => string) signup;\n  string[] usernames_signup = [\"0x743a264D199d1133c3D3Eac18B91BB8E568b09Ea-admin\"];\n  string[] AdminDetails = [\"0x743a264D199d1133c3D3Eac18B91BB8E568b09Ea-admin\",\"Pass123@\"];\n  \n  \n  // Crop data storage attributes\n  mapping(string => string[]) farmer_crops;\n  mapping(string => string) cropInfo;\n  string[] allCropId = [\"a\"];\n  \n  \n  // Ether stored in contract address\n  uint256 public contractBalance;\n  \n  \n  // attribute to map farmer to his security deposit\n  mapping(address => uint256) securityDeposit;\n  \n  // set and get functions for agroFarmer\n  function setAgroFarmer(string memory keyValue, string memory agroPublicKey, string memory farmerPublicKey, uint256 agroKey,uint256 farmerKey\n  ) internal {\n    agroFarmerContract memory contractObj =  agroFarmerContract(agroPublicKey, farmerPublicKey, agroKey, farmerKey);\n    agroFarmer[keyValue] = contractObj;\n  }\n\n  function getAgroFarmer(string memory keyValue) public view returns (agroFarmerContract memory) {\n    return agroFarmer[keyValue];\n  }\n\n  // agro farmer money transfer to contract\n  function bookFarmerAgroContract (string calldata keyValue, string calldata agroPublicKey, string calldata farmerPublicKey, uint256 agroKey,uint256 farmerKey) external payable {\n      setAgroFarmer(keyValue, agroPublicKey, farmerPublicKey, agroKey, farmerKey);\n      keyValueArray.push(keyValue);\n      contractBalance=address(this).balance;\n  }\n  function getAllKeyValue() public view returns(string[] memory){\n      return keyValueArray;\n  }\n\n  // get contractBalance\n  function getContractBalance() public view returns (uint256) {\n      return contractBalance;\n  }\n\n  // Getter and setters for securityDeposit\n  function setSecurityDeposit () external payable {\n      securityDeposit[msg.sender] = securityDeposit[msg.sender] + msg.value;\n      contractBalance=address(this).balance;\n  }\n  function getSecurityDeposit () public view returns (uint256){\n      return securityDeposit[msg.sender];\n  }\n  \n  // function checking for Admin login\n  function validateAdmindetails(string memory pub_key, string memory pass) public view returns (bool) {\n      if(keccak256(bytes(pub_key)) == keccak256(bytes(AdminDetails[0])) && keccak256(bytes(pass))==keccak256(bytes(AdminDetails[1]))){\n          return true; \n      }\n      return false;\n  }\n  \n  \n  // setters and getters for Farmer's crops, by different parameters\n  function setFarmerCrops(string memory pub_key, string memory crop_hash, string memory crop_id) public {\n      string[] storage cropArray = farmer_crops[pub_key];\n      cropArray.push(crop_hash);\n      farmer_crops[pub_key] = cropArray;\n      \n      cropInfo[crop_id] = crop_hash;\n      \n      allCropId.push(crop_id);\n  }\n  function getFarmerCrops(string memory pub_key) public view returns(string[] memory){\n      return farmer_crops[pub_key];\n  }\n  function getCropByCropId(string memory crop_id) public view returns(string memory){\n      return cropInfo[crop_id];\n  }\n  function getAllCropId() public view returns(string[] memory){\n      return allCropId;\n  }\n  \n  \n  // getters and setters for user registration\n  function set_signup(string memory pub_key, string memory signup_hash) public {\n    signup[pub_key] = signup_hash;\n    usernames_signup.push(pub_key);\n  }\n  function get_signup(string memory pub_key) public view returns (string memory) {\n    return signup[pub_key];\n  }\n  function get_usernames() public view returns (string[] memory) {\n    return usernames_signup;\n  }\n  \n  // functions checking for matching Id's\n  function match_cropId(string memory crop_id) public view returns (bool){\n    uint256 flag = 0;\n    for(uint i=0; i< allCropId.length; i++){\n      string memory x = allCropId[i];\n      if (keccak256(bytes(x)) == keccak256(bytes(crop_id))) {\n        flag=1;\n        break;\n      }\n    }\n    if (flag == 1) {\n        return true;\n    }\n    return false;\n  }\n  function match_usernames(string memory pub_key) public view returns (bool){\n    uint256 flag = 0;\n    for(uint i=0; i< usernames_signup.length; i++){\n      string memory x = usernames_signup[i];\n      if (keccak256(bytes(x)) == keccak256(bytes(pub_key))) {\n        flag=1;\n        break;\n      }\n    }\n    if (flag == 1) {\n        return true;\n    }\n    return false;\n  }\n}",
  "sourcePath": "/home/nikhil/Desktop/scm_project/src/contracts/scm.sol",
  "compiler": {
    "name": "solc",
    "version": "0.5.0+commit.1d4f565a.Emscripten.clang"
  },
  "schemaVersion": "3.0.2",
  "updatedAt": "2021-04-01T05:00:30.219Z",
  "devdoc": {
    "methods": {}
  },
  "userdoc": {
    "methods": {}
  }
}