{
  "contractName": "Scm",
  "abi": [
    {
      "constant": true,
      "inputs": [],
      "name": "contractBalance",
      "outputs": [
        {
          "name": "",
          "type": "uint256"
        }
      ],
      "payable": false,
      "stateMutability": "view",
      "type": "function",
      "signature": "0x8b7afe2e"
    },
    {
      "inputs": [],
      "payable": false,
      "stateMutability": "nonpayable",
      "type": "constructor",
      "signature": "constructor"
    },
    {
      "constant": true,
      "inputs": [],
      "name": "getContractBalance",
      "outputs": [
        {
          "name": "",
          "type": "uint256"
        }
      ],
      "payable": false,
      "stateMutability": "view",
      "type": "function",
      "signature": "0x6f9fb98a"
    }
  ],
  "bytecode": "0x608060405234801561001057600080fd5b506000339050806000806101000a81548173ffffffffffffffffffffffffffffffffffffffff021916908373ffffffffffffffffffffffffffffffffffffffff16021790555050610114806100666000396000f3fe6080604052600436106049576000357c0100000000000000000000000000000000000000000000000000000000900463ffffffff1680636f9fb98a14604e5780638b7afe2e146074575b600080fd5b348015605957600080fd5b506060609a565b604051606b919060b7565b60405180910390f35b348015607f57600080fd5b50608660a4565b6040516091919060b7565b60405180910390f35b6000600154905090565b60015481565b60b18160d0565b82525050565b600060208201905060ca600083018460aa565b92915050565b600081905091905056fea265627a7a72305820b28009a96230f589fac393b8d18295d7b187307c29ed66bb9b942285c56315736c6578706572696d656e74616cf50037",
  "source": "// SPDX-License-Identifier: MIT\npragma solidity >=0.5.0;\npragma experimental ABIEncoderV2;\n\ncontract Scm {\n    \n  address payable governingAuthority;\n\n  constructor() public {\n    address owner = msg.sender;\n    governingAuthority = address(uint160(owner));\n  }    \n  \n  // Ether stored in contract address\n  uint256 public contractBalance;\n  \n  // get contractBalance\n  function getContractBalance() public view returns (uint256) {\n      return contractBalance;\n  }\n}",
  "sourcePath": "/home/nikhil/Desktop/scm_project/src/contracts/scm.sol",
  "compiler": {
    "name": "solc",
    "version": "0.5.0+commit.1d4f565a.Emscripten.clang"
  },
  "schemaVersion": "3.0.2",
  "updatedAt": "2021-04-16T15:03:34.360Z",
  "devdoc": {
    "methods": {}
  },
  "userdoc": {
    "methods": {}
  }
}