{
  "contractName": "Scm",
  "abi": [
    {
      "constant": true,
      "inputs": [],
      "name": "contractBalance",
      "outputs": [
        {
          "name": "",
          "type": "uint256"
        }
      ],
      "payable": false,
      "stateMutability": "view",
      "type": "function",
      "signature": "0x8b7afe2e"
    },
    {
      "inputs": [],
      "payable": false,
      "stateMutability": "nonpayable",
      "type": "constructor",
      "signature": "constructor"
    },
    {
      "constant": true,
      "inputs": [
        {
          "name": "keyValue",
          "type": "string"
        }
      ],
      "name": "getAgroFarmer",
      "outputs": [
        {
          "components": [
            {
              "name": "agroPublicKey",
              "type": "string"
            },
            {
              "name": "farmerPublicKey",
              "type": "string"
            },
            {
              "name": "agroKey",
              "type": "uint256"
            },
            {
              "name": "farmerKey",
              "type": "uint256"
            }
          ],
          "name": "",
          "type": "tuple"
        }
      ],
      "payable": false,
      "stateMutability": "view",
      "type": "function",
      "signature": "0xb44790fc"
    },
    {
      "constant": false,
      "inputs": [
        {
          "name": "keyValue",
          "type": "string"
        },
        {
          "name": "agroPublicKey",
          "type": "string"
        },
        {
          "name": "farmerPublicKey",
          "type": "string"
        },
        {
          "name": "agroKey",
          "type": "uint256"
        },
        {
          "name": "farmerKey",
          "type": "uint256"
        }
      ],
      "name": "bookFarmerAgroContract",
      "outputs": [],
      "payable": true,
      "stateMutability": "payable",
      "type": "function",
      "signature": "0x9aaba1bf"
    },
    {
      "constant": true,
      "inputs": [],
      "name": "getAllKeyValue",
      "outputs": [
        {
          "name": "",
          "type": "string[]"
        }
      ],
      "payable": false,
      "stateMutability": "view",
      "type": "function",
      "signature": "0xeb279439"
    },
    {
      "constant": true,
      "inputs": [],
      "name": "getContractBalance",
      "outputs": [
        {
          "name": "",
          "type": "uint256"
        }
      ],
      "payable": false,
      "stateMutability": "view",
      "type": "function",
      "signature": "0x6f9fb98a"
    },
    {
      "constant": false,
      "inputs": [],
      "name": "setSecurityDeposit",
      "outputs": [],
      "payable": true,
      "stateMutability": "payable",
      "type": "function",
      "signature": "0x4a600edc"
    },
    {
      "constant": true,
      "inputs": [],
      "name": "getSecurityDeposit",
      "outputs": [
        {
          "name": "",
          "type": "uint256"
        }
      ],
      "payable": false,
      "stateMutability": "view",
      "type": "function",
      "signature": "0x64a40642"
    },
    {
      "constant": true,
      "inputs": [
        {
          "name": "pub_key",
          "type": "string"
        },
        {
          "name": "pass",
          "type": "string"
        }
      ],
      "name": "validateAdmindetails",
      "outputs": [
        {
          "name": "",
          "type": "bool"
        }
      ],
      "payable": false,
      "stateMutability": "view",
      "type": "function",
      "signature": "0xe32c1903"
    },
    {
      "constant": false,
      "inputs": [
        {
          "name": "pub_key",
          "type": "string"
        },
        {
          "name": "crop_hash",
          "type": "string"
        },
        {
          "name": "crop_id",
          "type": "string"
        },
        {
          "name": "agro_key",
          "type": "string"
        },
        {
          "name": "keyPhrase",
          "type": "uint256"
        }
      ],
      "name": "setFarmerCrops",
      "outputs": [],
      "payable": false,
      "stateMutability": "nonpayable",
      "type": "function",
      "signature": "0xd3d40f09"
    },
    {
      "constant": true,
      "inputs": [
        {
          "name": "pub_key",
          "type": "string"
        }
      ],
      "name": "getFarmerCrops",
      "outputs": [
        {
          "name": "",
          "type": "string[]"
        }
      ],
      "payable": false,
      "stateMutability": "view",
      "type": "function",
      "signature": "0x69b42dc1"
    },
    {
      "constant": true,
      "inputs": [
        {
          "name": "crop_id",
          "type": "string"
        }
      ],
      "name": "getCropByCropId",
      "outputs": [
        {
          "name": "",
          "type": "string"
        }
      ],
      "payable": false,
      "stateMutability": "view",
      "type": "function",
      "signature": "0xedbced3d"
    },
    {
      "constant": true,
      "inputs": [],
      "name": "getAllCropId",
      "outputs": [
        {
          "name": "",
          "type": "string[]"
        }
      ],
      "payable": false,
      "stateMutability": "view",
      "type": "function",
      "signature": "0x990d0ee1"
    },
    {
      "constant": true,
      "inputs": [
        {
          "name": "pub_key",
          "type": "string"
        }
      ],
      "name": "getAgroCrops",
      "outputs": [
        {
          "name": "",
          "type": "string[]"
        }
      ],
      "payable": false,
      "stateMutability": "view",
      "type": "function",
      "signature": "0x54094b53"
    },
    {
      "constant": true,
      "inputs": [],
      "name": "getAllUsedKeys",
      "outputs": [
        {
          "name": "",
          "type": "uint256[]"
        }
      ],
      "payable": false,
      "stateMutability": "view",
      "type": "function",
      "signature": "0xf0691918"
    },
    {
      "constant": false,
      "inputs": [
        {
          "name": "crop_id",
          "type": "string"
        },
        {
          "name": "hash",
          "type": "string"
        }
      ],
      "name": "setCropRatings",
      "outputs": [],
      "payable": false,
      "stateMutability": "nonpayable",
      "type": "function",
      "signature": "0x1a3123b2"
    },
    {
      "constant": true,
      "inputs": [
        {
          "name": "crop_id",
          "type": "string"
        }
      ],
      "name": "getCropRatings",
      "outputs": [
        {
          "name": "",
          "type": "string[]"
        }
      ],
      "payable": false,
      "stateMutability": "view",
      "type": "function",
      "signature": "0x2b1227a1"
    },
    {
      "constant": false,
      "inputs": [
        {
          "name": "crop_id",
          "type": "string"
        },
        {
          "name": "hash",
          "type": "string"
        }
      ],
      "name": "setFarmerRatings",
      "outputs": [],
      "payable": false,
      "stateMutability": "nonpayable",
      "type": "function",
      "signature": "0x692a0f9f"
    },
    {
      "constant": true,
      "inputs": [
        {
          "name": "crop_id",
          "type": "string"
        }
      ],
      "name": "getFarmerRatings",
      "outputs": [
        {
          "name": "",
          "type": "string"
        }
      ],
      "payable": false,
      "stateMutability": "view",
      "type": "function",
      "signature": "0x21863f44"
    },
    {
      "constant": false,
      "inputs": [
        {
          "name": "pub_key",
          "type": "string"
        },
        {
          "name": "signup_hash",
          "type": "string"
        }
      ],
      "name": "set_signup",
      "outputs": [],
      "payable": false,
      "stateMutability": "nonpayable",
      "type": "function",
      "signature": "0x9a80f157"
    },
    {
      "constant": true,
      "inputs": [
        {
          "name": "pub_key",
          "type": "string"
        }
      ],
      "name": "get_signup",
      "outputs": [
        {
          "name": "",
          "type": "string"
        }
      ],
      "payable": false,
      "stateMutability": "view",
      "type": "function",
      "signature": "0x19cec54b"
    },
    {
      "constant": true,
      "inputs": [],
      "name": "get_usernames",
      "outputs": [
        {
          "name": "",
          "type": "string[]"
        }
      ],
      "payable": false,
      "stateMutability": "view",
      "type": "function",
      "signature": "0x0da1b264"
    },
    {
      "constant": true,
      "inputs": [
        {
          "name": "crop_id",
          "type": "string"
        }
      ],
      "name": "match_cropId",
      "outputs": [
        {
          "name": "",
          "type": "bool"
        }
      ],
      "payable": false,
      "stateMutability": "view",
      "type": "function",
      "signature": "0xb228fc0f"
    },
    {
      "constant": true,
      "inputs": [
        {
          "name": "pub_key",
          "type": "string"
        }
      ],
      "name": "match_usernames",
      "outputs": [
        {
          "name": "",
          "type": "bool"
        }
      ],
      "payable": false,
      "stateMutability": "view",
      "type": "function",
      "signature": "0xabf3e364"
    }
  ],
  "bytecode": "0x60806040526020604051908101604052806040805190810160405280600581526020017f64756d6d7900000000000000000000000000000000000000000000000000000081525081525060029060016200005b9291906200026d565b50602060405190810160405280606060405190810160405280603081526020017f307837343361323634443139396431313333633344334561633138423931424281526020017f384535363862303945612d61646d696e000000000000000000000000000000008152508152506005906001620000da9291906200026d565b506040805190810160405280606060405190810160405280603081526020017f307837343361323634443139396431313333633344334561633138423931424281526020017f384535363862303945612d61646d696e0000000000000000000000000000000081525081526020016040805190810160405280600881526020017f5061737331323340000000000000000000000000000000000000000000000000815250815250600690600262000193929190620002d4565b506020604051908101604052806040805190810160405280600181526020017f61000000000000000000000000000000000000000000000000000000000000008152508152506009906001620001eb9291906200026d565b50602060405190810160405280600160ff16815250600a906001620002129291906200033b565b503480156200022057600080fd5b506000339050806000806101000a81548173ffffffffffffffffffffffffffffffffffffffff021916908373ffffffffffffffffffffffffffffffffffffffff16021790555050620004be565b828054828255906000526020600020908101928215620002c1579160200282015b82811115620002c0578251829080519060200190620002af92919062000392565b50916020019190600101906200028e565b5b509050620002d0919062000419565b5090565b82805482825590600052602060002090810192821562000328579160200282015b82811115620003275782518290805190602001906200031692919062000392565b5091602001919060010190620002f5565b5b50905062000337919062000419565b5090565b8280548282559060005260206000209081019282156200037f579160200282015b828111156200037e578251829060ff169055916020019190600101906200035c565b5b5090506200038e91906200044a565b5090565b828054600181600116156101000203166002900490600052602060002090601f016020900481019282601f10620003d557805160ff191683800117855562000406565b8280016001018555821562000406579182015b8281111562000405578251825591602001919060010190620003e8565b5b5090506200041591906200044a565b5090565b6200044791905b8082111562000443576000818162000439919062000472565b5060010162000420565b5090565b90565b6200046f91905b808211156200046b57600081600090555060010162000451565b5090565b90565b50805460018160011615610100020316600290046000825580601f106200049a5750620004bb565b601f016020900490600052602060002090810190620004ba91906200044a565b5b50565b61279f80620004ce6000396000f3fe608060405260043610610133576000357c0100000000000000000000000000000000000000000000000000000000900463ffffffff1680630da1b2641461013857806319cec54b146101635780631a3123b2146101a057806321863f44146101c95780632b1227a1146102065780634a600edc1461024357806354094b531461024d57806364a406421461028a578063692a0f9f146102b557806369b42dc1146102de5780636f9fb98a1461031b5780638b7afe2e14610346578063990d0ee1146103715780639a80f1571461039c5780639aaba1bf146103c5578063abf3e364146103e1578063b228fc0f1461041e578063b44790fc1461045b578063d3d40f0914610498578063e32c1903146104c1578063eb279439146104fe578063edbced3d14610529578063f069191814610566575b600080fd5b34801561014457600080fd5b5061014d610591565b60405161015a919061257b565b60405180910390f35b34801561016f57600080fd5b5061018a6004803603610185919081019061223a565b61067a565b60405161019791906125da565b60405180910390f35b3480156101ac57600080fd5b506101c760048036036101c2919081019061227b565b610787565b005b3480156101d557600080fd5b506101f060048036036101eb919081019061223a565b610833565b6040516101fd91906125da565b60405180910390f35b34801561021257600080fd5b5061022d6004803603610228919081019061223a565b610940565b60405161023a919061257b565b60405180910390f35b61024b610a94565b005b34801561025957600080fd5b50610274600480360361026f919081019061223a565b610b39565b604051610281919061257b565b60405180910390f35b34801561029657600080fd5b5061029f610c8d565b6040516102ac919061261e565b60405180910390f35b3480156102c157600080fd5b506102dc60048036036102d7919081019061227b565b610cd4565b005b3480156102ea57600080fd5b506103056004803603610300919081019061223a565b610d58565b604051610312919061257b565b60405180910390f35b34801561032757600080fd5b50610330610eac565b60405161033d919061261e565b60405180910390f35b34801561035257600080fd5b5061035b610eb6565b604051610368919061261e565b60405180910390f35b34801561037d57600080fd5b50610386610ebc565b604051610393919061257b565b60405180910390f35b3480156103a857600080fd5b506103c360048036036103be919081019061227b565b610fa5565b005b6103df60048036036103da919081019061216e565b611068565b005b3480156103ed57600080fd5b506104086004803603610403919081019061223a565b6111ab565b60405161041591906125bf565b60405180910390f35b34801561042a57600080fd5b506104456004803603610440919081019061223a565b6112c8565b60405161045291906125bf565b60405180910390f35b34801561046757600080fd5b50610482600480360361047d919081019061223a565b6113e5565b60405161048f91906125fc565b60405180910390f35b3480156104a457600080fd5b506104bf60048036036104ba91908101906122e7565b6115c3565b005b3480156104cd57600080fd5b506104e860048036036104e3919081019061227b565b611907565b6040516104f591906125bf565b60405180910390f35b34801561050a57600080fd5b50610513611a40565b604051610520919061257b565b60405180910390f35b34801561053557600080fd5b50610550600480360361054b919081019061223a565b611b29565b60405161055d91906125da565b60405180910390f35b34801561057257600080fd5b5061057b611c36565b604051610588919061259d565b60405180910390f35b60606005805480602002602001604051908101604052809291908181526020016000905b82821015610671578382906000526020600020018054600181600116156101000203166002900480601f01602080910402602001604051908101604052809291908181526020018280546001816001161561010002031660029004801561065d5780601f106106325761010080835404028352916020019161065d565b820191906000526020600020905b81548152906001019060200180831161064057829003601f168201915b5050505050815260200190600101906105b5565b50505050905090565b60606004826040518082805190602001908083835b6020831015156106b4578051825260208201915060208101905060208303925061068f565b6001836020036101000a03801982511681845116808217855250505050505090500191505090815260200160405180910390208054600181600116156101000203166002900480601f01602080910402602001604051908101604052809291908181526020018280546001816001161561010002031660029004801561077b5780601f106107505761010080835404028352916020019161077b565b820191906000526020600020905b81548152906001019060200180831161075e57829003601f168201915b50505050509050919050565b600b826040518082805190602001908083835b6020831015156107bf578051825260208201915060208101905060208303925061079a565b6001836020036101000a038019825116818451168082178552505050505050905001915050908152602001604051809103902081908060018154018082558091505090600182039060005260206000200160009091929091909150908051906020019061082d929190611d7f565b50505050565b6060600c826040518082805190602001908083835b60208310151561086d5780518252602082019150602081019050602083039250610848565b6001836020036101000a03801982511681845116808217855250505050505090500191505090815260200160405180910390208054600181600116156101000203166002900480601f0160208091040260200160405190810160405280929190818152602001828054600181600116156101000203166002900480156109345780601f1061090957610100808354040283529160200191610934565b820191906000526020600020905b81548152906001019060200180831161091757829003601f168201915b50505050509050919050565b6060600b826040518082805190602001908083835b60208310151561097a5780518252602082019150602081019050602083039250610955565b6001836020036101000a0380198251168184511680821785525050505050509050019150509081526020016040518091039020805480602002602001604051908101604052809291908181526020016000905b82821015610a89578382906000526020600020018054600181600116156101000203166002900480601f016020809104026020016040519081016040528092919081815260200182805460018160011615610100020316600290048015610a755780601f10610a4a57610100808354040283529160200191610a75565b820191906000526020600020905b815481529060010190602001808311610a5857829003601f168201915b5050505050815260200190600101906109cd565b505050509050919050565b34600e60003373ffffffffffffffffffffffffffffffffffffffff1673ffffffffffffffffffffffffffffffffffffffff1681526020019081526020016000205401600e60003373ffffffffffffffffffffffffffffffffffffffff1673ffffffffffffffffffffffffffffffffffffffff168152602001908152602001600020819055503073ffffffffffffffffffffffffffffffffffffffff1631600d81905550565b60606003826040518082805190602001908083835b602083101515610b735780518252602082019150602081019050602083039250610b4e565b6001836020036101000a0380198251168184511680821785525050505050509050019150509081526020016040518091039020805480602002602001604051908101604052809291908181526020016000905b82821015610c82578382906000526020600020018054600181600116156101000203166002900480601f016020809104026020016040519081016040528092919081815260200182805460018160011615610100020316600290048015610c6e5780601f10610c4357610100808354040283529160200191610c6e565b820191906000526020600020905b815481529060010190602001808311610c5157829003601f168201915b505050505081526020019060010190610bc6565b505050509050919050565b6000600e60003373ffffffffffffffffffffffffffffffffffffffff1673ffffffffffffffffffffffffffffffffffffffff16815260200190815260200160002054905090565b80600c836040518082805190602001908083835b602083101515610d0d5780518252602082019150602081019050602083039250610ce8565b6001836020036101000a03801982511681845116808217855250505050505090500191505090815260200160405180910390209080519060200190610d53929190611d7f565b505050565b60606007826040518082805190602001908083835b602083101515610d925780518252602082019150602081019050602083039250610d6d565b6001836020036101000a0380198251168184511680821785525050505050509050019150509081526020016040518091039020805480602002602001604051908101604052809291908181526020016000905b82821015610ea1578382906000526020600020018054600181600116156101000203166002900480601f016020809104026020016040519081016040528092919081815260200182805460018160011615610100020316600290048015610e8d5780601f10610e6257610100808354040283529160200191610e8d565b820191906000526020600020905b815481529060010190602001808311610e7057829003601f168201915b505050505081526020019060010190610de5565b505050509050919050565b6000600d54905090565b600d5481565b60606009805480602002602001604051908101604052809291908181526020016000905b82821015610f9c578382906000526020600020018054600181600116156101000203166002900480601f016020809104026020016040519081016040528092919081815260200182805460018160011615610100020316600290048015610f885780601f10610f5d57610100808354040283529160200191610f88565b820191906000526020600020905b815481529060010190602001808311610f6b57829003601f168201915b505050505081526020019060010190610ee0565b50505050905090565b806004836040518082805190602001908083835b602083101515610fde5780518252602082019150602081019050602083039250610fb9565b6001836020036101000a03801982511681845116808217855250505050505090500191505090815260200160405180910390209080519060200190611024929190611d7f565b506005829080600181540180825580915050906001820390600052602060002001600090919290919091509080519060200190611062929190611d7f565b50505050565b61114188888080601f016020809104026020016040519081016040528093929190818152602001838380828437600081840152601f19601f8201169050808301925050505050505087878080601f016020809104026020016040519081016040528093929190818152602001838380828437600081840152601f19601f8201169050808301925050505050505086868080601f016020809104026020016040519081016040528093929190818152602001838380828437600081840152601f19601f820116905080830192505050505050508585611c8e565b6002888890918060018154018082558091505090600182039060005260206000200160009091929390919293909192909192509190611181929190611dff565b50503073ffffffffffffffffffffffffffffffffffffffff1631600d819055505050505050505050565b6000806000905060008090505b6005805490508110156112a95760606005828154811015156111d657fe5b906000526020600020018054600181600116156101000203166002900480601f0160208091040260200160405190810160405280929190818152602001828054600181600116156101000203166002900480156112745780601f1061124957610100808354040283529160200191611274565b820191906000526020600020905b81548152906001019060200180831161125757829003601f168201915b5050505050905084805190602001208180519060200120141561129b5760019250506112a9565b5080806001019150506111b8565b5060018114156112bd5760019150506112c3565b60009150505b919050565b6000806000905060008090505b6009805490508110156113c65760606009828154811015156112f357fe5b906000526020600020018054600181600116156101000203166002900480601f0160208091040260200160405190810160405280929190818152602001828054600181600116156101000203166002900480156113915780601f1061136657610100808354040283529160200191611391565b820191906000526020600020905b81548152906001019060200180831161137457829003601f168201915b505050505090508480519060200120818051906020012014156113b85760019250506113c6565b5080806001019150506112d5565b5060018114156113da5760019150506113e0565b60009150505b919050565b6113ed611e7f565b6001826040518082805190602001908083835b6020831015156114255780518252602082019150602081019050602083039250611400565b6001836020036101000a038019825116818451168082178552505050505050905001915050908152602001604051809103902060806040519081016040529081600082018054600181600116156101000203166002900480601f0160208091040260200160405190810160405280929190818152602001828054600181600116156101000203166002900480156114fd5780601f106114d2576101008083540402835291602001916114fd565b820191906000526020600020905b8154815290600101906020018083116114e057829003601f168201915b50505050508152602001600182018054600181600116156101000203166002900480601f01602080910402602001604051908101604052809291908181526020018280546001816001161561010002031660029004801561159f5780601f106115745761010080835404028352916020019161159f565b820191906000526020600020905b81548152906001019060200180831161158257829003601f168201915b50505050508152602001600282015481526020016003820154815250509050919050565b60006007866040518082805190602001908083835b6020831015156115fd57805182526020820191506020810190506020830392506115d8565b6001836020036101000a038019825116818451168082178552505050505050905001915050908152602001604051809103902090508084908060018154018082558091505090600182039060005260206000200160009091929091909150908051906020019061166e929190611d7f565b5050806007876040518082805190602001908083835b6020831015156116a95780518252602082019150602081019050602083039250611684565b6001836020036101000a03801982511681845116808217855250505050505090500191505090815260200160405180910390209080546116ea929190611ea8565b50846008856040518082805190602001908083835b60208310151561172457805182526020820191506020810190506020830392506116ff565b6001836020036101000a0380198251168184511680821785525050505050509050019150509081526020016040518091039020908051906020019061176a929190611d7f565b5060006003846040518082805190602001908083835b6020831015156117a55780518252602082019150602081019050602083039250611780565b6001836020036101000a0380198251168184511680821785525050505050509050019150509081526020016040518091039020905080859080600181540180825580915050906001820390600052602060002001600090919290919091509080519060200190611816929190611d7f565b5050806003856040518082805190602001908083835b602083101515611851578051825260208201915060208101905060208303925061182c565b6001836020036101000a0380198251168184511680821785525050505050509050019150509081526020016040518091039020908054611892929190611ea8565b5060098590806001815401808255809150509060018203906000526020600020016000909192909190915090805190602001906118d0929190611d7f565b5050600a83908060018154018082558091505090600182039060005260206000200160009091929091909150555050505050505050565b60006006600081548110151561191957fe5b90600052602060002001604051808280546001816001161561010002031660029004801561197e5780601f1061195c57610100808354040283529182019161197e565b820191906000526020600020905b81548152906001019060200180831161196a575b505091505060405180910390208380519060200120148015611a275750600660018154811015156119ab57fe5b906000526020600020016040518082805460018160011615610100020316600290048015611a105780601f106119ee576101008083540402835291820191611a10565b820191906000526020600020905b8154815290600101906020018083116119fc575b505091505060405180910390208280519060200120145b15611a355760019050611a3a565b600090505b92915050565b60606002805480602002602001604051908101604052809291908181526020016000905b82821015611b20578382906000526020600020018054600181600116156101000203166002900480601f016020809104026020016040519081016040528092919081815260200182805460018160011615610100020316600290048015611b0c5780601f10611ae157610100808354040283529160200191611b0c565b820191906000526020600020905b815481529060010190602001808311611aef57829003601f168201915b505050505081526020019060010190611a64565b50505050905090565b60606008826040518082805190602001908083835b602083101515611b635780518252602082019150602081019050602083039250611b3e565b6001836020036101000a03801982511681845116808217855250505050505090500191505090815260200160405180910390208054600181600116156101000203166002900480601f016020809104026020016040519081016040528092919081815260200182805460018160011615610100020316600290048015611c2a5780601f10611bff57610100808354040283529160200191611c2a565b820191906000526020600020905b815481529060010190602001808311611c0d57829003601f168201915b50505050509050919050565b6060600a805480602002602001604051908101604052809291908181526020018280548015611c8457602002820191906000526020600020905b815481526020019060010190808311611c70575b5050505050905090565b611c96611e7f565b608060405190810160405280868152602001858152602001848152602001838152509050806001876040518082805190602001908083835b602083101515611cf35780518252602082019150602081019050602083039250611cce565b6001836020036101000a03801982511681845116808217855250505050505090500191505090815260200160405180910390206000820151816000019080519060200190611d42929190611f18565b506020820151816001019080519060200190611d5f929190611f18565b506040820151816002015560608201518160030155905050505050505050565b828054600181600116156101000203166002900490600052602060002090601f016020900481019282601f10611dc057805160ff1916838001178555611dee565b82800160010185558215611dee579182015b82811115611ded578251825591602001919060010190611dd2565b5b509050611dfb9190611f98565b5090565b828054600181600116156101000203166002900490600052602060002090601f016020900481019282601f10611e4057803560ff1916838001178555611e6e565b82800160010185558215611e6e579182015b82811115611e6d578235825591602001919060010190611e52565b5b509050611e7b9190611f98565b5090565b608060405190810160405280606081526020016060815260200160008152602001600081525090565b828054828255906000526020600020908101928215611f075760005260206000209182015b82811115611f065782829080546001816001161561010002031660029004611ef6929190611fbd565b5091600101919060010190611ecd565b5b509050611f149190612044565b5090565b828054600181600116156101000203166002900490600052602060002090601f016020900481019282601f10611f5957805160ff1916838001178555611f87565b82800160010185558215611f87579182015b82811115611f86578251825591602001919060010190611f6b565b5b509050611f949190611f98565b5090565b611fba91905b80821115611fb6576000816000905550600101611f9e565b5090565b90565b828054600181600116156101000203166002900490600052602060002090601f016020900481019282601f10611ff65780548555612033565b8280016001018555821561203357600052602060002091601f016020900482015b82811115612032578254825591600101919060010190612017565b5b5090506120409190611f98565b5090565b61206d91905b8082111561206957600081816120609190612070565b5060010161204a565b5090565b90565b50805460018160011615610100020316600290046000825580601f1061209657506120b5565b601f0160209004906000526020600020908101906120b49190611f98565b5b50565b60008083601f84011215156120cc57600080fd5b8235905067ffffffffffffffff8111156120e557600080fd5b6020830191508360018202830111156120fd57600080fd5b9250929050565b600082601f830112151561211757600080fd5b813561212a61212582612666565b612639565b9150808252602083016020830185838301111561214657600080fd5b612151838284612712565b50505092915050565b60006121668235612708565b905092915050565b60008060008060008060008060a0898b03121561218a57600080fd5b600089013567ffffffffffffffff8111156121a457600080fd5b6121b08b828c016120b8565b9850985050602089013567ffffffffffffffff8111156121cf57600080fd5b6121db8b828c016120b8565b9650965050604089013567ffffffffffffffff8111156121fa57600080fd5b6122068b828c016120b8565b945094505060606122198b828c0161215a565b925050608061222a8b828c0161215a565b9150509295985092959890939650565b60006020828403121561224c57600080fd5b600082013567ffffffffffffffff81111561226657600080fd5b61227284828501612104565b91505092915050565b6000806040838503121561228e57600080fd5b600083013567ffffffffffffffff8111156122a857600080fd5b6122b485828601612104565b925050602083013567ffffffffffffffff8111156122d157600080fd5b6122dd85828601612104565b9150509250929050565b600080600080600060a086880312156122ff57600080fd5b600086013567ffffffffffffffff81111561231957600080fd5b61232588828901612104565b955050602086013567ffffffffffffffff81111561234257600080fd5b61234e88828901612104565b945050604086013567ffffffffffffffff81111561236b57600080fd5b61237788828901612104565b935050606086013567ffffffffffffffff81111561239457600080fd5b6123a088828901612104565b92505060806123b18882890161215a565b9150509295509295909350565b60006123c9826126ac565b808452602084019350836020820285016123e285612692565b60005b8481101561241b5783830388526123fd8383516124cc565b9250612408826126d8565b91506020880197506001810190506123e5565b508196508694505050505092915050565b6000612437826126b7565b8084526020840193506124498361269f565b60005b8281101561247b5761245f86835161256c565b612468826126e5565b915060208601955060018101905061244c565b50849250505092915050565b612490816126f2565b82525050565b60006124a1826126cd565b8084526124b5816020860160208601612721565b6124be81612754565b602085010191505092915050565b60006124d7826126c2565b8084526124eb816020860160208601612721565b6124f481612754565b602085010191505092915050565b6000608083016000830151848203600086015261251f82826124cc565b9150506020830151848203602086015261253982826124cc565b915050604083015161254e604086018261256c565b506060830151612561606086018261256c565b508091505092915050565b612575816126fe565b82525050565b6000602082019050818103600083015261259581846123be565b905092915050565b600060208201905081810360008301526125b7818461242c565b905092915050565b60006020820190506125d46000830184612487565b92915050565b600060208201905081810360008301526125f48184612496565b905092915050565b600060208201905081810360008301526126168184612502565b905092915050565b6000602082019050612633600083018461256c565b92915050565b6000604051905081810181811067ffffffffffffffff8211171561265c57600080fd5b8060405250919050565b600067ffffffffffffffff82111561267d57600080fd5b601f19601f8301169050602081019050919050565b6000602082019050919050565b6000602082019050919050565b600081519050919050565b600081519050919050565b600081519050919050565b600081519050919050565b6000602082019050919050565b6000602082019050919050565b60008115159050919050565b6000819050919050565b6000819050919050565b82818337600083830152505050565b60005b8381101561273f578082015181840152602081019050612724565b8381111561274e576000848401525b50505050565b6000601f19601f830116905091905056fea265627a7a723058206c45f1d8d5c167b3fc9bec500d9a2c9c32fd6cd5b8f94e95336ddbb4bdd40f546c6578706572696d656e74616cf50037",
  "source": "// SPDX-License-Identifier: MIT\npragma solidity >=0.5.0;\npragma experimental ABIEncoderV2;\n\ncontract Scm {\n    \n  address payable governingAuthority;\n\n  constructor() public {\n    address owner = msg.sender;\n    governingAuthority = address(uint160(owner));\n  }\n\n  struct agroFarmerContract {\n    string agroPublicKey;\n    string farmerPublicKey;\n    uint256 agroKey;\n    uint256 farmerKey;\n  }\n\n  // agro-Farmer contract mappings\n  mapping (string => agroFarmerContract) agroFarmer;\n  string[] keyValueArray = [\"dummy\"];\n  mapping (string => string[]) cropContract;\n    \n  // User data storage attributes\n  mapping(string => string) signup;\n  string[] usernames_signup = [\"0x743a264D199d1133c3D3Eac18B91BB8E568b09Ea-admin\"];\n  string[] AdminDetails = [\"0x743a264D199d1133c3D3Eac18B91BB8E568b09Ea-admin\",\"Pass123@\"];\n  \n  \n  // Crop data storage attributes\n  mapping(string => string[]) farmer_crops;\n  mapping(string => string) cropInfo;\n  string[] allCropId = [\"a\"];\n  uint256[] usedKeys = [1];\n\n\n  //crop ratings\n  // cropId to pre,post,harvest array\n  mapping(string => string[]) cropRatings;\n  // cropId to rating hash for each crop\n  mapping(string => string) farmerRatingPerCrop;\n    \n  \n  // Ether stored in contract address\n  uint256 public contractBalance;\n  \n  \n  // attribute to map farmer to his security deposit\n  mapping(address => uint256) securityDeposit;\n  \n  // set and get functions for agroFarmer\n  function setAgroFarmer(string memory keyValue, string memory agroPublicKey, string memory farmerPublicKey, uint256 agroKey,uint256 farmerKey\n  ) internal {\n    agroFarmerContract memory contractObj =  agroFarmerContract(agroPublicKey, farmerPublicKey, agroKey, farmerKey);\n    agroFarmer[keyValue] = contractObj;\n  }\n\n  function getAgroFarmer(string memory keyValue) public view returns (agroFarmerContract memory) {\n    return agroFarmer[keyValue];\n  }\n\n  // agro farmer money transfer to contract\n  function bookFarmerAgroContract (string calldata keyValue, string calldata agroPublicKey, string calldata farmerPublicKey, uint256 agroKey,uint256 farmerKey) external payable {\n      setAgroFarmer(keyValue, agroPublicKey, farmerPublicKey, agroKey, farmerKey);\n      keyValueArray.push(keyValue);\n      contractBalance=address(this).balance;\n  }\n  function getAllKeyValue() public view returns(string[] memory){\n      return keyValueArray;\n  }\n\n  // get contractBalance\n  function getContractBalance() public view returns (uint256) {\n      return contractBalance;\n  }\n\n  // Getter and setters for securityDeposit\n  function setSecurityDeposit () external payable {\n      securityDeposit[msg.sender] = securityDeposit[msg.sender] + msg.value;\n      contractBalance=address(this).balance;\n  }\n  function getSecurityDeposit () public view returns (uint256){\n      return securityDeposit[msg.sender];\n  }\n  \n  // function checking for Admin login\n  function validateAdmindetails(string memory pub_key, string memory pass) public view returns (bool) {\n      if(keccak256(bytes(pub_key)) == keccak256(bytes(AdminDetails[0])) && keccak256(bytes(pass))==keccak256(bytes(AdminDetails[1]))){\n          return true; \n      }\n      return false;\n  }\n  \n  \n  // setters and getters for Farmer's crops, by different parameters\n  function setFarmerCrops(string memory pub_key, string memory crop_hash, string memory crop_id, string memory agro_key, uint256 keyPhrase) public {\n      string[] storage cropArray = farmer_crops[pub_key];\n      cropArray.push(crop_id);\n      farmer_crops[pub_key] = cropArray;\n      \n      cropInfo[crop_id] = crop_hash;\n\n      string[] storage cropIds = cropContract[agro_key];\n      cropIds.push(crop_id);\n      cropContract[agro_key] = cropIds;\n      \n      allCropId.push(crop_id);\n      usedKeys.push(keyPhrase);\n  }\n  function getFarmerCrops(string memory pub_key) public view returns(string[] memory){\n      return farmer_crops[pub_key];\n  }\n  function getCropByCropId(string memory crop_id) public view returns(string memory){\n      return cropInfo[crop_id];\n  }\n  function getAllCropId() public view returns(string[] memory){\n      return allCropId;\n  }\n  function getAgroCrops(string memory pub_key) public view returns(string[] memory){\n      return cropContract[pub_key];\n  }\n  function getAllUsedKeys() public view returns(uint256[] memory){\n      return usedKeys;\n  }\n\n  // ratings function\n  function setCropRatings(string memory crop_id, string memory hash) public {\n      cropRatings[crop_id].push(hash);\n  }\n  function getCropRatings(string memory crop_id) public view returns(string[] memory){\n      return cropRatings[crop_id];\n  }\n  function setFarmerRatings(string memory crop_id, string memory hash) public {\n      farmerRatingPerCrop[crop_id] = hash;\n  }\n  function getFarmerRatings(string memory crop_id) public view returns(string memory){\n      return farmerRatingPerCrop[crop_id];\n  }\n  \n  \n  \n  // getters and setters for user registration\n  function set_signup(string memory pub_key, string memory signup_hash) public {\n    signup[pub_key] = signup_hash;\n    usernames_signup.push(pub_key);\n  }\n  function get_signup(string memory pub_key) public view returns (string memory) {\n    return signup[pub_key];\n  }\n  function get_usernames() public view returns (string[] memory) {\n    return usernames_signup;\n  }\n  \n  // functions checking for matching Id's\n  function match_cropId(string memory crop_id) public view returns (bool){\n    uint256 flag = 0;\n    for(uint i=0; i< allCropId.length; i++){\n      string memory x = allCropId[i];\n      if (keccak256(bytes(x)) == keccak256(bytes(crop_id))) {\n        flag=1;\n        break;\n      }\n    }\n    if (flag == 1) {\n        return true;\n    }\n    return false;\n  }\n  function match_usernames(string memory pub_key) public view returns (bool){\n    uint256 flag = 0;\n    for(uint i=0; i< usernames_signup.length; i++){\n      string memory x = usernames_signup[i];\n      if (keccak256(bytes(x)) == keccak256(bytes(pub_key))) {\n        flag=1;\n        break;\n      }\n    }\n    if (flag == 1) {\n        return true;\n    }\n    return false;\n  }\n}",
  "sourcePath": "/home/nikhil/Desktop/scm_project/src/contracts/scm.sol",
  "compiler": {
    "name": "solc",
    "version": "0.5.0+commit.1d4f565a.Emscripten.clang"
  },
  "schemaVersion": "3.0.2",
  "updatedAt": "2021-04-04T17:36:18.356Z",
  "devdoc": {
    "methods": {}
  },
  "userdoc": {
    "methods": {}
  }
}