{
  "contractName": "Scm",
  "abi": [
    {
      "constant": true,
      "inputs": [
        {
          "name": "pub_key",
          "type": "string"
        },
        {
          "name": "pass",
          "type": "string"
        }
      ],
      "name": "validateAdmindetails",
      "outputs": [
        {
          "name": "",
          "type": "bool"
        }
      ],
      "payable": false,
      "stateMutability": "view",
      "type": "function",
      "signature": "0xe32c1903"
    },
    {
      "constant": false,
      "inputs": [
        {
          "name": "pub_key",
          "type": "string"
        },
        {
          "name": "signup_hash",
          "type": "string"
        }
      ],
      "name": "set_signup",
      "outputs": [],
      "payable": false,
      "stateMutability": "nonpayable",
      "type": "function",
      "signature": "0x9a80f157"
    },
    {
      "constant": true,
      "inputs": [
        {
          "name": "pub_key",
          "type": "string"
        }
      ],
      "name": "get_signup",
      "outputs": [
        {
          "name": "",
          "type": "string"
        }
      ],
      "payable": false,
      "stateMutability": "view",
      "type": "function",
      "signature": "0x19cec54b"
    },
    {
      "constant": true,
      "inputs": [],
      "name": "get_usernames",
      "outputs": [
        {
          "name": "",
          "type": "string[]"
        }
      ],
      "payable": false,
      "stateMutability": "view",
      "type": "function",
      "signature": "0x0da1b264"
    },
    {
      "constant": true,
      "inputs": [
        {
          "name": "pub_key",
          "type": "string"
        }
      ],
      "name": "match_usernames",
      "outputs": [
        {
          "name": "",
          "type": "bool"
        }
      ],
      "payable": false,
      "stateMutability": "view",
      "type": "function",
      "signature": "0xabf3e364"
    }
  ],
  "bytecode": "0x6080604052602060405190810160405280606060405190810160405280603081526020017f307837343361323634443139396431313333633344334561633138423931424281526020017f384535363862303945612d61646d696e0000000000000000000000000000000081525081525060019060016200008292919062000150565b506040805190810160405280606060405190810160405280603081526020017f307837343361323634443139396431313333633344334561633138423931424281526020017f384535363862303945612d61646d696e0000000000000000000000000000000081525081526020016040805190810160405280600881526020017f506173733132334000000000000000000000000000000000000000000000000081525081525060029060026200013b929190620001b7565b503480156200014957600080fd5b506200034a565b828054828255906000526020600020908101928215620001a4579160200282015b82811115620001a3578251829080519060200190620001929291906200021e565b509160200191906001019062000171565b5b509050620001b39190620002a5565b5090565b8280548282559060005260206000209081019282156200020b579160200282015b828111156200020a578251829080519060200190620001f99291906200021e565b5091602001919060010190620001d8565b5b5090506200021a9190620002a5565b5090565b828054600181600116156101000203166002900490600052602060002090601f016020900481019282601f106200026157805160ff191683800117855562000292565b8280016001018555821562000292579182015b828111156200029157825182559160200191906001019062000274565b5b509050620002a19190620002d6565b5090565b620002d391905b80821115620002cf5760008181620002c59190620002fe565b50600101620002ac565b5090565b90565b620002fb91905b80821115620002f7576000816000905550600101620002dd565b5090565b90565b50805460018160011615610100020316600290046000825580601f1062000326575062000347565b601f016020900490600052602060002090810190620003469190620002d6565b5b50565b610aa9806200035a6000396000f3fe60806040526004361061006d576000357c0100000000000000000000000000000000000000000000000000000000900463ffffffff1680630da1b2641461007257806319cec54b1461009d5780639a80f157146100da578063abf3e36414610103578063e32c190314610140575b600080fd5b34801561007e57600080fd5b5061008761017d565b604051610094919061091d565b60405180910390f35b3480156100a957600080fd5b506100c460048036036100bf9190810190610787565b610266565b6040516100d1919061095a565b60405180910390f35b3480156100e657600080fd5b5061010160048036036100fc91908101906107c8565b610373565b005b34801561010f57600080fd5b5061012a60048036036101259190810190610787565b610436565b604051610137919061093f565b60405180910390f35b34801561014c57600080fd5b50610167600480360361016291908101906107c8565b610553565b604051610174919061093f565b60405180910390f35b60606001805480602002602001604051908101604052809291908181526020016000905b8282101561025d578382906000526020600020018054600181600116156101000203166002900480601f0160208091040260200160405190810160405280929190818152602001828054600181600116156101000203166002900480156102495780601f1061021e57610100808354040283529160200191610249565b820191906000526020600020905b81548152906001019060200180831161022c57829003601f168201915b5050505050815260200190600101906101a1565b50505050905090565b60606000826040518082805190602001908083835b6020831015156102a0578051825260208201915060208101905060208303925061027b565b6001836020036101000a03801982511681845116808217855250505050505090500191505090815260200160405180910390208054600181600116156101000203166002900480601f0160208091040260200160405190810160405280929190818152602001828054600181600116156101000203166002900480156103675780601f1061033c57610100808354040283529160200191610367565b820191906000526020600020905b81548152906001019060200180831161034a57829003601f168201915b50505050509050919050565b806000836040518082805190602001908083835b6020831015156103ac5780518252602082019150602081019050602083039250610387565b6001836020036101000a038019825116818451168082178552505050505050905001915050908152602001604051809103902090805190602001906103f292919061068c565b50600182908060018154018082558091505090600182039060005260206000200160009091929091909150908051906020019061043092919061068c565b50505050565b6000806000905060008090505b60018054905081101561053457606060018281548110151561046157fe5b906000526020600020018054600181600116156101000203166002900480601f0160208091040260200160405190810160405280929190818152602001828054600181600116156101000203166002900480156104ff5780601f106104d4576101008083540402835291602001916104ff565b820191906000526020600020905b8154815290600101906020018083116104e257829003601f168201915b50505050509050848051906020012081805190602001201415610526576001925050610534565b508080600101915050610443565b50600181141561054857600191505061054e565b60009150505b919050565b60006002600081548110151561056557fe5b9060005260206000200160405180828054600181600116156101000203166002900480156105ca5780601f106105a85761010080835404028352918201916105ca565b820191906000526020600020905b8154815290600101906020018083116105b6575b5050915050604051809103902083805190602001201480156106735750600260018154811015156105f757fe5b90600052602060002001604051808280546001816001161561010002031660029004801561065c5780601f1061063a57610100808354040283529182019161065c565b820191906000526020600020905b815481529060010190602001808311610648575b505091505060405180910390208280519060200120145b156106815760019050610686565b600090505b92915050565b828054600181600116156101000203166002900490600052602060002090601f016020900481019282601f106106cd57805160ff19168380011785556106fb565b828001600101855582156106fb579182015b828111156106fa5782518255916020019190600101906106df565b5b509050610708919061070c565b5090565b61072e91905b8082111561072a576000816000905550600101610712565b5090565b90565b600082601f830112151561074457600080fd5b8135610757610752826109a9565b61097c565b9150808252602083016020830185838301111561077357600080fd5b61077e838284610a1c565b50505092915050565b60006020828403121561079957600080fd5b600082013567ffffffffffffffff8111156107b357600080fd5b6107bf84828501610731565b91505092915050565b600080604083850312156107db57600080fd5b600083013567ffffffffffffffff8111156107f557600080fd5b61080185828601610731565b925050602083013567ffffffffffffffff81111561081e57600080fd5b61082a85828601610731565b9150509250929050565b600061083f826109e2565b80845260208401935083602082028501610858856109d5565b60005b848110156108915783830388526108738383516108e7565b925061087e82610a03565b915060208801975060018101905061085b565b508196508694505050505092915050565b6108ab81610a10565b82525050565b60006108bc826109f8565b8084526108d0816020860160208601610a2b565b6108d981610a5e565b602085010191505092915050565b60006108f2826109ed565b808452610906816020860160208601610a2b565b61090f81610a5e565b602085010191505092915050565b600060208201905081810360008301526109378184610834565b905092915050565b600060208201905061095460008301846108a2565b92915050565b6000602082019050818103600083015261097481846108b1565b905092915050565b6000604051905081810181811067ffffffffffffffff8211171561099f57600080fd5b8060405250919050565b600067ffffffffffffffff8211156109c057600080fd5b601f19601f8301169050602081019050919050565b6000602082019050919050565b600081519050919050565b600081519050919050565b600081519050919050565b6000602082019050919050565b60008115159050919050565b82818337600083830152505050565b60005b83811015610a49578082015181840152602081019050610a2e565b83811115610a58576000848401525b50505050565b6000601f19601f830116905091905056fea265627a7a72305820afbbf1bfee076842634d0ae28b50a176ec851ac4dc5671ddf8a3c0d2bb3321406c6578706572696d656e74616cf50037",
  "source": "pragma solidity ^0.5.0;\npragma experimental ABIEncoderV2;\n\ncontract Scm {\n  mapping(string => string) signup;\n  string[] usernames_signup = [\"0x743a264D199d1133c3D3Eac18B91BB8E568b09Ea-admin\"];\n\n  string[] AdminDetails = [\"0x743a264D199d1133c3D3Eac18B91BB8E568b09Ea-admin\",\"Pass123@\"];\n\n  \n  function validateAdmindetails(string memory pub_key, string memory pass) public view returns (bool) {\n      if(keccak256(bytes(pub_key)) == keccak256(bytes(AdminDetails[0])) && keccak256(bytes(pass))==keccak256(bytes(AdminDetails[1]))){\n          return true; \n      }\n      return false;\n  }\n\n  function set_signup(string memory pub_key, string memory signup_hash) public {\n    signup[pub_key] = signup_hash;\n    usernames_signup.push(pub_key);\n  }\n\n  function get_signup(string memory pub_key) public view returns (string memory) {\n    return signup[pub_key];\n  }\n  \n  function get_usernames() public view returns (string[] memory) {\n    return usernames_signup;\n  }\n\n  function match_usernames(string memory pub_key) public view returns (bool){\n    uint256 flag = 0;\n    for(uint i=0; i< usernames_signup.length; i++){\n      string memory x = usernames_signup[i];\n      if (keccak256(bytes(x)) == keccak256(bytes(pub_key))) {\n        flag=1;\n        break;\n      }\n    }\n    if (flag == 1) {\n        return true;\n    }\n    return false;\n  }\n  \n}",
  "sourcePath": "/home/nikhil/Desktop/scm_project/src/contracts/scm.sol",
  "compiler": {
    "name": "solc",
    "version": "0.5.0+commit.1d4f565a.Emscripten.clang"
  },
  "schemaVersion": "3.0.2",
  "updatedAt": "2021-03-15T14:39:20.745Z",
  "devdoc": {
    "methods": {}
  },
  "userdoc": {
    "methods": {}
  }
}