{
  "contractName": "Scm",
  "abi": [
    {
      "constant": true,
      "inputs": [],
      "name": "contractBalance",
      "outputs": [
        {
          "name": "",
          "type": "uint256"
        }
      ],
      "payable": false,
      "stateMutability": "view",
      "type": "function",
      "signature": "0x8b7afe2e"
    },
    {
      "inputs": [],
      "payable": false,
      "stateMutability": "nonpayable",
      "type": "constructor",
      "signature": "constructor"
    },
    {
      "constant": true,
      "inputs": [
        {
          "name": "keyValue",
          "type": "string"
        }
      ],
      "name": "getAgroFarmer",
      "outputs": [
        {
          "components": [
            {
              "name": "agroPublicKey",
              "type": "string"
            },
            {
              "name": "farmerPublicKey",
              "type": "string"
            },
            {
              "name": "agroKey",
              "type": "uint256"
            },
            {
              "name": "farmerKey",
              "type": "uint256"
            }
          ],
          "name": "",
          "type": "tuple"
        }
      ],
      "payable": false,
      "stateMutability": "view",
      "type": "function",
      "signature": "0xb44790fc"
    },
    {
      "constant": false,
      "inputs": [
        {
          "name": "keyValue",
          "type": "string"
        },
        {
          "name": "agroPublicKey",
          "type": "string"
        },
        {
          "name": "farmerPublicKey",
          "type": "string"
        },
        {
          "name": "agroKey",
          "type": "uint256"
        },
        {
          "name": "farmerKey",
          "type": "uint256"
        }
      ],
      "name": "bookFarmerAgroContract",
      "outputs": [],
      "payable": true,
      "stateMutability": "payable",
      "type": "function",
      "signature": "0x9aaba1bf"
    },
    {
      "constant": true,
      "inputs": [],
      "name": "getAllKeyValue",
      "outputs": [
        {
          "name": "",
          "type": "string[]"
        }
      ],
      "payable": false,
      "stateMutability": "view",
      "type": "function",
      "signature": "0xeb279439"
    },
    {
      "constant": true,
      "inputs": [],
      "name": "getContractBalance",
      "outputs": [
        {
          "name": "",
          "type": "uint256"
        }
      ],
      "payable": false,
      "stateMutability": "view",
      "type": "function",
      "signature": "0x6f9fb98a"
    },
    {
      "constant": false,
      "inputs": [],
      "name": "setSecurityDeposit",
      "outputs": [],
      "payable": true,
      "stateMutability": "payable",
      "type": "function",
      "signature": "0x4a600edc"
    },
    {
      "constant": true,
      "inputs": [],
      "name": "getSecurityDeposit",
      "outputs": [
        {
          "name": "",
          "type": "uint256"
        }
      ],
      "payable": false,
      "stateMutability": "view",
      "type": "function",
      "signature": "0x64a40642"
    },
    {
      "constant": true,
      "inputs": [
        {
          "name": "pub_key",
          "type": "string"
        },
        {
          "name": "pass",
          "type": "string"
        }
      ],
      "name": "validateAdmindetails",
      "outputs": [
        {
          "name": "",
          "type": "bool"
        }
      ],
      "payable": false,
      "stateMutability": "view",
      "type": "function",
      "signature": "0xe32c1903"
    },
    {
      "constant": false,
      "inputs": [
        {
          "name": "pub_key",
          "type": "string"
        },
        {
          "name": "crop_hash",
          "type": "string"
        },
        {
          "name": "crop_id",
          "type": "string"
        },
        {
          "name": "agro_key",
          "type": "string"
        },
        {
          "name": "keyPhrase",
          "type": "uint256"
        }
      ],
      "name": "setFarmerCrops",
      "outputs": [],
      "payable": false,
      "stateMutability": "nonpayable",
      "type": "function",
      "signature": "0xd3d40f09"
    },
    {
      "constant": true,
      "inputs": [
        {
          "name": "pub_key",
          "type": "string"
        }
      ],
      "name": "getFarmerCrops",
      "outputs": [
        {
          "name": "",
          "type": "string[]"
        }
      ],
      "payable": false,
      "stateMutability": "view",
      "type": "function",
      "signature": "0x69b42dc1"
    },
    {
      "constant": true,
      "inputs": [
        {
          "name": "crop_id",
          "type": "string"
        }
      ],
      "name": "getCropByCropId",
      "outputs": [
        {
          "name": "",
          "type": "string"
        }
      ],
      "payable": false,
      "stateMutability": "view",
      "type": "function",
      "signature": "0xedbced3d"
    },
    {
      "constant": true,
      "inputs": [],
      "name": "getAllCropId",
      "outputs": [
        {
          "name": "",
          "type": "string[]"
        }
      ],
      "payable": false,
      "stateMutability": "view",
      "type": "function",
      "signature": "0x990d0ee1"
    },
    {
      "constant": true,
      "inputs": [
        {
          "name": "pub_key",
          "type": "string"
        }
      ],
      "name": "getAgroCrops",
      "outputs": [
        {
          "name": "",
          "type": "string[]"
        }
      ],
      "payable": false,
      "stateMutability": "view",
      "type": "function",
      "signature": "0x54094b53"
    },
    {
      "constant": true,
      "inputs": [],
      "name": "getAllUsedKeys",
      "outputs": [
        {
          "name": "",
          "type": "uint256[]"
        }
      ],
      "payable": false,
      "stateMutability": "view",
      "type": "function",
      "signature": "0xf0691918"
    },
    {
      "constant": false,
      "inputs": [
        {
          "name": "pub_key",
          "type": "string"
        },
        {
          "name": "signup_hash",
          "type": "string"
        }
      ],
      "name": "set_signup",
      "outputs": [],
      "payable": false,
      "stateMutability": "nonpayable",
      "type": "function",
      "signature": "0x9a80f157"
    },
    {
      "constant": true,
      "inputs": [
        {
          "name": "pub_key",
          "type": "string"
        }
      ],
      "name": "get_signup",
      "outputs": [
        {
          "name": "",
          "type": "string"
        }
      ],
      "payable": false,
      "stateMutability": "view",
      "type": "function",
      "signature": "0x19cec54b"
    },
    {
      "constant": true,
      "inputs": [],
      "name": "get_usernames",
      "outputs": [
        {
          "name": "",
          "type": "string[]"
        }
      ],
      "payable": false,
      "stateMutability": "view",
      "type": "function",
      "signature": "0x0da1b264"
    },
    {
      "constant": true,
      "inputs": [
        {
          "name": "crop_id",
          "type": "string"
        }
      ],
      "name": "match_cropId",
      "outputs": [
        {
          "name": "",
          "type": "bool"
        }
      ],
      "payable": false,
      "stateMutability": "view",
      "type": "function",
      "signature": "0xb228fc0f"
    },
    {
      "constant": true,
      "inputs": [
        {
          "name": "pub_key",
          "type": "string"
        }
      ],
      "name": "match_usernames",
      "outputs": [
        {
          "name": "",
          "type": "bool"
        }
      ],
      "payable": false,
      "stateMutability": "view",
      "type": "function",
      "signature": "0xabf3e364"
    }
  ],
  "bytecode": "0x60806040526020604051908101604052806040805190810160405280600581526020017f64756d6d7900000000000000000000000000000000000000000000000000000081525081525060029060016200005b9291906200026d565b50602060405190810160405280606060405190810160405280603081526020017f307837343361323634443139396431313333633344334561633138423931424281526020017f384535363862303945612d61646d696e000000000000000000000000000000008152508152506005906001620000da9291906200026d565b506040805190810160405280606060405190810160405280603081526020017f307837343361323634443139396431313333633344334561633138423931424281526020017f384535363862303945612d61646d696e0000000000000000000000000000000081525081526020016040805190810160405280600881526020017f5061737331323340000000000000000000000000000000000000000000000000815250815250600690600262000193929190620002d4565b506020604051908101604052806040805190810160405280600181526020017f61000000000000000000000000000000000000000000000000000000000000008152508152506009906001620001eb9291906200026d565b50602060405190810160405280600160ff16815250600a906001620002129291906200033b565b503480156200022057600080fd5b506000339050806000806101000a81548173ffffffffffffffffffffffffffffffffffffffff021916908373ffffffffffffffffffffffffffffffffffffffff16021790555050620004be565b828054828255906000526020600020908101928215620002c1579160200282015b82811115620002c0578251829080519060200190620002af92919062000392565b50916020019190600101906200028e565b5b509050620002d0919062000419565b5090565b82805482825590600052602060002090810192821562000328579160200282015b82811115620003275782518290805190602001906200031692919062000392565b5091602001919060010190620002f5565b5b50905062000337919062000419565b5090565b8280548282559060005260206000209081019282156200037f579160200282015b828111156200037e578251829060ff169055916020019190600101906200035c565b5b5090506200038e91906200044a565b5090565b828054600181600116156101000203166002900490600052602060002090601f016020900481019282601f10620003d557805160ff191683800117855562000406565b8280016001018555821562000406579182015b8281111562000405578251825591602001919060010190620003e8565b5b5090506200041591906200044a565b5090565b6200044791905b8082111562000443576000818162000439919062000472565b5060010162000420565b5090565b90565b6200046f91905b808211156200046b57600081600090555060010162000451565b5090565b90565b50805460018160011615610100020316600290046000825580601f106200049a5750620004bb565b601f016020900490600052602060002090810190620004ba91906200044a565b5b50565b61231680620004ce6000396000f3fe608060405260043610610107576000357c0100000000000000000000000000000000000000000000000000000000900463ffffffff1680630da1b2641461010c57806319cec54b146101375780634a600edc1461017457806354094b531461017e57806364a40642146101bb57806369b42dc1146101e65780636f9fb98a146102235780638b7afe2e1461024e578063990d0ee1146102795780639a80f157146102a45780639aaba1bf146102cd578063abf3e364146102e9578063b228fc0f14610326578063b44790fc14610363578063d3d40f09146103a0578063e32c1903146103c9578063eb27943914610406578063edbced3d14610431578063f06919181461046e575b600080fd5b34801561011857600080fd5b50610121610499565b60405161012e91906120f2565b60405180910390f35b34801561014357600080fd5b5061015e60048036036101599190810190611db1565b610582565b60405161016b9190612151565b60405180910390f35b61017c61068f565b005b34801561018a57600080fd5b506101a560048036036101a09190810190611db1565b610734565b6040516101b291906120f2565b60405180910390f35b3480156101c757600080fd5b506101d0610888565b6040516101dd9190612195565b60405180910390f35b3480156101f257600080fd5b5061020d60048036036102089190810190611db1565b6108cf565b60405161021a91906120f2565b60405180910390f35b34801561022f57600080fd5b50610238610a23565b6040516102459190612195565b60405180910390f35b34801561025a57600080fd5b50610263610a2d565b6040516102709190612195565b60405180910390f35b34801561028557600080fd5b5061028e610a33565b60405161029b91906120f2565b60405180910390f35b3480156102b057600080fd5b506102cb60048036036102c69190810190611df2565b610b1c565b005b6102e760048036036102e29190810190611ce5565b610bdf565b005b3480156102f557600080fd5b50610310600480360361030b9190810190611db1565b610d22565b60405161031d9190612136565b60405180910390f35b34801561033257600080fd5b5061034d60048036036103489190810190611db1565b610e3f565b60405161035a9190612136565b60405180910390f35b34801561036f57600080fd5b5061038a60048036036103859190810190611db1565b610f5c565b6040516103979190612173565b60405180910390f35b3480156103ac57600080fd5b506103c760048036036103c29190810190611e5e565b61113a565b005b3480156103d557600080fd5b506103f060048036036103eb9190810190611df2565b61147e565b6040516103fd9190612136565b60405180910390f35b34801561041257600080fd5b5061041b6115b7565b60405161042891906120f2565b60405180910390f35b34801561043d57600080fd5b5061045860048036036104539190810190611db1565b6116a0565b6040516104659190612151565b60405180910390f35b34801561047a57600080fd5b506104836117ad565b6040516104909190612114565b60405180910390f35b60606005805480602002602001604051908101604052809291908181526020016000905b82821015610579578382906000526020600020018054600181600116156101000203166002900480601f0160208091040260200160405190810160405280929190818152602001828054600181600116156101000203166002900480156105655780601f1061053a57610100808354040283529160200191610565565b820191906000526020600020905b81548152906001019060200180831161054857829003601f168201915b5050505050815260200190600101906104bd565b50505050905090565b60606004826040518082805190602001908083835b6020831015156105bc5780518252602082019150602081019050602083039250610597565b6001836020036101000a03801982511681845116808217855250505050505090500191505090815260200160405180910390208054600181600116156101000203166002900480601f0160208091040260200160405190810160405280929190818152602001828054600181600116156101000203166002900480156106835780601f1061065857610100808354040283529160200191610683565b820191906000526020600020905b81548152906001019060200180831161066657829003601f168201915b50505050509050919050565b34600c60003373ffffffffffffffffffffffffffffffffffffffff1673ffffffffffffffffffffffffffffffffffffffff1681526020019081526020016000205401600c60003373ffffffffffffffffffffffffffffffffffffffff1673ffffffffffffffffffffffffffffffffffffffff168152602001908152602001600020819055503073ffffffffffffffffffffffffffffffffffffffff1631600b81905550565b60606003826040518082805190602001908083835b60208310151561076e5780518252602082019150602081019050602083039250610749565b6001836020036101000a0380198251168184511680821785525050505050509050019150509081526020016040518091039020805480602002602001604051908101604052809291908181526020016000905b8282101561087d578382906000526020600020018054600181600116156101000203166002900480601f0160208091040260200160405190810160405280929190818152602001828054600181600116156101000203166002900480156108695780601f1061083e57610100808354040283529160200191610869565b820191906000526020600020905b81548152906001019060200180831161084c57829003601f168201915b5050505050815260200190600101906107c1565b505050509050919050565b6000600c60003373ffffffffffffffffffffffffffffffffffffffff1673ffffffffffffffffffffffffffffffffffffffff16815260200190815260200160002054905090565b60606007826040518082805190602001908083835b60208310151561090957805182526020820191506020810190506020830392506108e4565b6001836020036101000a0380198251168184511680821785525050505050509050019150509081526020016040518091039020805480602002602001604051908101604052809291908181526020016000905b82821015610a18578382906000526020600020018054600181600116156101000203166002900480601f016020809104026020016040519081016040528092919081815260200182805460018160011615610100020316600290048015610a045780601f106109d957610100808354040283529160200191610a04565b820191906000526020600020905b8154815290600101906020018083116109e757829003601f168201915b50505050508152602001906001019061095c565b505050509050919050565b6000600b54905090565b600b5481565b60606009805480602002602001604051908101604052809291908181526020016000905b82821015610b13578382906000526020600020018054600181600116156101000203166002900480601f016020809104026020016040519081016040528092919081815260200182805460018160011615610100020316600290048015610aff5780601f10610ad457610100808354040283529160200191610aff565b820191906000526020600020905b815481529060010190602001808311610ae257829003601f168201915b505050505081526020019060010190610a57565b50505050905090565b806004836040518082805190602001908083835b602083101515610b555780518252602082019150602081019050602083039250610b30565b6001836020036101000a03801982511681845116808217855250505050505090500191505090815260200160405180910390209080519060200190610b9b9291906118f6565b506005829080600181540180825580915050906001820390600052602060002001600090919290919091509080519060200190610bd99291906118f6565b50505050565b610cb888888080601f016020809104026020016040519081016040528093929190818152602001838380828437600081840152601f19601f8201169050808301925050505050505087878080601f016020809104026020016040519081016040528093929190818152602001838380828437600081840152601f19601f8201169050808301925050505050505086868080601f016020809104026020016040519081016040528093929190818152602001838380828437600081840152601f19601f820116905080830192505050505050508585611805565b6002888890918060018154018082558091505090600182039060005260206000200160009091929390919293909192909192509190610cf8929190611976565b50503073ffffffffffffffffffffffffffffffffffffffff1631600b819055505050505050505050565b6000806000905060008090505b600580549050811015610e20576060600582815481101515610d4d57fe5b906000526020600020018054600181600116156101000203166002900480601f016020809104026020016040519081016040528092919081815260200182805460018160011615610100020316600290048015610deb5780601f10610dc057610100808354040283529160200191610deb565b820191906000526020600020905b815481529060010190602001808311610dce57829003601f168201915b50505050509050848051906020012081805190602001201415610e12576001925050610e20565b508080600101915050610d2f565b506001811415610e34576001915050610e3a565b60009150505b919050565b6000806000905060008090505b600980549050811015610f3d576060600982815481101515610e6a57fe5b906000526020600020018054600181600116156101000203166002900480601f016020809104026020016040519081016040528092919081815260200182805460018160011615610100020316600290048015610f085780601f10610edd57610100808354040283529160200191610f08565b820191906000526020600020905b815481529060010190602001808311610eeb57829003601f168201915b50505050509050848051906020012081805190602001201415610f2f576001925050610f3d565b508080600101915050610e4c565b506001811415610f51576001915050610f57565b60009150505b919050565b610f646119f6565b6001826040518082805190602001908083835b602083101515610f9c5780518252602082019150602081019050602083039250610f77565b6001836020036101000a038019825116818451168082178552505050505050905001915050908152602001604051809103902060806040519081016040529081600082018054600181600116156101000203166002900480601f0160208091040260200160405190810160405280929190818152602001828054600181600116156101000203166002900480156110745780601f1061104957610100808354040283529160200191611074565b820191906000526020600020905b81548152906001019060200180831161105757829003601f168201915b50505050508152602001600182018054600181600116156101000203166002900480601f0160208091040260200160405190810160405280929190818152602001828054600181600116156101000203166002900480156111165780601f106110eb57610100808354040283529160200191611116565b820191906000526020600020905b8154815290600101906020018083116110f957829003601f168201915b50505050508152602001600282015481526020016003820154815250509050919050565b60006007866040518082805190602001908083835b602083101515611174578051825260208201915060208101905060208303925061114f565b6001836020036101000a03801982511681845116808217855250505050505090500191505090815260200160405180910390209050808490806001815401808255809150509060018203906000526020600020016000909192909190915090805190602001906111e59291906118f6565b5050806007876040518082805190602001908083835b60208310151561122057805182526020820191506020810190506020830392506111fb565b6001836020036101000a0380198251168184511680821785525050505050509050019150509081526020016040518091039020908054611261929190611a1f565b50846008856040518082805190602001908083835b60208310151561129b5780518252602082019150602081019050602083039250611276565b6001836020036101000a038019825116818451168082178552505050505050905001915050908152602001604051809103902090805190602001906112e19291906118f6565b5060006003846040518082805190602001908083835b60208310151561131c57805182526020820191506020810190506020830392506112f7565b6001836020036101000a038019825116818451168082178552505050505050905001915050908152602001604051809103902090508085908060018154018082558091505090600182039060005260206000200160009091929091909150908051906020019061138d9291906118f6565b5050806003856040518082805190602001908083835b6020831015156113c857805182526020820191506020810190506020830392506113a3565b6001836020036101000a0380198251168184511680821785525050505050509050019150509081526020016040518091039020908054611409929190611a1f565b5060098590806001815401808255809150509060018203906000526020600020016000909192909190915090805190602001906114479291906118f6565b5050600a83908060018154018082558091505090600182039060005260206000200160009091929091909150555050505050505050565b60006006600081548110151561149057fe5b9060005260206000200160405180828054600181600116156101000203166002900480156114f55780601f106114d35761010080835404028352918201916114f5565b820191906000526020600020905b8154815290600101906020018083116114e1575b50509150506040518091039020838051906020012014801561159e57506006600181548110151561152257fe5b9060005260206000200160405180828054600181600116156101000203166002900480156115875780601f10611565576101008083540402835291820191611587565b820191906000526020600020905b815481529060010190602001808311611573575b505091505060405180910390208280519060200120145b156115ac57600190506115b1565b600090505b92915050565b60606002805480602002602001604051908101604052809291908181526020016000905b82821015611697578382906000526020600020018054600181600116156101000203166002900480601f0160208091040260200160405190810160405280929190818152602001828054600181600116156101000203166002900480156116835780601f1061165857610100808354040283529160200191611683565b820191906000526020600020905b81548152906001019060200180831161166657829003601f168201915b5050505050815260200190600101906115db565b50505050905090565b60606008826040518082805190602001908083835b6020831015156116da57805182526020820191506020810190506020830392506116b5565b6001836020036101000a03801982511681845116808217855250505050505090500191505090815260200160405180910390208054600181600116156101000203166002900480601f0160208091040260200160405190810160405280929190818152602001828054600181600116156101000203166002900480156117a15780601f10611776576101008083540402835291602001916117a1565b820191906000526020600020905b81548152906001019060200180831161178457829003601f168201915b50505050509050919050565b6060600a8054806020026020016040519081016040528092919081815260200182805480156117fb57602002820191906000526020600020905b8154815260200190600101908083116117e7575b5050505050905090565b61180d6119f6565b608060405190810160405280868152602001858152602001848152602001838152509050806001876040518082805190602001908083835b60208310151561186a5780518252602082019150602081019050602083039250611845565b6001836020036101000a038019825116818451168082178552505050505050905001915050908152602001604051809103902060008201518160000190805190602001906118b9929190611a8f565b5060208201518160010190805190602001906118d6929190611a8f565b506040820151816002015560608201518160030155905050505050505050565b828054600181600116156101000203166002900490600052602060002090601f016020900481019282601f1061193757805160ff1916838001178555611965565b82800160010185558215611965579182015b82811115611964578251825591602001919060010190611949565b5b5090506119729190611b0f565b5090565b828054600181600116156101000203166002900490600052602060002090601f016020900481019282601f106119b757803560ff19168380011785556119e5565b828001600101855582156119e5579182015b828111156119e45782358255916020019190600101906119c9565b5b5090506119f29190611b0f565b5090565b608060405190810160405280606081526020016060815260200160008152602001600081525090565b828054828255906000526020600020908101928215611a7e5760005260206000209182015b82811115611a7d5782829080546001816001161561010002031660029004611a6d929190611b34565b5091600101919060010190611a44565b5b509050611a8b9190611bbb565b5090565b828054600181600116156101000203166002900490600052602060002090601f016020900481019282601f10611ad057805160ff1916838001178555611afe565b82800160010185558215611afe579182015b82811115611afd578251825591602001919060010190611ae2565b5b509050611b0b9190611b0f565b5090565b611b3191905b80821115611b2d576000816000905550600101611b15565b5090565b90565b828054600181600116156101000203166002900490600052602060002090601f016020900481019282601f10611b6d5780548555611baa565b82800160010185558215611baa57600052602060002091601f016020900482015b82811115611ba9578254825591600101919060010190611b8e565b5b509050611bb79190611b0f565b5090565b611be491905b80821115611be05760008181611bd79190611be7565b50600101611bc1565b5090565b90565b50805460018160011615610100020316600290046000825580601f10611c0d5750611c2c565b601f016020900490600052602060002090810190611c2b9190611b0f565b5b50565b60008083601f8401121515611c4357600080fd5b8235905067ffffffffffffffff811115611c5c57600080fd5b602083019150836001820283011115611c7457600080fd5b9250929050565b600082601f8301121515611c8e57600080fd5b8135611ca1611c9c826121dd565b6121b0565b91508082526020830160208301858383011115611cbd57600080fd5b611cc8838284612289565b50505092915050565b6000611cdd823561227f565b905092915050565b60008060008060008060008060a0898b031215611d0157600080fd5b600089013567ffffffffffffffff811115611d1b57600080fd5b611d278b828c01611c2f565b9850985050602089013567ffffffffffffffff811115611d4657600080fd5b611d528b828c01611c2f565b9650965050604089013567ffffffffffffffff811115611d7157600080fd5b611d7d8b828c01611c2f565b94509450506060611d908b828c01611cd1565b9250506080611da18b828c01611cd1565b9150509295985092959890939650565b600060208284031215611dc357600080fd5b600082013567ffffffffffffffff811115611ddd57600080fd5b611de984828501611c7b565b91505092915050565b60008060408385031215611e0557600080fd5b600083013567ffffffffffffffff811115611e1f57600080fd5b611e2b85828601611c7b565b925050602083013567ffffffffffffffff811115611e4857600080fd5b611e5485828601611c7b565b9150509250929050565b600080600080600060a08688031215611e7657600080fd5b600086013567ffffffffffffffff811115611e9057600080fd5b611e9c88828901611c7b565b955050602086013567ffffffffffffffff811115611eb957600080fd5b611ec588828901611c7b565b945050604086013567ffffffffffffffff811115611ee257600080fd5b611eee88828901611c7b565b935050606086013567ffffffffffffffff811115611f0b57600080fd5b611f1788828901611c7b565b9250506080611f2888828901611cd1565b9150509295509295909350565b6000611f4082612223565b80845260208401935083602082028501611f5985612209565b60005b84811015611f92578383038852611f74838351612043565b9250611f7f8261224f565b9150602088019750600181019050611f5c565b508196508694505050505092915050565b6000611fae8261222e565b808452602084019350611fc083612216565b60005b82811015611ff257611fd68683516120e3565b611fdf8261225c565b9150602086019550600181019050611fc3565b50849250505092915050565b61200781612269565b82525050565b600061201882612244565b80845261202c816020860160208601612298565b612035816122cb565b602085010191505092915050565b600061204e82612239565b808452612062816020860160208601612298565b61206b816122cb565b602085010191505092915050565b600060808301600083015184820360008601526120968282612043565b915050602083015184820360208601526120b08282612043565b91505060408301516120c560408601826120e3565b5060608301516120d860608601826120e3565b508091505092915050565b6120ec81612275565b82525050565b6000602082019050818103600083015261210c8184611f35565b905092915050565b6000602082019050818103600083015261212e8184611fa3565b905092915050565b600060208201905061214b6000830184611ffe565b92915050565b6000602082019050818103600083015261216b818461200d565b905092915050565b6000602082019050818103600083015261218d8184612079565b905092915050565b60006020820190506121aa60008301846120e3565b92915050565b6000604051905081810181811067ffffffffffffffff821117156121d357600080fd5b8060405250919050565b600067ffffffffffffffff8211156121f457600080fd5b601f19601f8301169050602081019050919050565b6000602082019050919050565b6000602082019050919050565b600081519050919050565b600081519050919050565b600081519050919050565b600081519050919050565b6000602082019050919050565b6000602082019050919050565b60008115159050919050565b6000819050919050565b6000819050919050565b82818337600083830152505050565b60005b838110156122b657808201518184015260208101905061229b565b838111156122c5576000848401525b50505050565b6000601f19601f830116905091905056fea265627a7a7230582060b456b698ab50aad2824dcb1ee692ca2a9ff2450a5f1efc8749c9991f1f3da76c6578706572696d656e74616cf50037",
  "source": "// SPDX-License-Identifier: MIT\npragma solidity >=0.5.0;\npragma experimental ABIEncoderV2;\n\ncontract Scm {\n    \n  address payable governingAuthority;\n\n  constructor() public {\n    address owner = msg.sender;\n    governingAuthority = address(uint160(owner));\n  }\n\n  struct agroFarmerContract {\n    string agroPublicKey;\n    string farmerPublicKey;\n    uint256 agroKey;\n    uint256 farmerKey;\n  }\n\n  // agro-Farmer contract mappings\n  mapping (string => agroFarmerContract) agroFarmer;\n  string[] keyValueArray = [\"dummy\"];\n  mapping (string => string[]) cropContract;\n    \n  // User data storage attributes\n  mapping(string => string) signup;\n  string[] usernames_signup = [\"0x743a264D199d1133c3D3Eac18B91BB8E568b09Ea-admin\"];\n  string[] AdminDetails = [\"0x743a264D199d1133c3D3Eac18B91BB8E568b09Ea-admin\",\"Pass123@\"];\n  \n  \n  // Crop data storage attributes\n  mapping(string => string[]) farmer_crops;\n  mapping(string => string) cropInfo;\n  string[] allCropId = [\"a\"];\n  uint256[] usedKeys = [1];\n  \n  \n  // Ether stored in contract address\n  uint256 public contractBalance;\n  \n  \n  // attribute to map farmer to his security deposit\n  mapping(address => uint256) securityDeposit;\n  \n  // set and get functions for agroFarmer\n  function setAgroFarmer(string memory keyValue, string memory agroPublicKey, string memory farmerPublicKey, uint256 agroKey,uint256 farmerKey\n  ) internal {\n    agroFarmerContract memory contractObj =  agroFarmerContract(agroPublicKey, farmerPublicKey, agroKey, farmerKey);\n    agroFarmer[keyValue] = contractObj;\n  }\n\n  function getAgroFarmer(string memory keyValue) public view returns (agroFarmerContract memory) {\n    return agroFarmer[keyValue];\n  }\n\n  // agro farmer money transfer to contract\n  function bookFarmerAgroContract (string calldata keyValue, string calldata agroPublicKey, string calldata farmerPublicKey, uint256 agroKey,uint256 farmerKey) external payable {\n      setAgroFarmer(keyValue, agroPublicKey, farmerPublicKey, agroKey, farmerKey);\n      keyValueArray.push(keyValue);\n      contractBalance=address(this).balance;\n  }\n  function getAllKeyValue() public view returns(string[] memory){\n      return keyValueArray;\n  }\n\n  // get contractBalance\n  function getContractBalance() public view returns (uint256) {\n      return contractBalance;\n  }\n\n  // Getter and setters for securityDeposit\n  function setSecurityDeposit () external payable {\n      securityDeposit[msg.sender] = securityDeposit[msg.sender] + msg.value;\n      contractBalance=address(this).balance;\n  }\n  function getSecurityDeposit () public view returns (uint256){\n      return securityDeposit[msg.sender];\n  }\n  \n  // function checking for Admin login\n  function validateAdmindetails(string memory pub_key, string memory pass) public view returns (bool) {\n      if(keccak256(bytes(pub_key)) == keccak256(bytes(AdminDetails[0])) && keccak256(bytes(pass))==keccak256(bytes(AdminDetails[1]))){\n          return true; \n      }\n      return false;\n  }\n  \n  \n  // setters and getters for Farmer's crops, by different parameters\n  function setFarmerCrops(string memory pub_key, string memory crop_hash, string memory crop_id, string memory agro_key, uint256 keyPhrase) public {\n      string[] storage cropArray = farmer_crops[pub_key];\n      cropArray.push(crop_id);\n      farmer_crops[pub_key] = cropArray;\n      \n      cropInfo[crop_id] = crop_hash;\n\n      string[] storage cropIds = cropContract[agro_key];\n      cropIds.push(crop_id);\n      cropContract[agro_key] = cropIds;\n      \n      allCropId.push(crop_id);\n      usedKeys.push(keyPhrase);\n  }\n  function getFarmerCrops(string memory pub_key) public view returns(string[] memory){\n      return farmer_crops[pub_key];\n  }\n  function getCropByCropId(string memory crop_id) public view returns(string memory){\n      return cropInfo[crop_id];\n  }\n  function getAllCropId() public view returns(string[] memory){\n      return allCropId;\n  }\n  function getAgroCrops(string memory pub_key) public view returns(string[] memory){\n      return cropContract[pub_key];\n  }\n  function getAllUsedKeys() public view returns(uint256[] memory){\n      return usedKeys;\n  }\n  \n  \n  // getters and setters for user registration\n  function set_signup(string memory pub_key, string memory signup_hash) public {\n    signup[pub_key] = signup_hash;\n    usernames_signup.push(pub_key);\n  }\n  function get_signup(string memory pub_key) public view returns (string memory) {\n    return signup[pub_key];\n  }\n  function get_usernames() public view returns (string[] memory) {\n    return usernames_signup;\n  }\n  \n  // functions checking for matching Id's\n  function match_cropId(string memory crop_id) public view returns (bool){\n    uint256 flag = 0;\n    for(uint i=0; i< allCropId.length; i++){\n      string memory x = allCropId[i];\n      if (keccak256(bytes(x)) == keccak256(bytes(crop_id))) {\n        flag=1;\n        break;\n      }\n    }\n    if (flag == 1) {\n        return true;\n    }\n    return false;\n  }\n  function match_usernames(string memory pub_key) public view returns (bool){\n    uint256 flag = 0;\n    for(uint i=0; i< usernames_signup.length; i++){\n      string memory x = usernames_signup[i];\n      if (keccak256(bytes(x)) == keccak256(bytes(pub_key))) {\n        flag=1;\n        break;\n      }\n    }\n    if (flag == 1) {\n        return true;\n    }\n    return false;\n  }\n}",
  "sourcePath": "/home/nikhil/Desktop/scm_project/src/contracts/scm.sol",
  "compiler": {
    "name": "solc",
    "version": "0.5.0+commit.1d4f565a.Emscripten.clang"
  },
  "schemaVersion": "3.0.2",
  "updatedAt": "2021-04-03T13:07:23.569Z",
  "devdoc": {
    "methods": {}
  },
  "userdoc": {
    "methods": {}
  }
}