{
  "contractName": "Scm",
  "abi": [
    {
      "constant": false,
      "inputs": [
        {
          "name": "pub_key",
          "type": "string"
        },
        {
          "name": "signup_hash",
          "type": "string"
        }
      ],
      "name": "set_signup",
      "outputs": [],
      "payable": false,
      "stateMutability": "nonpayable",
      "type": "function",
      "signature": "0x9a80f157"
    },
    {
      "constant": true,
      "inputs": [
        {
          "name": "pub_key",
          "type": "string"
        }
      ],
      "name": "get_signup",
      "outputs": [
        {
          "name": "",
          "type": "string"
        }
      ],
      "payable": false,
      "stateMutability": "view",
      "type": "function",
      "signature": "0x19cec54b"
    },
    {
      "constant": true,
      "inputs": [],
      "name": "get_usernames",
      "outputs": [
        {
          "name": "",
          "type": "string[]"
        }
      ],
      "payable": false,
      "stateMutability": "view",
      "type": "function",
      "signature": "0x0da1b264"
    },
    {
      "constant": true,
      "inputs": [
        {
          "name": "pub_key",
          "type": "string"
        }
      ],
      "name": "match_usernames",
      "outputs": [
        {
          "name": "",
          "type": "bool"
        }
      ],
      "payable": false,
      "stateMutability": "view",
      "type": "function",
      "signature": "0xabf3e364"
    }
  ],
  "bytecode": "0x60806040526020604051908101604052806040805190810160405280600a81526020017f626861726174683132330000000000000000000000000000000000000000000081525081525060019060016200005b92919062000070565b503480156200006957600080fd5b5062000203565b828054828255906000526020600020908101928215620000c4579160200282015b82811115620000c3578251829080519060200190620000b2929190620000d7565b509160200191906001019062000091565b5b509050620000d391906200015e565b5090565b828054600181600116156101000203166002900490600052602060002090601f016020900481019282601f106200011a57805160ff19168380011785556200014b565b828001600101855582156200014b579182015b828111156200014a5782518255916020019190600101906200012d565b5b5090506200015a91906200018f565b5090565b6200018c91905b808211156200018857600081816200017e9190620001b7565b5060010162000165565b5090565b90565b620001b491905b80821115620001b057600081600090555060010162000196565b5090565b90565b50805460018160011615610100020316600290046000825580601f10620001df575062000200565b601f016020900490600052602060002090810190620001ff91906200018f565b5b50565b61092880620002136000396000f3fe608060405260043610610062576000357c0100000000000000000000000000000000000000000000000000000000900463ffffffff1680630da1b2641461006757806319cec54b146100925780639a80f157146100cf578063abf3e364146100f8575b600080fd5b34801561007357600080fd5b5061007c610135565b604051610089919061079c565b60405180910390f35b34801561009e57600080fd5b506100b960048036036100b49190810190610606565b61021e565b6040516100c691906107d9565b60405180910390f35b3480156100db57600080fd5b506100f660048036036100f19190810190610647565b61032b565b005b34801561010457600080fd5b5061011f600480360361011a9190810190610606565b6103ee565b60405161012c91906107be565b60405180910390f35b60606001805480602002602001604051908101604052809291908181526020016000905b82821015610215578382906000526020600020018054600181600116156101000203166002900480601f0160208091040260200160405190810160405280929190818152602001828054600181600116156101000203166002900480156102015780601f106101d657610100808354040283529160200191610201565b820191906000526020600020905b8154815290600101906020018083116101e457829003601f168201915b505050505081526020019060010190610159565b50505050905090565b60606000826040518082805190602001908083835b6020831015156102585780518252602082019150602081019050602083039250610233565b6001836020036101000a03801982511681845116808217855250505050505090500191505090815260200160405180910390208054600181600116156101000203166002900480601f01602080910402602001604051908101604052809291908181526020018280546001816001161561010002031660029004801561031f5780601f106102f45761010080835404028352916020019161031f565b820191906000526020600020905b81548152906001019060200180831161030257829003601f168201915b50505050509050919050565b806000836040518082805190602001908083835b602083101515610364578051825260208201915060208101905060208303925061033f565b6001836020036101000a038019825116818451168082178552505050505050905001915050908152602001604051809103902090805190602001906103aa92919061050b565b5060018290806001815401808255809150509060018203906000526020600020016000909192909190915090805190602001906103e892919061050b565b50505050565b6000806000905060008090505b6001805490508110156104ec57606060018281548110151561041957fe5b906000526020600020018054600181600116156101000203166002900480601f0160208091040260200160405190810160405280929190818152602001828054600181600116156101000203166002900480156104b75780601f1061048c576101008083540402835291602001916104b7565b820191906000526020600020905b81548152906001019060200180831161049a57829003601f168201915b505050505090508480519060200120818051906020012014156104de5760019250506104ec565b5080806001019150506103fb565b506001811415610500576001915050610506565b60009150505b919050565b828054600181600116156101000203166002900490600052602060002090601f016020900481019282601f1061054c57805160ff191683800117855561057a565b8280016001018555821561057a579182015b8281111561057957825182559160200191906001019061055e565b5b509050610587919061058b565b5090565b6105ad91905b808211156105a9576000816000905550600101610591565b5090565b90565b600082601f83011215156105c357600080fd5b81356105d66105d182610828565b6107fb565b915080825260208301602083018583830111156105f257600080fd5b6105fd83828461089b565b50505092915050565b60006020828403121561061857600080fd5b600082013567ffffffffffffffff81111561063257600080fd5b61063e848285016105b0565b91505092915050565b6000806040838503121561065a57600080fd5b600083013567ffffffffffffffff81111561067457600080fd5b610680858286016105b0565b925050602083013567ffffffffffffffff81111561069d57600080fd5b6106a9858286016105b0565b9150509250929050565b60006106be82610861565b808452602084019350836020820285016106d785610854565b60005b848110156107105783830388526106f2838351610766565b92506106fd82610882565b91506020880197506001810190506106da565b508196508694505050505092915050565b61072a8161088f565b82525050565b600061073b82610877565b80845261074f8160208601602086016108aa565b610758816108dd565b602085010191505092915050565b60006107718261086c565b8084526107858160208601602086016108aa565b61078e816108dd565b602085010191505092915050565b600060208201905081810360008301526107b681846106b3565b905092915050565b60006020820190506107d36000830184610721565b92915050565b600060208201905081810360008301526107f38184610730565b905092915050565b6000604051905081810181811067ffffffffffffffff8211171561081e57600080fd5b8060405250919050565b600067ffffffffffffffff82111561083f57600080fd5b601f19601f8301169050602081019050919050565b6000602082019050919050565b600081519050919050565b600081519050919050565b600081519050919050565b6000602082019050919050565b60008115159050919050565b82818337600083830152505050565b60005b838110156108c85780820151818401526020810190506108ad565b838111156108d7576000848401525b50505050565b6000601f19601f830116905091905056fea265627a7a72305820482b80afa962c0aecb4c0f460cf7ac596095a27e16c7fcd8f1b30019fb4b2f1e6c6578706572696d656e74616cf50037",
  "source": "pragma solidity ^0.5.0;\npragma experimental ABIEncoderV2;\n\ncontract Scm {\n  mapping(string => string) signup;\n  string[] usernames_signup = [\"bharath123\"];\n\n  function set_signup(string memory pub_key, string memory signup_hash) public {\n    signup[pub_key] = signup_hash;\n    usernames_signup.push(pub_key);\n  }\n\n  function get_signup(string memory pub_key) public view returns (string memory) {\n    return signup[pub_key];\n  }\n  \n  function get_usernames() public view returns (string[] memory) {\n    return usernames_signup;\n  }\n\n  function match_usernames(string memory pub_key) public view returns (bool){\n    uint256 flag = 0;\n    for(uint i=0; i< usernames_signup.length; i++){\n      string memory x = usernames_signup[i];\n      if (keccak256(bytes(x)) == keccak256(bytes(pub_key))) {\n        flag=1;\n        break;\n      }\n    }\n    if (flag == 1) {\n        return true;\n    }\n    return false;\n  }\n  \n}",
  "sourcePath": "/home/nikhil/Desktop/scm_project/src/contracts/scm.sol",
  "compiler": {
    "name": "solc",
    "version": "0.5.0+commit.1d4f565a.Emscripten.clang"
  },
  "schemaVersion": "3.0.2",
  "updatedAt": "2021-03-15T06:17:25.759Z",
  "devdoc": {
    "methods": {}
  },
  "userdoc": {
    "methods": {}
  }
}