{
  "contractName": "Scm",
  "abi": [
    {
      "constant": true,
      "inputs": [],
      "name": "contractBalance",
      "outputs": [
        {
          "name": "",
          "type": "uint256"
        }
      ],
      "payable": false,
      "stateMutability": "view",
      "type": "function",
      "signature": "0x8b7afe2e"
    },
    {
      "inputs": [],
      "payable": false,
      "stateMutability": "nonpayable",
      "type": "constructor",
      "signature": "constructor"
    },
    {
      "constant": true,
      "inputs": [
        {
          "name": "keyValue",
          "type": "string"
        }
      ],
      "name": "getAgroFarmer",
      "outputs": [
        {
          "components": [
            {
              "name": "agroPublicKey",
              "type": "string"
            },
            {
              "name": "farmerPublicKey",
              "type": "string"
            },
            {
              "name": "agroKey",
              "type": "uint256"
            },
            {
              "name": "farmerKey",
              "type": "uint256"
            }
          ],
          "name": "",
          "type": "tuple"
        }
      ],
      "payable": false,
      "stateMutability": "view",
      "type": "function",
      "signature": "0xb44790fc"
    },
    {
      "constant": false,
      "inputs": [
        {
          "name": "keyValue",
          "type": "string"
        },
        {
          "name": "agroPublicKey",
          "type": "string"
        },
        {
          "name": "farmerPublicKey",
          "type": "string"
        },
        {
          "name": "agroKey",
          "type": "uint256"
        },
        {
          "name": "farmerKey",
          "type": "uint256"
        }
      ],
      "name": "bookFarmerAgroContract",
      "outputs": [],
      "payable": true,
      "stateMutability": "payable",
      "type": "function",
      "signature": "0x9aaba1bf"
    },
    {
      "constant": true,
      "inputs": [],
      "name": "getAllKeyValue",
      "outputs": [
        {
          "name": "",
          "type": "string[]"
        }
      ],
      "payable": false,
      "stateMutability": "view",
      "type": "function",
      "signature": "0xeb279439"
    },
    {
      "constant": true,
      "inputs": [],
      "name": "getContractBalance",
      "outputs": [
        {
          "name": "",
          "type": "uint256"
        }
      ],
      "payable": false,
      "stateMutability": "view",
      "type": "function",
      "signature": "0x6f9fb98a"
    },
    {
      "constant": false,
      "inputs": [],
      "name": "setSecurityDeposit",
      "outputs": [],
      "payable": true,
      "stateMutability": "payable",
      "type": "function",
      "signature": "0x4a600edc"
    },
    {
      "constant": true,
      "inputs": [],
      "name": "getSecurityDeposit",
      "outputs": [
        {
          "name": "",
          "type": "uint256"
        }
      ],
      "payable": false,
      "stateMutability": "view",
      "type": "function",
      "signature": "0x64a40642"
    },
    {
      "constant": true,
      "inputs": [
        {
          "name": "pub_key",
          "type": "string"
        },
        {
          "name": "pass",
          "type": "string"
        }
      ],
      "name": "validateAdmindetails",
      "outputs": [
        {
          "name": "",
          "type": "bool"
        }
      ],
      "payable": false,
      "stateMutability": "view",
      "type": "function",
      "signature": "0xe32c1903"
    },
    {
      "constant": false,
      "inputs": [
        {
          "name": "pub_key",
          "type": "string"
        },
        {
          "name": "crop_hash",
          "type": "string"
        },
        {
          "name": "crop_id",
          "type": "string"
        },
        {
          "name": "agro_key",
          "type": "string"
        },
        {
          "name": "keyPhrase",
          "type": "uint256"
        }
      ],
      "name": "setFarmerCrops",
      "outputs": [],
      "payable": false,
      "stateMutability": "nonpayable",
      "type": "function",
      "signature": "0xd3d40f09"
    },
    {
      "constant": true,
      "inputs": [
        {
          "name": "pub_key",
          "type": "string"
        }
      ],
      "name": "getFarmerCrops",
      "outputs": [
        {
          "name": "",
          "type": "string[]"
        }
      ],
      "payable": false,
      "stateMutability": "view",
      "type": "function",
      "signature": "0x69b42dc1"
    },
    {
      "constant": true,
      "inputs": [
        {
          "name": "crop_id",
          "type": "string"
        }
      ],
      "name": "getCropByCropId",
      "outputs": [
        {
          "name": "",
          "type": "string"
        }
      ],
      "payable": false,
      "stateMutability": "view",
      "type": "function",
      "signature": "0xedbced3d"
    },
    {
      "constant": true,
      "inputs": [],
      "name": "getAllCropId",
      "outputs": [
        {
          "name": "",
          "type": "string[]"
        }
      ],
      "payable": false,
      "stateMutability": "view",
      "type": "function",
      "signature": "0x990d0ee1"
    },
    {
      "constant": true,
      "inputs": [
        {
          "name": "pub_key",
          "type": "string"
        }
      ],
      "name": "getAgroCrops",
      "outputs": [
        {
          "name": "",
          "type": "string[]"
        }
      ],
      "payable": false,
      "stateMutability": "view",
      "type": "function",
      "signature": "0x54094b53"
    },
    {
      "constant": true,
      "inputs": [],
      "name": "getAllUsedKeys",
      "outputs": [
        {
          "name": "",
          "type": "uint256[]"
        }
      ],
      "payable": false,
      "stateMutability": "view",
      "type": "function",
      "signature": "0xf0691918"
    },
    {
      "constant": false,
      "inputs": [
        {
          "name": "crop_id",
          "type": "string"
        },
        {
          "name": "hash",
          "type": "string"
        }
      ],
      "name": "setCropRatings",
      "outputs": [],
      "payable": false,
      "stateMutability": "nonpayable",
      "type": "function",
      "signature": "0x1a3123b2"
    },
    {
      "constant": true,
      "inputs": [
        {
          "name": "crop_id",
          "type": "string"
        }
      ],
      "name": "getCropRatings",
      "outputs": [
        {
          "name": "",
          "type": "string[]"
        }
      ],
      "payable": false,
      "stateMutability": "view",
      "type": "function",
      "signature": "0x2b1227a1"
    },
    {
      "constant": false,
      "inputs": [
        {
          "name": "pub_key",
          "type": "string"
        },
        {
          "name": "signup_hash",
          "type": "string"
        }
      ],
      "name": "set_signup",
      "outputs": [],
      "payable": false,
      "stateMutability": "nonpayable",
      "type": "function",
      "signature": "0x9a80f157"
    },
    {
      "constant": true,
      "inputs": [
        {
          "name": "pub_key",
          "type": "string"
        }
      ],
      "name": "get_signup",
      "outputs": [
        {
          "name": "",
          "type": "string"
        }
      ],
      "payable": false,
      "stateMutability": "view",
      "type": "function",
      "signature": "0x19cec54b"
    },
    {
      "constant": true,
      "inputs": [],
      "name": "get_usernames",
      "outputs": [
        {
          "name": "",
          "type": "string[]"
        }
      ],
      "payable": false,
      "stateMutability": "view",
      "type": "function",
      "signature": "0x0da1b264"
    },
    {
      "constant": true,
      "inputs": [
        {
          "name": "crop_id",
          "type": "string"
        }
      ],
      "name": "match_cropId",
      "outputs": [
        {
          "name": "",
          "type": "bool"
        }
      ],
      "payable": false,
      "stateMutability": "view",
      "type": "function",
      "signature": "0xb228fc0f"
    },
    {
      "constant": true,
      "inputs": [
        {
          "name": "pub_key",
          "type": "string"
        }
      ],
      "name": "match_usernames",
      "outputs": [
        {
          "name": "",
          "type": "bool"
        }
      ],
      "payable": false,
      "stateMutability": "view",
      "type": "function",
      "signature": "0xabf3e364"
    }
  ],
  "bytecode": "0x60806040526020604051908101604052806040805190810160405280600581526020017f64756d6d7900000000000000000000000000000000000000000000000000000081525081525060029060016200005b9291906200026d565b50602060405190810160405280606060405190810160405280603081526020017f307837343361323634443139396431313333633344334561633138423931424281526020017f384535363862303945612d61646d696e000000000000000000000000000000008152508152506005906001620000da9291906200026d565b506040805190810160405280606060405190810160405280603081526020017f307837343361323634443139396431313333633344334561633138423931424281526020017f384535363862303945612d61646d696e0000000000000000000000000000000081525081526020016040805190810160405280600881526020017f5061737331323340000000000000000000000000000000000000000000000000815250815250600690600262000193929190620002d4565b506020604051908101604052806040805190810160405280600181526020017f61000000000000000000000000000000000000000000000000000000000000008152508152506009906001620001eb9291906200026d565b50602060405190810160405280600160ff16815250600a906001620002129291906200033b565b503480156200022057600080fd5b506000339050806000806101000a81548173ffffffffffffffffffffffffffffffffffffffff021916908373ffffffffffffffffffffffffffffffffffffffff16021790555050620004be565b828054828255906000526020600020908101928215620002c1579160200282015b82811115620002c0578251829080519060200190620002af92919062000392565b50916020019190600101906200028e565b5b509050620002d0919062000419565b5090565b82805482825590600052602060002090810192821562000328579160200282015b82811115620003275782518290805190602001906200031692919062000392565b5091602001919060010190620002f5565b5b50905062000337919062000419565b5090565b8280548282559060005260206000209081019282156200037f579160200282015b828111156200037e578251829060ff169055916020019190600101906200035c565b5b5090506200038e91906200044a565b5090565b828054600181600116156101000203166002900490600052602060002090601f016020900481019282601f10620003d557805160ff191683800117855562000406565b8280016001018555821562000406579182015b8281111562000405578251825591602001919060010190620003e8565b5b5090506200041591906200044a565b5090565b6200044791905b8082111562000443576000818162000439919062000472565b5060010162000420565b5090565b90565b6200046f91905b808211156200046b57600081600090555060010162000451565b5090565b90565b50805460018160011615610100020316600290046000825580601f106200049a5750620004bb565b601f016020900490600052602060002090810190620004ba91906200044a565b5b50565b61259280620004ce6000396000f3fe60806040526004361061011d576000357c0100000000000000000000000000000000000000000000000000000000900463ffffffff1680630da1b2641461012257806319cec54b1461014d5780631a3123b21461018a5780632b1227a1146101b35780634a600edc146101f057806354094b53146101fa57806364a406421461023757806369b42dc1146102625780636f9fb98a1461029f5780638b7afe2e146102ca578063990d0ee1146102f55780639a80f157146103205780639aaba1bf14610349578063abf3e36414610365578063b228fc0f146103a2578063b44790fc146103df578063d3d40f091461041c578063e32c190314610445578063eb27943914610482578063edbced3d146104ad578063f0691918146104ea575b600080fd5b34801561012e57600080fd5b50610137610515565b604051610144919061236e565b60405180910390f35b34801561015957600080fd5b50610174600480360361016f919081019061202d565b6105fe565b60405161018191906123cd565b60405180910390f35b34801561019657600080fd5b506101b160048036036101ac919081019061206e565b61070b565b005b3480156101bf57600080fd5b506101da60048036036101d5919081019061202d565b6107b7565b6040516101e7919061236e565b60405180910390f35b6101f861090b565b005b34801561020657600080fd5b50610221600480360361021c919081019061202d565b6109b0565b60405161022e919061236e565b60405180910390f35b34801561024357600080fd5b5061024c610b04565b6040516102599190612411565b60405180910390f35b34801561026e57600080fd5b506102896004803603610284919081019061202d565b610b4b565b604051610296919061236e565b60405180910390f35b3480156102ab57600080fd5b506102b4610c9f565b6040516102c19190612411565b60405180910390f35b3480156102d657600080fd5b506102df610ca9565b6040516102ec9190612411565b60405180910390f35b34801561030157600080fd5b5061030a610caf565b604051610317919061236e565b60405180910390f35b34801561032c57600080fd5b506103476004803603610342919081019061206e565b610d98565b005b610363600480360361035e9190810190611f61565b610e5b565b005b34801561037157600080fd5b5061038c6004803603610387919081019061202d565b610f9e565b60405161039991906123b2565b60405180910390f35b3480156103ae57600080fd5b506103c960048036036103c4919081019061202d565b6110bb565b6040516103d691906123b2565b60405180910390f35b3480156103eb57600080fd5b506104066004803603610401919081019061202d565b6111d8565b60405161041391906123ef565b60405180910390f35b34801561042857600080fd5b50610443600480360361043e91908101906120da565b6113b6565b005b34801561045157600080fd5b5061046c6004803603610467919081019061206e565b6116fa565b60405161047991906123b2565b60405180910390f35b34801561048e57600080fd5b50610497611833565b6040516104a4919061236e565b60405180910390f35b3480156104b957600080fd5b506104d460048036036104cf919081019061202d565b61191c565b6040516104e191906123cd565b60405180910390f35b3480156104f657600080fd5b506104ff611a29565b60405161050c9190612390565b60405180910390f35b60606005805480602002602001604051908101604052809291908181526020016000905b828210156105f5578382906000526020600020018054600181600116156101000203166002900480601f0160208091040260200160405190810160405280929190818152602001828054600181600116156101000203166002900480156105e15780601f106105b6576101008083540402835291602001916105e1565b820191906000526020600020905b8154815290600101906020018083116105c457829003601f168201915b505050505081526020019060010190610539565b50505050905090565b60606004826040518082805190602001908083835b6020831015156106385780518252602082019150602081019050602083039250610613565b6001836020036101000a03801982511681845116808217855250505050505090500191505090815260200160405180910390208054600181600116156101000203166002900480601f0160208091040260200160405190810160405280929190818152602001828054600181600116156101000203166002900480156106ff5780601f106106d4576101008083540402835291602001916106ff565b820191906000526020600020905b8154815290600101906020018083116106e257829003601f168201915b50505050509050919050565b600b826040518082805190602001908083835b602083101515610743578051825260208201915060208101905060208303925061071e565b6001836020036101000a03801982511681845116808217855250505050505090500191505090815260200160405180910390208190806001815401808255809150509060018203906000526020600020016000909192909190915090805190602001906107b1929190611b72565b50505050565b6060600b826040518082805190602001908083835b6020831015156107f157805182526020820191506020810190506020830392506107cc565b6001836020036101000a0380198251168184511680821785525050505050509050019150509081526020016040518091039020805480602002602001604051908101604052809291908181526020016000905b82821015610900578382906000526020600020018054600181600116156101000203166002900480601f0160208091040260200160405190810160405280929190818152602001828054600181600116156101000203166002900480156108ec5780601f106108c1576101008083540402835291602001916108ec565b820191906000526020600020905b8154815290600101906020018083116108cf57829003601f168201915b505050505081526020019060010190610844565b505050509050919050565b34600d60003373ffffffffffffffffffffffffffffffffffffffff1673ffffffffffffffffffffffffffffffffffffffff1681526020019081526020016000205401600d60003373ffffffffffffffffffffffffffffffffffffffff1673ffffffffffffffffffffffffffffffffffffffff168152602001908152602001600020819055503073ffffffffffffffffffffffffffffffffffffffff1631600c81905550565b60606003826040518082805190602001908083835b6020831015156109ea57805182526020820191506020810190506020830392506109c5565b6001836020036101000a0380198251168184511680821785525050505050509050019150509081526020016040518091039020805480602002602001604051908101604052809291908181526020016000905b82821015610af9578382906000526020600020018054600181600116156101000203166002900480601f016020809104026020016040519081016040528092919081815260200182805460018160011615610100020316600290048015610ae55780601f10610aba57610100808354040283529160200191610ae5565b820191906000526020600020905b815481529060010190602001808311610ac857829003601f168201915b505050505081526020019060010190610a3d565b505050509050919050565b6000600d60003373ffffffffffffffffffffffffffffffffffffffff1673ffffffffffffffffffffffffffffffffffffffff16815260200190815260200160002054905090565b60606007826040518082805190602001908083835b602083101515610b855780518252602082019150602081019050602083039250610b60565b6001836020036101000a0380198251168184511680821785525050505050509050019150509081526020016040518091039020805480602002602001604051908101604052809291908181526020016000905b82821015610c94578382906000526020600020018054600181600116156101000203166002900480601f016020809104026020016040519081016040528092919081815260200182805460018160011615610100020316600290048015610c805780601f10610c5557610100808354040283529160200191610c80565b820191906000526020600020905b815481529060010190602001808311610c6357829003601f168201915b505050505081526020019060010190610bd8565b505050509050919050565b6000600c54905090565b600c5481565b60606009805480602002602001604051908101604052809291908181526020016000905b82821015610d8f578382906000526020600020018054600181600116156101000203166002900480601f016020809104026020016040519081016040528092919081815260200182805460018160011615610100020316600290048015610d7b5780601f10610d5057610100808354040283529160200191610d7b565b820191906000526020600020905b815481529060010190602001808311610d5e57829003601f168201915b505050505081526020019060010190610cd3565b50505050905090565b806004836040518082805190602001908083835b602083101515610dd15780518252602082019150602081019050602083039250610dac565b6001836020036101000a03801982511681845116808217855250505050505090500191505090815260200160405180910390209080519060200190610e17929190611b72565b506005829080600181540180825580915050906001820390600052602060002001600090919290919091509080519060200190610e55929190611b72565b50505050565b610f3488888080601f016020809104026020016040519081016040528093929190818152602001838380828437600081840152601f19601f8201169050808301925050505050505087878080601f016020809104026020016040519081016040528093929190818152602001838380828437600081840152601f19601f8201169050808301925050505050505086868080601f016020809104026020016040519081016040528093929190818152602001838380828437600081840152601f19601f820116905080830192505050505050508585611a81565b6002888890918060018154018082558091505090600182039060005260206000200160009091929390919293909192909192509190610f74929190611bf2565b50503073ffffffffffffffffffffffffffffffffffffffff1631600c819055505050505050505050565b6000806000905060008090505b60058054905081101561109c576060600582815481101515610fc957fe5b906000526020600020018054600181600116156101000203166002900480601f0160208091040260200160405190810160405280929190818152602001828054600181600116156101000203166002900480156110675780601f1061103c57610100808354040283529160200191611067565b820191906000526020600020905b81548152906001019060200180831161104a57829003601f168201915b5050505050905084805190602001208180519060200120141561108e57600192505061109c565b508080600101915050610fab565b5060018114156110b05760019150506110b6565b60009150505b919050565b6000806000905060008090505b6009805490508110156111b95760606009828154811015156110e657fe5b906000526020600020018054600181600116156101000203166002900480601f0160208091040260200160405190810160405280929190818152602001828054600181600116156101000203166002900480156111845780601f1061115957610100808354040283529160200191611184565b820191906000526020600020905b81548152906001019060200180831161116757829003601f168201915b505050505090508480519060200120818051906020012014156111ab5760019250506111b9565b5080806001019150506110c8565b5060018114156111cd5760019150506111d3565b60009150505b919050565b6111e0611c72565b6001826040518082805190602001908083835b60208310151561121857805182526020820191506020810190506020830392506111f3565b6001836020036101000a038019825116818451168082178552505050505050905001915050908152602001604051809103902060806040519081016040529081600082018054600181600116156101000203166002900480601f0160208091040260200160405190810160405280929190818152602001828054600181600116156101000203166002900480156112f05780601f106112c5576101008083540402835291602001916112f0565b820191906000526020600020905b8154815290600101906020018083116112d357829003601f168201915b50505050508152602001600182018054600181600116156101000203166002900480601f0160208091040260200160405190810160405280929190818152602001828054600181600116156101000203166002900480156113925780601f1061136757610100808354040283529160200191611392565b820191906000526020600020905b81548152906001019060200180831161137557829003601f168201915b50505050508152602001600282015481526020016003820154815250509050919050565b60006007866040518082805190602001908083835b6020831015156113f057805182526020820191506020810190506020830392506113cb565b6001836020036101000a0380198251168184511680821785525050505050509050019150509081526020016040518091039020905080849080600181540180825580915050906001820390600052602060002001600090919290919091509080519060200190611461929190611b72565b5050806007876040518082805190602001908083835b60208310151561149c5780518252602082019150602081019050602083039250611477565b6001836020036101000a03801982511681845116808217855250505050505090500191505090815260200160405180910390209080546114dd929190611c9b565b50846008856040518082805190602001908083835b60208310151561151757805182526020820191506020810190506020830392506114f2565b6001836020036101000a0380198251168184511680821785525050505050509050019150509081526020016040518091039020908051906020019061155d929190611b72565b5060006003846040518082805190602001908083835b6020831015156115985780518252602082019150602081019050602083039250611573565b6001836020036101000a0380198251168184511680821785525050505050509050019150509081526020016040518091039020905080859080600181540180825580915050906001820390600052602060002001600090919290919091509080519060200190611609929190611b72565b5050806003856040518082805190602001908083835b602083101515611644578051825260208201915060208101905060208303925061161f565b6001836020036101000a0380198251168184511680821785525050505050509050019150509081526020016040518091039020908054611685929190611c9b565b5060098590806001815401808255809150509060018203906000526020600020016000909192909190915090805190602001906116c3929190611b72565b5050600a83908060018154018082558091505090600182039060005260206000200160009091929091909150555050505050505050565b60006006600081548110151561170c57fe5b9060005260206000200160405180828054600181600116156101000203166002900480156117715780601f1061174f576101008083540402835291820191611771565b820191906000526020600020905b81548152906001019060200180831161175d575b50509150506040518091039020838051906020012014801561181a57506006600181548110151561179e57fe5b9060005260206000200160405180828054600181600116156101000203166002900480156118035780601f106117e1576101008083540402835291820191611803565b820191906000526020600020905b8154815290600101906020018083116117ef575b505091505060405180910390208280519060200120145b15611828576001905061182d565b600090505b92915050565b60606002805480602002602001604051908101604052809291908181526020016000905b82821015611913578382906000526020600020018054600181600116156101000203166002900480601f0160208091040260200160405190810160405280929190818152602001828054600181600116156101000203166002900480156118ff5780601f106118d4576101008083540402835291602001916118ff565b820191906000526020600020905b8154815290600101906020018083116118e257829003601f168201915b505050505081526020019060010190611857565b50505050905090565b60606008826040518082805190602001908083835b6020831015156119565780518252602082019150602081019050602083039250611931565b6001836020036101000a03801982511681845116808217855250505050505090500191505090815260200160405180910390208054600181600116156101000203166002900480601f016020809104026020016040519081016040528092919081815260200182805460018160011615610100020316600290048015611a1d5780601f106119f257610100808354040283529160200191611a1d565b820191906000526020600020905b815481529060010190602001808311611a0057829003601f168201915b50505050509050919050565b6060600a805480602002602001604051908101604052809291908181526020018280548015611a7757602002820191906000526020600020905b815481526020019060010190808311611a63575b5050505050905090565b611a89611c72565b608060405190810160405280868152602001858152602001848152602001838152509050806001876040518082805190602001908083835b602083101515611ae65780518252602082019150602081019050602083039250611ac1565b6001836020036101000a03801982511681845116808217855250505050505090500191505090815260200160405180910390206000820151816000019080519060200190611b35929190611d0b565b506020820151816001019080519060200190611b52929190611d0b565b506040820151816002015560608201518160030155905050505050505050565b828054600181600116156101000203166002900490600052602060002090601f016020900481019282601f10611bb357805160ff1916838001178555611be1565b82800160010185558215611be1579182015b82811115611be0578251825591602001919060010190611bc5565b5b509050611bee9190611d8b565b5090565b828054600181600116156101000203166002900490600052602060002090601f016020900481019282601f10611c3357803560ff1916838001178555611c61565b82800160010185558215611c61579182015b82811115611c60578235825591602001919060010190611c45565b5b509050611c6e9190611d8b565b5090565b608060405190810160405280606081526020016060815260200160008152602001600081525090565b828054828255906000526020600020908101928215611cfa5760005260206000209182015b82811115611cf95782829080546001816001161561010002031660029004611ce9929190611db0565b5091600101919060010190611cc0565b5b509050611d079190611e37565b5090565b828054600181600116156101000203166002900490600052602060002090601f016020900481019282601f10611d4c57805160ff1916838001178555611d7a565b82800160010185558215611d7a579182015b82811115611d79578251825591602001919060010190611d5e565b5b509050611d879190611d8b565b5090565b611dad91905b80821115611da9576000816000905550600101611d91565b5090565b90565b828054600181600116156101000203166002900490600052602060002090601f016020900481019282601f10611de95780548555611e26565b82800160010185558215611e2657600052602060002091601f016020900482015b82811115611e25578254825591600101919060010190611e0a565b5b509050611e339190611d8b565b5090565b611e6091905b80821115611e5c5760008181611e539190611e63565b50600101611e3d565b5090565b90565b50805460018160011615610100020316600290046000825580601f10611e895750611ea8565b601f016020900490600052602060002090810190611ea79190611d8b565b5b50565b60008083601f8401121515611ebf57600080fd5b8235905067ffffffffffffffff811115611ed857600080fd5b602083019150836001820283011115611ef057600080fd5b9250929050565b600082601f8301121515611f0a57600080fd5b8135611f1d611f1882612459565b61242c565b91508082526020830160208301858383011115611f3957600080fd5b611f44838284612505565b50505092915050565b6000611f5982356124fb565b905092915050565b60008060008060008060008060a0898b031215611f7d57600080fd5b600089013567ffffffffffffffff811115611f9757600080fd5b611fa38b828c01611eab565b9850985050602089013567ffffffffffffffff811115611fc257600080fd5b611fce8b828c01611eab565b9650965050604089013567ffffffffffffffff811115611fed57600080fd5b611ff98b828c01611eab565b9450945050606061200c8b828c01611f4d565b925050608061201d8b828c01611f4d565b9150509295985092959890939650565b60006020828403121561203f57600080fd5b600082013567ffffffffffffffff81111561205957600080fd5b61206584828501611ef7565b91505092915050565b6000806040838503121561208157600080fd5b600083013567ffffffffffffffff81111561209b57600080fd5b6120a785828601611ef7565b925050602083013567ffffffffffffffff8111156120c457600080fd5b6120d085828601611ef7565b9150509250929050565b600080600080600060a086880312156120f257600080fd5b600086013567ffffffffffffffff81111561210c57600080fd5b61211888828901611ef7565b955050602086013567ffffffffffffffff81111561213557600080fd5b61214188828901611ef7565b945050604086013567ffffffffffffffff81111561215e57600080fd5b61216a88828901611ef7565b935050606086013567ffffffffffffffff81111561218757600080fd5b61219388828901611ef7565b92505060806121a488828901611f4d565b9150509295509295909350565b60006121bc8261249f565b808452602084019350836020820285016121d585612485565b60005b8481101561220e5783830388526121f08383516122bf565b92506121fb826124cb565b91506020880197506001810190506121d8565b508196508694505050505092915050565b600061222a826124aa565b80845260208401935061223c83612492565b60005b8281101561226e5761225286835161235f565b61225b826124d8565b915060208601955060018101905061223f565b50849250505092915050565b612283816124e5565b82525050565b6000612294826124c0565b8084526122a8816020860160208601612514565b6122b181612547565b602085010191505092915050565b60006122ca826124b5565b8084526122de816020860160208601612514565b6122e781612547565b602085010191505092915050565b6000608083016000830151848203600086015261231282826122bf565b9150506020830151848203602086015261232c82826122bf565b9150506040830151612341604086018261235f565b506060830151612354606086018261235f565b508091505092915050565b612368816124f1565b82525050565b6000602082019050818103600083015261238881846121b1565b905092915050565b600060208201905081810360008301526123aa818461221f565b905092915050565b60006020820190506123c7600083018461227a565b92915050565b600060208201905081810360008301526123e78184612289565b905092915050565b6000602082019050818103600083015261240981846122f5565b905092915050565b6000602082019050612426600083018461235f565b92915050565b6000604051905081810181811067ffffffffffffffff8211171561244f57600080fd5b8060405250919050565b600067ffffffffffffffff82111561247057600080fd5b601f19601f8301169050602081019050919050565b6000602082019050919050565b6000602082019050919050565b600081519050919050565b600081519050919050565b600081519050919050565b600081519050919050565b6000602082019050919050565b6000602082019050919050565b60008115159050919050565b6000819050919050565b6000819050919050565b82818337600083830152505050565b60005b83811015612532578082015181840152602081019050612517565b83811115612541576000848401525b50505050565b6000601f19601f830116905091905056fea265627a7a7230582087c4f0cad90e1259b48382f77fef7af1417c53ed0cf8c76a3b4d8f04b7b835726c6578706572696d656e74616cf50037",
  "source": "// SPDX-License-Identifier: MIT\npragma solidity >=0.5.0;\npragma experimental ABIEncoderV2;\n\ncontract Scm {\n    \n  address payable governingAuthority;\n\n  constructor() public {\n    address owner = msg.sender;\n    governingAuthority = address(uint160(owner));\n  }\n\n  struct agroFarmerContract {\n    string agroPublicKey;\n    string farmerPublicKey;\n    uint256 agroKey;\n    uint256 farmerKey;\n  }\n\n  // agro-Farmer contract mappings\n  mapping (string => agroFarmerContract) agroFarmer;\n  string[] keyValueArray = [\"dummy\"];\n  mapping (string => string[]) cropContract;\n    \n  // User data storage attributes\n  mapping(string => string) signup;\n  string[] usernames_signup = [\"0x743a264D199d1133c3D3Eac18B91BB8E568b09Ea-admin\"];\n  string[] AdminDetails = [\"0x743a264D199d1133c3D3Eac18B91BB8E568b09Ea-admin\",\"Pass123@\"];\n  \n  \n  // Crop data storage attributes\n  mapping(string => string[]) farmer_crops;\n  mapping(string => string) cropInfo;\n  string[] allCropId = [\"a\"];\n  uint256[] usedKeys = [1];\n\n\n  //crop ratings\n  // cropId to pre,post,harvest array\n  mapping(string => string[]) cropRatings;\n    \n  \n  // Ether stored in contract address\n  uint256 public contractBalance;\n  \n  \n  // attribute to map farmer to his security deposit\n  mapping(address => uint256) securityDeposit;\n  \n  // set and get functions for agroFarmer\n  function setAgroFarmer(string memory keyValue, string memory agroPublicKey, string memory farmerPublicKey, uint256 agroKey,uint256 farmerKey\n  ) internal {\n    agroFarmerContract memory contractObj =  agroFarmerContract(agroPublicKey, farmerPublicKey, agroKey, farmerKey);\n    agroFarmer[keyValue] = contractObj;\n  }\n\n  function getAgroFarmer(string memory keyValue) public view returns (agroFarmerContract memory) {\n    return agroFarmer[keyValue];\n  }\n\n  // agro farmer money transfer to contract\n  function bookFarmerAgroContract (string calldata keyValue, string calldata agroPublicKey, string calldata farmerPublicKey, uint256 agroKey,uint256 farmerKey) external payable {\n      setAgroFarmer(keyValue, agroPublicKey, farmerPublicKey, agroKey, farmerKey);\n      keyValueArray.push(keyValue);\n      contractBalance=address(this).balance;\n  }\n  function getAllKeyValue() public view returns(string[] memory){\n      return keyValueArray;\n  }\n\n  // get contractBalance\n  function getContractBalance() public view returns (uint256) {\n      return contractBalance;\n  }\n\n  // Getter and setters for securityDeposit\n  function setSecurityDeposit () external payable {\n      securityDeposit[msg.sender] = securityDeposit[msg.sender] + msg.value;\n      contractBalance=address(this).balance;\n  }\n  function getSecurityDeposit () public view returns (uint256){\n      return securityDeposit[msg.sender];\n  }\n  \n  // function checking for Admin login\n  function validateAdmindetails(string memory pub_key, string memory pass) public view returns (bool) {\n      if(keccak256(bytes(pub_key)) == keccak256(bytes(AdminDetails[0])) && keccak256(bytes(pass))==keccak256(bytes(AdminDetails[1]))){\n          return true; \n      }\n      return false;\n  }\n  \n  \n  // setters and getters for Farmer's crops, by different parameters\n  function setFarmerCrops(string memory pub_key, string memory crop_hash, string memory crop_id, string memory agro_key, uint256 keyPhrase) public {\n      string[] storage cropArray = farmer_crops[pub_key];\n      cropArray.push(crop_id);\n      farmer_crops[pub_key] = cropArray;\n      \n      cropInfo[crop_id] = crop_hash;\n\n      string[] storage cropIds = cropContract[agro_key];\n      cropIds.push(crop_id);\n      cropContract[agro_key] = cropIds;\n      \n      allCropId.push(crop_id);\n      usedKeys.push(keyPhrase);\n  }\n  function getFarmerCrops(string memory pub_key) public view returns(string[] memory){\n      return farmer_crops[pub_key];\n  }\n  function getCropByCropId(string memory crop_id) public view returns(string memory){\n      return cropInfo[crop_id];\n  }\n  function getAllCropId() public view returns(string[] memory){\n      return allCropId;\n  }\n  function getAgroCrops(string memory pub_key) public view returns(string[] memory){\n      return cropContract[pub_key];\n  }\n  function getAllUsedKeys() public view returns(uint256[] memory){\n      return usedKeys;\n  }\n\n  // ratings function\n  function setCropRatings(string memory crop_id, string memory hash) public {\n      cropRatings[crop_id].push(hash);\n  }\n  function getCropRatings(string memory crop_id) public view returns(string[] memory){\n      return cropRatings[crop_id];\n  }\n  \n  \n  // getters and setters for user registration\n  function set_signup(string memory pub_key, string memory signup_hash) public {\n    signup[pub_key] = signup_hash;\n    usernames_signup.push(pub_key);\n  }\n  function get_signup(string memory pub_key) public view returns (string memory) {\n    return signup[pub_key];\n  }\n  function get_usernames() public view returns (string[] memory) {\n    return usernames_signup;\n  }\n  \n  // functions checking for matching Id's\n  function match_cropId(string memory crop_id) public view returns (bool){\n    uint256 flag = 0;\n    for(uint i=0; i< allCropId.length; i++){\n      string memory x = allCropId[i];\n      if (keccak256(bytes(x)) == keccak256(bytes(crop_id))) {\n        flag=1;\n        break;\n      }\n    }\n    if (flag == 1) {\n        return true;\n    }\n    return false;\n  }\n  function match_usernames(string memory pub_key) public view returns (bool){\n    uint256 flag = 0;\n    for(uint i=0; i< usernames_signup.length; i++){\n      string memory x = usernames_signup[i];\n      if (keccak256(bytes(x)) == keccak256(bytes(pub_key))) {\n        flag=1;\n        break;\n      }\n    }\n    if (flag == 1) {\n        return true;\n    }\n    return false;\n  }\n}",
  "sourcePath": "/home/nikhil/Desktop/scm_project/src/contracts/scm.sol",
  "compiler": {
    "name": "solc",
    "version": "0.5.0+commit.1d4f565a.Emscripten.clang"
  },
  "schemaVersion": "3.0.2",
  "updatedAt": "2021-04-04T15:08:45.135Z",
  "devdoc": {
    "methods": {}
  },
  "userdoc": {
    "methods": {}
  }
}