{
  "contractName": "Scm",
  "abi": [
    {
      "constant": true,
      "inputs": [],
      "name": "bal",
      "outputs": [
        {
          "name": "",
          "type": "uint256"
        }
      ],
      "payable": false,
      "stateMutability": "view",
      "type": "function",
      "signature": "0x3d79d1c8"
    },
    {
      "constant": false,
      "inputs": [],
      "name": "setSecurityDeposit",
      "outputs": [],
      "payable": true,
      "stateMutability": "payable",
      "type": "function",
      "signature": "0x4a600edc"
    },
    {
      "constant": true,
      "inputs": [],
      "name": "getSecurityDeposit",
      "outputs": [
        {
          "name": "",
          "type": "uint256"
        }
      ],
      "payable": false,
      "stateMutability": "view",
      "type": "function",
      "signature": "0x64a40642"
    },
    {
      "constant": true,
      "inputs": [
        {
          "name": "pub_key",
          "type": "string"
        },
        {
          "name": "pass",
          "type": "string"
        }
      ],
      "name": "validateAdmindetails",
      "outputs": [
        {
          "name": "",
          "type": "bool"
        }
      ],
      "payable": false,
      "stateMutability": "view",
      "type": "function",
      "signature": "0xe32c1903"
    },
    {
      "constant": false,
      "inputs": [
        {
          "name": "pub_key",
          "type": "string"
        },
        {
          "name": "crop_hash",
          "type": "string"
        },
        {
          "name": "crop_id",
          "type": "string"
        }
      ],
      "name": "setFarmerCrops",
      "outputs": [],
      "payable": false,
      "stateMutability": "nonpayable",
      "type": "function",
      "signature": "0x04bda348"
    },
    {
      "constant": true,
      "inputs": [
        {
          "name": "pub_key",
          "type": "string"
        }
      ],
      "name": "getFarmerCrops",
      "outputs": [
        {
          "name": "",
          "type": "string[]"
        }
      ],
      "payable": false,
      "stateMutability": "view",
      "type": "function",
      "signature": "0x69b42dc1"
    },
    {
      "constant": true,
      "inputs": [
        {
          "name": "crop_id",
          "type": "string"
        }
      ],
      "name": "getCropByCropId",
      "outputs": [
        {
          "name": "",
          "type": "string"
        }
      ],
      "payable": false,
      "stateMutability": "view",
      "type": "function",
      "signature": "0xedbced3d"
    },
    {
      "constant": true,
      "inputs": [],
      "name": "getAllCropId",
      "outputs": [
        {
          "name": "",
          "type": "string[]"
        }
      ],
      "payable": false,
      "stateMutability": "view",
      "type": "function",
      "signature": "0x990d0ee1"
    },
    {
      "constant": true,
      "inputs": [
        {
          "name": "crop_id",
          "type": "string"
        }
      ],
      "name": "match_cropId",
      "outputs": [
        {
          "name": "",
          "type": "bool"
        }
      ],
      "payable": false,
      "stateMutability": "view",
      "type": "function",
      "signature": "0xb228fc0f"
    },
    {
      "constant": false,
      "inputs": [
        {
          "name": "pub_key",
          "type": "string"
        },
        {
          "name": "signup_hash",
          "type": "string"
        }
      ],
      "name": "set_signup",
      "outputs": [],
      "payable": false,
      "stateMutability": "nonpayable",
      "type": "function",
      "signature": "0x9a80f157"
    },
    {
      "constant": true,
      "inputs": [
        {
          "name": "pub_key",
          "type": "string"
        }
      ],
      "name": "get_signup",
      "outputs": [
        {
          "name": "",
          "type": "string"
        }
      ],
      "payable": false,
      "stateMutability": "view",
      "type": "function",
      "signature": "0x19cec54b"
    },
    {
      "constant": true,
      "inputs": [],
      "name": "get_usernames",
      "outputs": [
        {
          "name": "",
          "type": "string[]"
        }
      ],
      "payable": false,
      "stateMutability": "view",
      "type": "function",
      "signature": "0x0da1b264"
    },
    {
      "constant": true,
      "inputs": [
        {
          "name": "pub_key",
          "type": "string"
        }
      ],
      "name": "match_usernames",
      "outputs": [
        {
          "name": "",
          "type": "bool"
        }
      ],
      "payable": false,
      "stateMutability": "view",
      "type": "function",
      "signature": "0xabf3e364"
    }
  ],
  "bytecode": "0x6080604052602060405190810160405280606060405190810160405280603081526020017f307837343361323634443139396431313333633344334561633138423931424281526020017f384535363862303945612d61646d696e00000000000000000000000000000000815250815250600190600162000082929190620001a8565b506040805190810160405280606060405190810160405280603081526020017f307837343361323634443139396431313333633344334561633138423931424281526020017f384535363862303945612d61646d696e0000000000000000000000000000000081525081526020016040805190810160405280600881526020017f506173733132334000000000000000000000000000000000000000000000000081525081525060029060026200013b9291906200020f565b506020604051908101604052806040805190810160405280600181526020017f6100000000000000000000000000000000000000000000000000000000000000815250815250600590600162000193929190620001a8565b50348015620001a157600080fd5b50620003a2565b828054828255906000526020600020908101928215620001fc579160200282015b82811115620001fb578251829080519060200190620001ea92919062000276565b5091602001919060010190620001c9565b5b5090506200020b9190620002fd565b5090565b82805482825590600052602060002090810192821562000263579160200282015b82811115620002625782518290805190602001906200025192919062000276565b509160200191906001019062000230565b5b509050620002729190620002fd565b5090565b828054600181600116156101000203166002900490600052602060002090601f016020900481019282601f10620002b957805160ff1916838001178555620002ea565b82800160010185558215620002ea579182015b82811115620002e9578251825591602001919060010190620002cc565b5b509050620002f991906200032e565b5090565b6200032b91905b808211156200032757600081816200031d919062000356565b5060010162000304565b5090565b90565b6200035391905b808211156200034f57600081600090555060010162000335565b5090565b90565b50805460018160011615610100020316600290046000825580601f106200037e57506200039f565b601f0160209004906000526020600020908101906200039e91906200032e565b5b50565b6115e880620003b26000396000f3fe6080604052600436106100c5576000357c0100000000000000000000000000000000000000000000000000000000900463ffffffff16806304bda348146100ca5780630da1b264146100f357806319cec54b1461011e5780633d79d1c81461015b5780634a600edc1461018657806364a406421461019057806369b42dc1146101bb578063990d0ee1146101f85780639a80f15714610223578063abf3e3641461024c578063b228fc0f14610289578063e32c1903146102c6578063edbced3d14610303575b600080fd5b3480156100d657600080fd5b506100f160048036036100ec91908101906112a8565b610340565b005b3480156100ff57600080fd5b5061010861052d565b6040516101159190611437565b60405180910390f35b34801561012a57600080fd5b50610145600480360361014091908101906111fb565b610616565b6040516101529190611474565b60405180910390f35b34801561016757600080fd5b50610170610723565b60405161017d9190611496565b60405180910390f35b61018e610729565b005b34801561019c57600080fd5b506101a56107ce565b6040516101b29190611496565b60405180910390f35b3480156101c757600080fd5b506101e260048036036101dd91908101906111fb565b610815565b6040516101ef9190611437565b60405180910390f35b34801561020457600080fd5b5061020d610969565b60405161021a9190611437565b60405180910390f35b34801561022f57600080fd5b5061024a6004803603610245919081019061123c565b610a52565b005b34801561025857600080fd5b50610273600480360361026e91908101906111fb565b610b15565b6040516102809190611459565b60405180910390f35b34801561029557600080fd5b506102b060048036036102ab91908101906111fb565b610c32565b6040516102bd9190611459565b60405180910390f35b3480156102d257600080fd5b506102ed60048036036102e8919081019061123c565b610d4f565b6040516102fa9190611459565b60405180910390f35b34801561030f57600080fd5b5061032a600480360361032591908101906111fb565b610e88565b6040516103379190611474565b60405180910390f35b60006003846040518082805190602001908083835b60208310151561037a5780518252602082019150602081019050602083039250610355565b6001836020036101000a03801982511681845116808217855250505050505090500191505090815260200160405180910390209050808390806001815401808255809150509060018203906000526020600020016000909192909190915090805190602001906103eb929190610f95565b5050806003856040518082805190602001908083835b6020831015156104265780518252602082019150602081019050602083039250610401565b6001836020036101000a0380198251168184511680821785525050505050509050019150509081526020016040518091039020908054610467929190611015565b50826004836040518082805190602001908083835b6020831015156104a1578051825260208201915060208101905060208303925061047c565b6001836020036101000a038019825116818451168082178552505050505050905001915050908152602001604051809103902090805190602001906104e7929190610f95565b506005829080600181540180825580915050906001820390600052602060002001600090919290919091509080519060200190610525929190610f95565b505050505050565b60606001805480602002602001604051908101604052809291908181526020016000905b8282101561060d578382906000526020600020018054600181600116156101000203166002900480601f0160208091040260200160405190810160405280929190818152602001828054600181600116156101000203166002900480156105f95780601f106105ce576101008083540402835291602001916105f9565b820191906000526020600020905b8154815290600101906020018083116105dc57829003601f168201915b505050505081526020019060010190610551565b50505050905090565b60606000826040518082805190602001908083835b602083101515610650578051825260208201915060208101905060208303925061062b565b6001836020036101000a03801982511681845116808217855250505050505090500191505090815260200160405180910390208054600181600116156101000203166002900480601f0160208091040260200160405190810160405280929190818152602001828054600181600116156101000203166002900480156107175780601f106106ec57610100808354040283529160200191610717565b820191906000526020600020905b8154815290600101906020018083116106fa57829003601f168201915b50505050509050919050565b60065481565b34600760003373ffffffffffffffffffffffffffffffffffffffff1673ffffffffffffffffffffffffffffffffffffffff1681526020019081526020016000205401600760003373ffffffffffffffffffffffffffffffffffffffff1673ffffffffffffffffffffffffffffffffffffffff168152602001908152602001600020819055503073ffffffffffffffffffffffffffffffffffffffff1631600681905550565b6000600760003373ffffffffffffffffffffffffffffffffffffffff1673ffffffffffffffffffffffffffffffffffffffff16815260200190815260200160002054905090565b60606003826040518082805190602001908083835b60208310151561084f578051825260208201915060208101905060208303925061082a565b6001836020036101000a0380198251168184511680821785525050505050509050019150509081526020016040518091039020805480602002602001604051908101604052809291908181526020016000905b8282101561095e578382906000526020600020018054600181600116156101000203166002900480601f01602080910402602001604051908101604052809291908181526020018280546001816001161561010002031660029004801561094a5780601f1061091f5761010080835404028352916020019161094a565b820191906000526020600020905b81548152906001019060200180831161092d57829003601f168201915b5050505050815260200190600101906108a2565b505050509050919050565b60606005805480602002602001604051908101604052809291908181526020016000905b82821015610a49578382906000526020600020018054600181600116156101000203166002900480601f016020809104026020016040519081016040528092919081815260200182805460018160011615610100020316600290048015610a355780601f10610a0a57610100808354040283529160200191610a35565b820191906000526020600020905b815481529060010190602001808311610a1857829003601f168201915b50505050508152602001906001019061098d565b50505050905090565b806000836040518082805190602001908083835b602083101515610a8b5780518252602082019150602081019050602083039250610a66565b6001836020036101000a03801982511681845116808217855250505050505090500191505090815260200160405180910390209080519060200190610ad1929190610f95565b506001829080600181540180825580915050906001820390600052602060002001600090919290919091509080519060200190610b0f929190610f95565b50505050565b6000806000905060008090505b600180549050811015610c13576060600182815481101515610b4057fe5b906000526020600020018054600181600116156101000203166002900480601f016020809104026020016040519081016040528092919081815260200182805460018160011615610100020316600290048015610bde5780601f10610bb357610100808354040283529160200191610bde565b820191906000526020600020905b815481529060010190602001808311610bc157829003601f168201915b50505050509050848051906020012081805190602001201415610c05576001925050610c13565b508080600101915050610b22565b506001811415610c27576001915050610c2d565b60009150505b919050565b6000806000905060008090505b600580549050811015610d30576060600582815481101515610c5d57fe5b906000526020600020018054600181600116156101000203166002900480601f016020809104026020016040519081016040528092919081815260200182805460018160011615610100020316600290048015610cfb5780601f10610cd057610100808354040283529160200191610cfb565b820191906000526020600020905b815481529060010190602001808311610cde57829003601f168201915b50505050509050848051906020012081805190602001201415610d22576001925050610d30565b508080600101915050610c3f565b506001811415610d44576001915050610d4a565b60009150505b919050565b600060026000815481101515610d6157fe5b906000526020600020016040518082805460018160011615610100020316600290048015610dc65780601f10610da4576101008083540402835291820191610dc6565b820191906000526020600020905b815481529060010190602001808311610db2575b505091505060405180910390208380519060200120148015610e6f575060026001815481101515610df357fe5b906000526020600020016040518082805460018160011615610100020316600290048015610e585780601f10610e36576101008083540402835291820191610e58565b820191906000526020600020905b815481529060010190602001808311610e44575b505091505060405180910390208280519060200120145b15610e7d5760019050610e82565b600090505b92915050565b60606004826040518082805190602001908083835b602083101515610ec25780518252602082019150602081019050602083039250610e9d565b6001836020036101000a03801982511681845116808217855250505050505090500191505090815260200160405180910390208054600181600116156101000203166002900480601f016020809104026020016040519081016040528092919081815260200182805460018160011615610100020316600290048015610f895780601f10610f5e57610100808354040283529160200191610f89565b820191906000526020600020905b815481529060010190602001808311610f6c57829003601f168201915b50505050509050919050565b828054600181600116156101000203166002900490600052602060002090601f016020900481019282601f10610fd657805160ff1916838001178555611004565b82800160010185558215611004579182015b82811115611003578251825591602001919060010190610fe8565b5b5090506110119190611085565b5090565b8280548282559060005260206000209081019282156110745760005260206000209182015b8281111561107357828290805460018160011615610100020316600290046110639291906110aa565b509160010191906001019061103a565b5b5090506110819190611131565b5090565b6110a791905b808211156110a357600081600090555060010161108b565b5090565b90565b828054600181600116156101000203166002900490600052602060002090601f016020900481019282601f106110e35780548555611120565b8280016001018555821561112057600052602060002091601f016020900482015b8281111561111f578254825591600101919060010190611104565b5b50905061112d9190611085565b5090565b61115a91905b80821115611156576000818161114d919061115d565b50600101611137565b5090565b90565b50805460018160011615610100020316600290046000825580601f1061118357506111a2565b601f0160209004906000526020600020908101906111a19190611085565b5b50565b600082601f83011215156111b857600080fd5b81356111cb6111c6826114de565b6114b1565b915080825260208301602083018583830111156111e757600080fd5b6111f283828461155b565b50505092915050565b60006020828403121561120d57600080fd5b600082013567ffffffffffffffff81111561122757600080fd5b611233848285016111a5565b91505092915050565b6000806040838503121561124f57600080fd5b600083013567ffffffffffffffff81111561126957600080fd5b611275858286016111a5565b925050602083013567ffffffffffffffff81111561129257600080fd5b61129e858286016111a5565b9150509250929050565b6000806000606084860312156112bd57600080fd5b600084013567ffffffffffffffff8111156112d757600080fd5b6112e3868287016111a5565b935050602084013567ffffffffffffffff81111561130057600080fd5b61130c868287016111a5565b925050604084013567ffffffffffffffff81111561132957600080fd5b611335868287016111a5565b9150509250925092565b600061134a82611517565b808452602084019350836020820285016113638561150a565b60005b8481101561139c57838303885261137e8383516113f2565b925061138982611538565b9150602088019750600181019050611366565b508196508694505050505092915050565b6113b681611545565b82525050565b60006113c78261152d565b8084526113db81602086016020860161156a565b6113e48161159d565b602085010191505092915050565b60006113fd82611522565b80845261141181602086016020860161156a565b61141a8161159d565b602085010191505092915050565b61143181611551565b82525050565b60006020820190508181036000830152611451818461133f565b905092915050565b600060208201905061146e60008301846113ad565b92915050565b6000602082019050818103600083015261148e81846113bc565b905092915050565b60006020820190506114ab6000830184611428565b92915050565b6000604051905081810181811067ffffffffffffffff821117156114d457600080fd5b8060405250919050565b600067ffffffffffffffff8211156114f557600080fd5b601f19601f8301169050602081019050919050565b6000602082019050919050565b600081519050919050565b600081519050919050565b600081519050919050565b6000602082019050919050565b60008115159050919050565b6000819050919050565b82818337600083830152505050565b60005b8381101561158857808201518184015260208101905061156d565b83811115611597576000848401525b50505050565b6000601f19601f830116905091905056fea265627a7a7230582034dd0637cc93f3f2f110825ef7a30b2ef020244217a014623b5313e6dc3050596c6578706572696d656e74616cf50037",
  "source": "// SPDX-License-Identifier: MIT\npragma solidity >=0.5.0;\npragma experimental ABIEncoderV2;\n\ncontract Scm {\n  mapping(string => string) signup;\n  string[] usernames_signup = [\"0x743a264D199d1133c3D3Eac18B91BB8E568b09Ea-admin\"];\n  string[] AdminDetails = [\"0x743a264D199d1133c3D3Eac18B91BB8E568b09Ea-admin\",\"Pass123@\"];\n  \n  \n  mapping(string => string[]) farmer_crops;\n  mapping(string => string) cropInfo;\n  string[] allCropId = [\"a\"];\n  \n  uint256 public bal;\n  mapping(address => uint256) securityDeposit;\n  \n  function setSecurityDeposit () external payable {\n      securityDeposit[msg.sender] = securityDeposit[msg.sender] + msg.value;\n      bal=address(this).balance;\n  }\n  \n  function getSecurityDeposit () public view returns (uint256){\n      return securityDeposit[msg.sender];\n  }\n  \n  function validateAdmindetails(string memory pub_key, string memory pass) public view returns (bool) {\n      if(keccak256(bytes(pub_key)) == keccak256(bytes(AdminDetails[0])) && keccak256(bytes(pass))==keccak256(bytes(AdminDetails[1]))){\n          return true; \n      }\n      return false;\n  }\n  \n  function setFarmerCrops(string memory pub_key, string memory crop_hash, string memory crop_id) public {\n      string[] storage cropArray = farmer_crops[pub_key];\n      cropArray.push(crop_hash);\n      farmer_crops[pub_key] = cropArray;\n      \n      cropInfo[crop_id] = crop_hash;\n      \n      allCropId.push(crop_id);\n  }\n  \n  function getFarmerCrops(string memory pub_key) public view returns(string[] memory){\n      return farmer_crops[pub_key];\n  }\n  \n  function getCropByCropId(string memory crop_id) public view returns(string memory){\n      return cropInfo[crop_id];\n  }\n  \n  function getAllCropId() public view returns(string[] memory){\n      return allCropId;\n  }\n  \n  function match_cropId(string memory crop_id) public view returns (bool){\n    uint256 flag = 0;\n    for(uint i=0; i< allCropId.length; i++){\n      string memory x = allCropId[i];\n      if (keccak256(bytes(x)) == keccak256(bytes(crop_id))) {\n        flag=1;\n        break;\n      }\n    }\n    if (flag == 1) {\n        return true;\n    }\n    return false;\n  }\n\n\n  function set_signup(string memory pub_key, string memory signup_hash) public {\n    signup[pub_key] = signup_hash;\n    usernames_signup.push(pub_key);\n  }\n\n  function get_signup(string memory pub_key) public view returns (string memory) {\n    return signup[pub_key];\n  }\n  \n  function get_usernames() public view returns (string[] memory) {\n    return usernames_signup;\n  }\n\n  function match_usernames(string memory pub_key) public view returns (bool){\n    uint256 flag = 0;\n    for(uint i=0; i< usernames_signup.length; i++){\n      string memory x = usernames_signup[i];\n      if (keccak256(bytes(x)) == keccak256(bytes(pub_key))) {\n        flag=1;\n        break;\n      }\n    }\n    if (flag == 1) {\n        return true;\n    }\n    return false;\n  }\n}",
  "sourcePath": "/home/nikhil/Desktop/scm_project/src/contracts/scm.sol",
  "compiler": {
    "name": "solc",
    "version": "0.5.0+commit.1d4f565a.Emscripten.clang"
  },
  "schemaVersion": "3.0.2",
  "updatedAt": "2021-03-21T06:46:49.069Z",
  "devdoc": {
    "methods": {}
  },
  "userdoc": {
    "methods": {}
  }
}