{
  "contractName": "Scm",
  "abi": [
    {
      "constant": true,
      "inputs": [],
      "name": "getAdmindetails",
      "outputs": [
        {
          "name": "",
          "type": "string[]"
        }
      ],
      "payable": false,
      "stateMutability": "view",
      "type": "function",
      "signature": "0x8a0bf9a6"
    },
    {
      "constant": false,
      "inputs": [
        {
          "name": "pub_key",
          "type": "string"
        },
        {
          "name": "signup_hash",
          "type": "string"
        }
      ],
      "name": "set_signup",
      "outputs": [],
      "payable": false,
      "stateMutability": "nonpayable",
      "type": "function",
      "signature": "0x9a80f157"
    },
    {
      "constant": true,
      "inputs": [
        {
          "name": "pub_key",
          "type": "string"
        }
      ],
      "name": "get_signup",
      "outputs": [
        {
          "name": "",
          "type": "string"
        }
      ],
      "payable": false,
      "stateMutability": "view",
      "type": "function",
      "signature": "0x19cec54b"
    },
    {
      "constant": true,
      "inputs": [],
      "name": "get_usernames",
      "outputs": [
        {
          "name": "",
          "type": "string[]"
        }
      ],
      "payable": false,
      "stateMutability": "view",
      "type": "function",
      "signature": "0x0da1b264"
    },
    {
      "constant": true,
      "inputs": [
        {
          "name": "pub_key",
          "type": "string"
        }
      ],
      "name": "match_usernames",
      "outputs": [
        {
          "name": "",
          "type": "bool"
        }
      ],
      "payable": false,
      "stateMutability": "view",
      "type": "function",
      "signature": "0xabf3e364"
    }
  ],
  "bytecode": "0x60806040526020604051908101604052806040805190810160405280600a81526020017f626861726174683132330000000000000000000000000000000000000000000081525081525060019060016200005b92919062000102565b5060408051908101604052806040805190810160405280600881526020017f61646d696e31323300000000000000000000000000000000000000000000000081525081526020016040805190810160405280600781526020017f70617373313233000000000000000000000000000000000000000000000000008152508152506002906002620000ed92919062000169565b50348015620000fb57600080fd5b50620002fc565b82805482825590600052602060002090810192821562000156579160200282015b828111156200015557825182908051906020019062000144929190620001d0565b509160200191906001019062000123565b5b50905062000165919062000257565b5090565b828054828255906000526020600020908101928215620001bd579160200282015b82811115620001bc578251829080519060200190620001ab929190620001d0565b50916020019190600101906200018a565b5b509050620001cc919062000257565b5090565b828054600181600116156101000203166002900490600052602060002090601f016020900481019282601f106200021357805160ff191683800117855562000244565b8280016001018555821562000244579182015b828111156200024357825182559160200191906001019062000226565b5b50905062000253919062000288565b5090565b6200028591905b80821115620002815760008181620002779190620002b0565b506001016200025e565b5090565b90565b620002ad91905b80821115620002a95760008160009055506001016200028f565b5090565b90565b50805460018160011615610100020316600290046000825580601f10620002d85750620002f9565b601f016020900490600052602060002090810190620002f8919062000288565b5b50565b610a47806200030c6000396000f3fe60806040526004361061006d576000357c0100000000000000000000000000000000000000000000000000000000900463ffffffff1680630da1b2641461007257806319cec54b1461009d5780638a0bf9a6146100da5780639a80f15714610105578063abf3e3641461012e575b600080fd5b34801561007e57600080fd5b5061008761016b565b60405161009491906108bb565b60405180910390f35b3480156100a957600080fd5b506100c460048036036100bf9190810190610725565b610254565b6040516100d191906108f8565b60405180910390f35b3480156100e657600080fd5b506100ef610361565b6040516100fc91906108bb565b60405180910390f35b34801561011157600080fd5b5061012c60048036036101279190810190610766565b61044a565b005b34801561013a57600080fd5b5061015560048036036101509190810190610725565b61050d565b60405161016291906108dd565b60405180910390f35b60606001805480602002602001604051908101604052809291908181526020016000905b8282101561024b578382906000526020600020018054600181600116156101000203166002900480601f0160208091040260200160405190810160405280929190818152602001828054600181600116156101000203166002900480156102375780601f1061020c57610100808354040283529160200191610237565b820191906000526020600020905b81548152906001019060200180831161021a57829003601f168201915b50505050508152602001906001019061018f565b50505050905090565b60606000826040518082805190602001908083835b60208310151561028e5780518252602082019150602081019050602083039250610269565b6001836020036101000a03801982511681845116808217855250505050505090500191505090815260200160405180910390208054600181600116156101000203166002900480601f0160208091040260200160405190810160405280929190818152602001828054600181600116156101000203166002900480156103555780601f1061032a57610100808354040283529160200191610355565b820191906000526020600020905b81548152906001019060200180831161033857829003601f168201915b50505050509050919050565b60606002805480602002602001604051908101604052809291908181526020016000905b82821015610441578382906000526020600020018054600181600116156101000203166002900480601f01602080910402602001604051908101604052809291908181526020018280546001816001161561010002031660029004801561042d5780601f106104025761010080835404028352916020019161042d565b820191906000526020600020905b81548152906001019060200180831161041057829003601f168201915b505050505081526020019060010190610385565b50505050905090565b806000836040518082805190602001908083835b602083101515610483578051825260208201915060208101905060208303925061045e565b6001836020036101000a038019825116818451168082178552505050505050905001915050908152602001604051809103902090805190602001906104c992919061062a565b50600182908060018154018082558091505090600182039060005260206000200160009091929091909150908051906020019061050792919061062a565b50505050565b6000806000905060008090505b60018054905081101561060b57606060018281548110151561053857fe5b906000526020600020018054600181600116156101000203166002900480601f0160208091040260200160405190810160405280929190818152602001828054600181600116156101000203166002900480156105d65780601f106105ab576101008083540402835291602001916105d6565b820191906000526020600020905b8154815290600101906020018083116105b957829003601f168201915b505050505090508480519060200120818051906020012014156105fd57600192505061060b565b50808060010191505061051a565b50600181141561061f576001915050610625565b60009150505b919050565b828054600181600116156101000203166002900490600052602060002090601f016020900481019282601f1061066b57805160ff1916838001178555610699565b82800160010185558215610699579182015b8281111561069857825182559160200191906001019061067d565b5b5090506106a691906106aa565b5090565b6106cc91905b808211156106c85760008160009055506001016106b0565b5090565b90565b600082601f83011215156106e257600080fd5b81356106f56106f082610947565b61091a565b9150808252602083016020830185838301111561071157600080fd5b61071c8382846109ba565b50505092915050565b60006020828403121561073757600080fd5b600082013567ffffffffffffffff81111561075157600080fd5b61075d848285016106cf565b91505092915050565b6000806040838503121561077957600080fd5b600083013567ffffffffffffffff81111561079357600080fd5b61079f858286016106cf565b925050602083013567ffffffffffffffff8111156107bc57600080fd5b6107c8858286016106cf565b9150509250929050565b60006107dd82610980565b808452602084019350836020820285016107f685610973565b60005b8481101561082f578383038852610811838351610885565b925061081c826109a1565b91506020880197506001810190506107f9565b508196508694505050505092915050565b610849816109ae565b82525050565b600061085a82610996565b80845261086e8160208601602086016109c9565b610877816109fc565b602085010191505092915050565b60006108908261098b565b8084526108a48160208601602086016109c9565b6108ad816109fc565b602085010191505092915050565b600060208201905081810360008301526108d581846107d2565b905092915050565b60006020820190506108f26000830184610840565b92915050565b60006020820190508181036000830152610912818461084f565b905092915050565b6000604051905081810181811067ffffffffffffffff8211171561093d57600080fd5b8060405250919050565b600067ffffffffffffffff82111561095e57600080fd5b601f19601f8301169050602081019050919050565b6000602082019050919050565b600081519050919050565b600081519050919050565b600081519050919050565b6000602082019050919050565b60008115159050919050565b82818337600083830152505050565b60005b838110156109e75780820151818401526020810190506109cc565b838111156109f6576000848401525b50505050565b6000601f19601f830116905091905056fea265627a7a72305820b7c70bcc2188c34b61e834c523b595426b8ffcd9abf8a2ea874b847217312fa06c6578706572696d656e74616cf50037",
  "source": "pragma solidity ^0.5.0;\npragma experimental ABIEncoderV2;\n\ncontract Scm {\n  mapping(string => string) signup;\n  string[] usernames_signup = [\"bharath123\"];\n\n  string[] AdminDetails = [\"admin123\",\"pass123\"];\n\n  \n  function getAdmindetails() public view returns (string[] memory) {\n    return AdminDetails;\n  }\n\n  function set_signup(string memory pub_key, string memory signup_hash) public {\n    signup[pub_key] = signup_hash;\n    usernames_signup.push(pub_key);\n  }\n\n  function get_signup(string memory pub_key) public view returns (string memory) {\n    return signup[pub_key];\n  }\n  \n  function get_usernames() public view returns (string[] memory) {\n    return usernames_signup;\n  }\n\n  function match_usernames(string memory pub_key) public view returns (bool){\n    uint256 flag = 0;\n    for(uint i=0; i< usernames_signup.length; i++){\n      string memory x = usernames_signup[i];\n      if (keccak256(bytes(x)) == keccak256(bytes(pub_key))) {\n        flag=1;\n        break;\n      }\n    }\n    if (flag == 1) {\n        return true;\n    }\n    return false;\n  }\n  \n}",
  "sourcePath": "/home/nikhil/Desktop/scm_project/src/contracts/scm.sol",
  "compiler": {
    "name": "solc",
    "version": "0.5.0+commit.1d4f565a.Emscripten.clang"
  },
  "schemaVersion": "3.0.2",
  "updatedAt": "2021-03-15T10:58:33.028Z",
  "devdoc": {
    "methods": {}
  },
  "userdoc": {
    "methods": {}
  }
}