{
  "contractName": "SecurityDeposit",
  "abi": [
    {
      "constant": true,
      "inputs": [],
      "name": "contractBalance",
      "outputs": [
        {
          "name": "",
          "type": "uint256"
        }
      ],
      "payable": false,
      "stateMutability": "view",
      "type": "function",
      "signature": "0x8b7afe2e"
    },
    {
      "constant": true,
      "inputs": [],
      "name": "getContractBalance",
      "outputs": [
        {
          "name": "",
          "type": "uint256"
        }
      ],
      "payable": false,
      "stateMutability": "view",
      "type": "function",
      "signature": "0x6f9fb98a"
    },
    {
      "constant": false,
      "inputs": [],
      "name": "setSecurityDeposit",
      "outputs": [],
      "payable": true,
      "stateMutability": "payable",
      "type": "function",
      "signature": "0x4a600edc"
    },
    {
      "constant": true,
      "inputs": [],
      "name": "getSecurityDeposit",
      "outputs": [
        {
          "name": "",
          "type": "uint256"
        }
      ],
      "payable": false,
      "stateMutability": "view",
      "type": "function",
      "signature": "0x64a40642"
    }
  ],
  "bytecode": "0x608060405234801561001057600080fd5b5061025b806100206000396000f3fe608060405260043610610062576000357c0100000000000000000000000000000000000000000000000000000000900463ffffffff1680634a600edc1461006757806364a40642146100715780636f9fb98a1461009c5780638b7afe2e146100c7575b600080fd5b61006f6100f2565b005b34801561007d57600080fd5b50610086610197565b60405161009391906101fc565b60405180910390f35b3480156100a857600080fd5b506100b16101de565b6040516100be91906101fc565b60405180910390f35b3480156100d357600080fd5b506100dc6101e7565b6040516100e991906101fc565b60405180910390f35b34600160003373ffffffffffffffffffffffffffffffffffffffff1673ffffffffffffffffffffffffffffffffffffffff1681526020019081526020016000205401600160003373ffffffffffffffffffffffffffffffffffffffff1673ffffffffffffffffffffffffffffffffffffffff168152602001908152602001600020819055503073ffffffffffffffffffffffffffffffffffffffff1631600081905550565b6000600160003373ffffffffffffffffffffffffffffffffffffffff1673ffffffffffffffffffffffffffffffffffffffff16815260200190815260200160002054905090565b60008054905090565b60005481565b6101f681610217565b82525050565b600060208201905061021160008301846101ed565b92915050565b600081905091905056fea265627a7a72305820061b82afbf77467c14263337a215025598a0ccbf83db7dca889634ee45dbd17a6c6578706572696d656e74616cf50037",
  "source": "// SPDX-License-Identifier: MIT\npragma solidity >=0.5.0;\npragma experimental ABIEncoderV2;\n\ncontract SecurityDeposit {\n\n    // Ether stored in contract address\n    uint256 public contractBalance;\n    \n    // attribute to map farmer to his security deposit\n    mapping(address => uint256) securityDeposit;\n    \n    // get contractBalance\n    function getContractBalance() public view returns (uint256) {\n        return contractBalance;\n    }\n\n    // Getter and setters for securityDeposit\n    function setSecurityDeposit () external payable {\n        securityDeposit[msg.sender] = securityDeposit[msg.sender] + msg.value;\n        contractBalance=address(this).balance;\n    }\n    function getSecurityDeposit () public view returns (uint256){\n        return securityDeposit[msg.sender];\n    }\n}",
  "sourcePath": "/home/nikhil/Desktop/scm_project/src/contracts/SecurityDeposity.sol",
  "compiler": {
    "name": "solc",
    "version": "0.5.0+commit.1d4f565a.Emscripten.clang"
  },
  "schemaVersion": "3.0.2",
  "updatedAt": "2021-06-03T09:11:01.025Z",
  "devdoc": {
    "methods": {}
  },
  "userdoc": {
    "methods": {}
  }
}