{
  "contractName": "supplier",
  "abi": [
    {
      "constant": false,
      "inputs": [],
      "name": "send",
      "outputs": [],
      "payable": true,
      "stateMutability": "payable",
      "type": "function",
      "signature": "0xb46300ec"
    },
    {
      "constant": false,
      "inputs": [
        {
          "name": "receiver",
          "type": "address"
        },
        {
          "name": "amount",
          "type": "uint256"
        }
      ],
      "name": "sendBal",
      "outputs": [],
      "payable": false,
      "stateMutability": "nonpayable",
      "type": "function",
      "signature": "0xc5af725d"
    }
  ],
  "bytecode": "0x608060405234801561001057600080fd5b506101ab806100206000396000f3fe60806040526004361061004c576000357c0100000000000000000000000000000000000000000000000000000000900463ffffffff168063b46300ec14610051578063c5af725d1461005b575b600080fd5b610059610084565b005b34801561006757600080fd5b50610082600480360361007d91908101906100f9565b610086565b005b565b8173ffffffffffffffffffffffffffffffffffffffff166108fc829081150290604051600060405180830381858888f193505050501580156100cc573d6000803e3d6000fd5b505050565b60006100dd8235610155565b905092915050565b60006100f18235610167565b905092915050565b6000806040838503121561010c57600080fd5b600061011a858286016100d1565b925050602061012b858286016100e5565b9150509250929050565b600073ffffffffffffffffffffffffffffffffffffffff82169050919050565b600061016082610135565b9050919050565b600081905091905056fea265627a7a723058207c8d1915fd44adcba3c363fd3f38c7970caf222ae17b95a5ae70567b2e5921036c6578706572696d656e74616cf50037",
  "source": "pragma solidity >=0.5.0;\npragma experimental ABIEncoderV2;\n\ncontract supplier {\n\n    struct supplies {\n        string supplierPublicKey;\n        string farmerPublicKey;\n        string item;\n    }\n    \n    function send() public payable { \n    }\n    \n    function sendBal(address payable receiver,uint256 amount) external{\n        receiver.transfer(amount);  \n    }\n}",
  "sourcePath": "/home/nikhil/Desktop/scm_project/src/contracts/supplier.sol",
  "compiler": {
    "name": "solc",
    "version": "0.5.0+commit.1d4f565a.Emscripten.clang"
  },
  "schemaVersion": "3.0.2",
  "updatedAt": "2021-05-28T11:59:42.922Z",
  "devdoc": {
    "methods": {}
  },
  "userdoc": {
    "methods": {}
  }
}