{
  "contractName": "Supplier",
  "abi": [
    {
      "constant": false,
      "inputs": [],
      "name": "send",
      "outputs": [],
      "payable": true,
      "stateMutability": "payable",
      "type": "function",
      "signature": "0xb46300ec"
    },
    {
      "constant": false,
      "inputs": [
        {
          "name": "receiver",
          "type": "address"
        },
        {
          "name": "amount",
          "type": "uint256"
        }
      ],
      "name": "sendBal",
      "outputs": [],
      "payable": false,
      "stateMutability": "nonpayable",
      "type": "function",
      "signature": "0xc5af725d"
    }
  ],
  "bytecode": "0x608060405234801561001057600080fd5b50610214806100206000396000f3fe60806040526004361061004c576000357c0100000000000000000000000000000000000000000000000000000000900463ffffffff168063b46300ec14610051578063c5af725d1461005b575b600080fd5b610059610084565b005b34801561006757600080fd5b50610082600480360361007d9190810190610162565b6100ef565b005b600073e7fce9c4c10f575417a8b8fc39bfbf96e81b391490508073ffffffffffffffffffffffffffffffffffffffff166108fc6702c68af0bb1400009081150290604051600060405180830381858888f193505050501580156100eb573d6000803e3d6000fd5b5050565b8173ffffffffffffffffffffffffffffffffffffffff166108fc829081150290604051600060405180830381858888f19350505050158015610135573d6000803e3d6000fd5b505050565b600061014682356101be565b905092915050565b600061015a82356101d0565b905092915050565b6000806040838503121561017557600080fd5b60006101838582860161013a565b92505060206101948582860161014e565b9150509250929050565b600073ffffffffffffffffffffffffffffffffffffffff82169050919050565b60006101c98261019e565b9050919050565b600081905091905056fea265627a7a72305820b1d2e07a143b12f1e5e2b28ffb41fbdcac84b1e137b137d2f564edad0362bde76c6578706572696d656e74616cf50037",
  "source": "// SPDX-License-Identifier: MIT\npragma solidity >=0.5.0;\npragma experimental ABIEncoderV2;\n\ncontract Supplier {\n\n    struct supplies {\n        string supplierPublicKey;\n        string farmerPublicKey;\n        string item;\n    }\n    \n    function send() public payable { \n        address payable receiver; \n        receiver = address(uint160(0xE7fCE9c4C10F575417A8B8FC39Bfbf96e81B3914));\n        receiver.transfer(200000000000000000);\n    }\n    \n    function sendBal(address payable receiver,uint256 amount) external{\n        receiver.transfer(amount);  \n    }\n}",
  "sourcePath": "/home/nikhil/Desktop/scm_project/src/contracts/Supplier.sol",
  "compiler": {
    "name": "solc",
    "version": "0.5.0+commit.1d4f565a.Emscripten.clang"
  },
  "schemaVersion": "3.0.2",
  "updatedAt": "2021-05-28T14:14:29.985Z",
  "devdoc": {
    "methods": {}
  },
  "userdoc": {
    "methods": {}
  }
}