{
  "contractName": "Transportation",
  "abi": [
    {
      "constant": false,
      "inputs": [
        {
          "name": "keyValue",
          "type": "string"
        }
      ],
      "name": "setTransHiringArray",
      "outputs": [],
      "payable": false,
      "stateMutability": "nonpayable",
      "type": "function",
      "signature": "0xac92c1d8"
    },
    {
      "constant": true,
      "inputs": [],
      "name": "getAllKeys",
      "outputs": [
        {
          "name": "",
          "type": "string[]"
        }
      ],
      "payable": false,
      "stateMutability": "view",
      "type": "function",
      "signature": "0xbc87eed3"
    },
    {
      "constant": false,
      "inputs": [
        {
          "name": "dist",
          "type": "string"
        },
        {
          "name": "trans",
          "type": "string"
        }
      ],
      "name": "setTransAndDist",
      "outputs": [],
      "payable": false,
      "stateMutability": "nonpayable",
      "type": "function",
      "signature": "0x2683c646"
    },
    {
      "constant": true,
      "inputs": [
        {
          "name": "dist",
          "type": "string"
        }
      ],
      "name": "getHiredTrans",
      "outputs": [
        {
          "name": "",
          "type": "string[]"
        }
      ],
      "payable": false,
      "stateMutability": "view",
      "type": "function",
      "signature": "0xb3561ca9"
    },
    {
      "constant": true,
      "inputs": [
        {
          "name": "trans",
          "type": "string"
        }
      ],
      "name": "getbookedDist",
      "outputs": [
        {
          "name": "",
          "type": "string[]"
        }
      ],
      "payable": false,
      "stateMutability": "view",
      "type": "function",
      "signature": "0x83cb6dbb"
    }
  ],
  "bytecode": "0x60806040526020604051908101604052806040805190810160405280600581526020017f64756d6d7900000000000000000000000000000000000000000000000000000081525081525060009060016200005b92919062000070565b503480156200006957600080fd5b5062000203565b828054828255906000526020600020908101928215620000c4579160200282015b82811115620000c3578251829080519060200190620000b2929190620000d7565b509160200191906001019062000091565b5b509050620000d391906200015e565b5090565b828054600181600116156101000203166002900490600052602060002090601f016020900481019282601f106200011a57805160ff19168380011785556200014b565b828001600101855582156200014b579182015b828111156200014a5782518255916020019190600101906200012d565b5b5090506200015a91906200018f565b5090565b6200018c91905b808211156200018857600081816200017e9190620001b7565b5060010162000165565b5090565b90565b620001b491905b80821115620001b057600081600090555060010162000196565b5090565b90565b50805460018160011615610100020316600290046000825580601f10620001df575062000200565b601f016020900490600052602060002090810190620001ff91906200018f565b5b50565b610c8180620002136000396000f3fe60806040526004361061006d576000357c0100000000000000000000000000000000000000000000000000000000900463ffffffff1680632683c6461461007257806383cb6dbb1461009b578063ac92c1d8146100d8578063b3561ca914610101578063bc87eed31461013e575b600080fd5b34801561007e57600080fd5b5061009960048036036100949190810190610a39565b610169565b005b3480156100a757600080fd5b506100c260048036036100bd91908101906109f8565b6103bf565b6040516100cf9190610b49565b60405180910390f35b3480156100e457600080fd5b506100ff60048036036100fa91908101906109f8565b610513565b005b34801561010d57600080fd5b50610128600480360361012391908101906109f8565b610555565b6040516101359190610b49565b60405180910390f35b34801561014a57600080fd5b506101536106a9565b6040516101609190610b49565b60405180910390f35b60006001826040518082805190602001908083835b6020831015156101a3578051825260208201915060208101905060208303925061017e565b6001836020036101000a0380198251168184511680821785525050505050509050019150509081526020016040518091039020905080839080600181540180825580915050906001820390600052602060002001600090919290919091509080519060200190610214929190610792565b5050806001836040518082805190602001908083835b60208310151561024f578051825260208201915060208101905060208303925061022a565b6001836020036101000a0380198251168184511680821785525050505050509050019150509081526020016040518091039020908054610290929190610812565b5060006002846040518082805190602001908083835b6020831015156102cb57805182526020820191506020810190506020830392506102a6565b6001836020036101000a038019825116818451168082178552505050505050905001915050908152602001604051809103902090508083908060018154018082558091505090600182039060005260206000200160009091929091909150908051906020019061033c929190610792565b5050806002856040518082805190602001908083835b6020831015156103775780518252602082019150602081019050602083039250610352565b6001836020036101000a03801982511681845116808217855250505050505090500191505090815260200160405180910390209080546103b8929190610812565b5050505050565b60606001826040518082805190602001908083835b6020831015156103f957805182526020820191506020810190506020830392506103d4565b6001836020036101000a0380198251168184511680821785525050505050509050019150509081526020016040518091039020805480602002602001604051908101604052809291908181526020016000905b82821015610508578382906000526020600020018054600181600116156101000203166002900480601f0160208091040260200160405190810160405280929190818152602001828054600181600116156101000203166002900480156104f45780601f106104c9576101008083540402835291602001916104f4565b820191906000526020600020905b8154815290600101906020018083116104d757829003601f168201915b50505050508152602001906001019061044c565b505050509050919050565b6000819080600181540180825580915050906001820390600052602060002001600090919290919091509080519060200190610550929190610792565b505050565b60606002826040518082805190602001908083835b60208310151561058f578051825260208201915060208101905060208303925061056a565b6001836020036101000a0380198251168184511680821785525050505050509050019150509081526020016040518091039020805480602002602001604051908101604052809291908181526020016000905b8282101561069e578382906000526020600020018054600181600116156101000203166002900480601f01602080910402602001604051908101604052809291908181526020018280546001816001161561010002031660029004801561068a5780601f1061065f5761010080835404028352916020019161068a565b820191906000526020600020905b81548152906001019060200180831161066d57829003601f168201915b5050505050815260200190600101906105e2565b505050509050919050565b60606000805480602002602001604051908101604052809291908181526020016000905b82821015610789578382906000526020600020018054600181600116156101000203166002900480601f0160208091040260200160405190810160405280929190818152602001828054600181600116156101000203166002900480156107755780601f1061074a57610100808354040283529160200191610775565b820191906000526020600020905b81548152906001019060200180831161075857829003601f168201915b5050505050815260200190600101906106cd565b50505050905090565b828054600181600116156101000203166002900490600052602060002090601f016020900481019282601f106107d357805160ff1916838001178555610801565b82800160010185558215610801579182015b828111156108005782518255916020019190600101906107e5565b5b50905061080e9190610882565b5090565b8280548282559060005260206000209081019282156108715760005260206000209182015b8281111561087057828290805460018160011615610100020316600290046108609291906108a7565b5091600101919060010190610837565b5b50905061087e919061092e565b5090565b6108a491905b808211156108a0576000816000905550600101610888565b5090565b90565b828054600181600116156101000203166002900490600052602060002090601f016020900481019282601f106108e0578054855561091d565b8280016001018555821561091d57600052602060002091601f016020900482015b8281111561091c578254825591600101919060010190610901565b5b50905061092a9190610882565b5090565b61095791905b80821115610953576000818161094a919061095a565b50600101610934565b5090565b90565b50805460018160011615610100020316600290046000825580601f10610980575061099f565b601f01602090049060005260206000209081019061099e9190610882565b5b50565b600082601f83011215156109b557600080fd5b81356109c86109c382610b98565b610b6b565b915080825260208301602083018583830111156109e457600080fd5b6109ef838284610bf4565b50505092915050565b600060208284031215610a0a57600080fd5b600082013567ffffffffffffffff811115610a2457600080fd5b610a30848285016109a2565b91505092915050565b60008060408385031215610a4c57600080fd5b600083013567ffffffffffffffff811115610a6657600080fd5b610a72858286016109a2565b925050602083013567ffffffffffffffff811115610a8f57600080fd5b610a9b858286016109a2565b9150509250929050565b6000610ab082610bd1565b80845260208401935083602082028501610ac985610bc4565b60005b84811015610b02578383038852610ae4838351610b13565b9250610aef82610be7565b9150602088019750600181019050610acc565b508196508694505050505092915050565b6000610b1e82610bdc565b808452610b32816020860160208601610c03565b610b3b81610c36565b602085010191505092915050565b60006020820190508181036000830152610b638184610aa5565b905092915050565b6000604051905081810181811067ffffffffffffffff82111715610b8e57600080fd5b8060405250919050565b600067ffffffffffffffff821115610baf57600080fd5b601f19601f8301169050602081019050919050565b6000602082019050919050565b600081519050919050565b600081519050919050565b6000602082019050919050565b82818337600083830152505050565b60005b83811015610c21578082015181840152602081019050610c06565b83811115610c30576000848401525b50505050565b6000601f19601f830116905091905056fea265627a7a723058202ea5d9eae7371357935216f209f62c58340520d10782b8edf4e8d6e028d50d7e6c6578706572696d656e74616cf50037",
  "source": "// SPDX-License-Identifier: MIT\npragma solidity >=0.5.0;\npragma experimental ABIEncoderV2;\n\ncontract Transportation {\n\n    string[] keyArray = [\"dummy\"];\n    mapping (string => string[]) transToDist;\n    mapping (string => string[]) distToTrans;\n\n\n    // agro farmer money transfer to contract\n    function setTransHiringArray (string memory keyValue) public {\n        keyArray.push(keyValue);\n    }\n    function getAllKeys() public view returns(string[] memory) {\n        return keyArray;\n    }\n    \n    function setTransAndDist(string memory dist, string memory trans) public {\n        string[] storage tTD = transToDist[trans];\n        tTD.push(dist);\n        transToDist[trans] = tTD;\n        \n        string[] storage dTT  = distToTrans[dist];\n        dTT.push(trans);\n        distToTrans[dist] = dTT;\n    }\n    \n    function getHiredTrans(string memory dist) public view returns (string[] memory){\n        return distToTrans[dist];\n    }\n    \n    function getbookedDist(string memory trans) public view returns (string[] memory){\n        return transToDist[trans];\n    }\n}",
  "sourcePath": "/home/nikhil/Desktop/scm_project/src/contracts/Transportation.sol",
  "compiler": {
    "name": "solc",
    "version": "0.5.0+commit.1d4f565a.Emscripten.clang"
  },
  "schemaVersion": "3.0.2",
  "updatedAt": "2021-06-03T09:11:02.158Z",
  "devdoc": {
    "methods": {}
  },
  "userdoc": {
    "methods": {}
  }
}